;SWE created by SWE-Generator 3.8.0 with config-file SweGen_768_OBD_3_SWE1.cfg
;
;$PROCESS_CLASS swfl Z
;$IDENTIFIER    0000508b N
;$VERSION       009_009_013 9
;
;$SWE_DESCRIPTION_TABLE_START_ADDRESS BFDC4 F
;$SWE_SIGNATURE_ADDRESS               BFDCC R
;$SWE_DEVELOPMENT_INFO_FIELD_ADDRESS  BFED0 5
;$SWE_DESCRIPTION_TABLE_END_ADDRESS   BFEDE Y
;
;$SIGNATURE_STATUS SIGNED 1
;$SIGNATURE_BYTE_ORDER MOTOROLA P
;$SIGNATURE_HASH_MODE SHA256 S
;$SIGNATURE_KEY_LENGTH 2048 N
;$SIGNATURE_MODE RSA D
;$SIGNATURE_NUMBER_BLOCKS 6 Y
;$SIGNATURE_BLOCK 40000 5FFFF Y
;$SIGNATURE_BLOCK 60000 7FFFF 6
;$SIGNATURE_BLOCK 80000 9FFFF E
;$SIGNATURE_BLOCK A0000 BFDC3 Z
;$SIGNATURE_BLOCK BFDC4 BFDCB G
;$SIGNATURE_BLOCK BFED0 BFFCF E
;
;$BLOCK_NUMBER 4 X
;$BLOCK 40000 5FFFF D
;$BLOCK 60000 7FFFF L
;$BLOCK 80000 9FFFF T
;$BLOCK A0000 BFFDF Z
;
;$CARB_MODE_9_CVN 8857E19C W
;$CHECKSUM CRC32 34AAEA9E  P
;
;=============================================================================
;Data Block 1: [040000 - 05FFFF] NOCOMPRESS
;=============================================================================
S32500040000822A0CC4842D01000507020001000000000400000004009C000400B000040164D8
S3250004002000040191000401C0000402740004032800041C7800041CA800041EC400041F78D1
S325000400400004202C0004253C0004254500042550000425BC000425E0000426040004262C88
S3250004006000042654000426E00004270400042754000427680004277C0004279000042820FF
S3250004008000042B8000042C0000042C8000042D0000042D0900042D1400042D20002D000990
S325000400A000230014000A0006000500200100000000043575000911E90004343B00043B3D29
S325000400C000042E6100043397000432710004312700042F7F0009149F0009129F0009128FE0
S325000400E000043A1D00043A7500043ABD0004379100043539000435650004393F00045E2F04
S3250004010000045E23000443B3000457D300044CCB00044B6700044295000457BF000441D746
S3250004012000044021000440D30004425D000466D3000466FF000460BF000463450004658335
S325000401400004692D00046901000467CB00046A05000469F10004342F00091185000911DD89
S325000401600009FD1D0101010101010101010101000101010101010101010101010101010137
S3250004018001010101010101010101010101010101010000010000010000000100010000013F
S325000401A000000001010000000100000000000001000100000100000001000000000000002E
S325000401C008012C000800A8000800B4000800B800080142000800E0000801440008014600E5
S325000401E0080148000800E8000800EC0008011C0008011E00080120000801220008012400F3
S32500040200080126000801280008012A0008012E0008013000080132000801340008009C00B5
S325000402200800A0000800A400080136000800AC000800B0000801380008013A000800BC006D
S325000402400800C0000800C4000800C8000800CC000800D0000800D4000800D80008013E0081
S32500040260080140000800DC000800E400080088000800900008012DFC0800ABFC0800B7FC97
S325000402800800BBFC080143FC0800E3FC080145FC080147FC080149FC0800EBFC0800EFFCA0
S325000402A008011DFC08011FFC080121FC080123FC080125FC080127FC080129FC08012BFCEC
S325000402C008012FFC080131FC080133FC080135FC08009FFC0800A3FC0800A7FC080137FC07
S325000402E00800AFFC0800B3FC080139FC08013BFC0800BFFC0800C3FC0800C7FC0800CBFCE8
S325000403000800CFFC0800D3FC0800D7FC0800DBFC08013FFC080141FC0800DFFC0800E7FC17
S3250004032008008FFC080097FC08012C0008004000000000000801900000000000000000006F
S32500040340F000000008003400080018000801C0000000000000000000000000110000001B52
S32500040360000000000000001700000000000000130000003700000009000000150000001BD9
S325000403800000003B0000002700001308000013080000000000001308000000000000130885
S325000403A00000130000001310000013100000131000001208000006080800A8000800400097
S325000403C000000000080190000000000000000000F000000008003400080018000801C00065
S325000403E00000000000000000000000130000001B000000000000001700000000000000139B
S325000404000000003700000009000000150000001B0000003B000000270000130800001308CA
S32500040420000000000000130800000000000013080000130000001310000013100000131000
S3250004044000001208000006080800B40008015300000000000801AD0000000000000000009C
S32500040460F0000000000000000000000000000000000000000000000000000013000000006F
S32500040480000000000000000000000000000000130000003700000000000000000000000008
S325000404A00000003B0000002700001308000013080000000000001308000000000000130864
S325000404C00000130000000000000000000000000000001208000006080800B80008004000CF
S325000404E000000000080190000000000000000000F000000008003400080018000801C00044
S325000405000000000000000000000000130000001B0000000000000017000000000000001379
S325000405200000003700000009000000150000001B0000003B000000270000130800001308A9
S325000405400000000000001308000000000000130800001300000013100000131000001310DF
S3250004056000001208000006080801420008004000000000000801900000000000000000001D
S32500040580F000000008003400080018000801C0000000000000000000000000110000001B10
S325000405A0000000000000001700000000000000130000003700000009000000150000001B97
S325000405C00000003B0000002700001308000013080000000000001308000000000000130843
S325000405E00000130000001310000013100000131000001208000006080800E0000801530009
S32500040600000000000801AD000000000000000000F00000000000000000000000000000002A
S3250004062000000000000000000000001300000000000000000000000000000000000000138A
S32500040640000000370000000000000000000000000000003B000000270000130800001308C1
S32500040660000000000000130800000000000013080000130000000000000000000000000027
S3250004068000001208000006080801440008015000000000000801AC000000000000000000CD
S325000406A0F00000000000000000000000000000000000000000000000000000110000000F20
S325000406C0000000000000000F000000000000001300000037000000000000000000000000B7
S325000406E00000003B0000002700001308000013080000000000001308000000000000130822
S325000407000000130000000000000000000000000000001208000006080801460008008000BD
S32500040720F00000000801A0000000000000000000000000000000000000000000FFF7C2005E
S3250004074000000000000000000000001100000015000000370000001500000000000000130A
S32500040760000000000000000000000000000000110000003B000000270000130800001308C6
S325000407800000130000001308000000000000130800000000000000000000000000001000F6
S325000407A000001208000006080801480008011800000000000801A8000000000000000000E4
S325000407C0F000000000000000000000000000000000000000000000000000001100000011FD
S325000407E0000000000000001100000000000000130000003700000000000000000000000094
S325000408000000003B0000002700001308000013080000000000001308000000000000130800
S325000408200000130000000000000000000000000000001208000006080800E8000801530027
S32500040840000000000801AD000000000000000000F0000000000000000000000000000000E8
S32500040860000000000000000000000013000000000000000000000000000000000000001348
S32500040880000000370000000000000000000000000000003B0000002700001308000013087F
S325000408A00000000000001308000000000000130800001300000000000000000000000000E5
S325000408C000001208000006080800EC00080040000000000008019000000000000000000011
S325000408E0F000000008003400080018000801C0000000000000000000000000130000001BAB
S32500040900000000000000001700000000000000130000003700000009000000150000001B33
S325000409200000003B00000027000013080000130800000000000013080000000000001308DF
S3250004094000001300000013100000131000001310000012080000060808011C000801530068
S32500040960000000000801AD000000000000000000F0000000000000000000000000000000C7
S32500040980000000000000000000000011000000000000000000000000000000000000001329
S325000409A0000000370000000000000000000000000000003B0000002700001308000013085E
S325000409C00000000000001308000000000000130800001300000000000000000000000000C4
S325000409E0000012080000060808011E000800400000000000080190000000000000000000BD
S32500040A00F000000008003400080018000801C0000000000000000000000000110000001B8B
S32500040A20000000000000001700000000000000130000003700000009000000150000001B12
S32500040A400000003B00000027000013080000130800000000000013080000000000001308BE
S32500040A60000013000000131000001310000013100000120800000608080120000800800017
S32500040A80F00000000801A0000000000000000000000000000000000000000000FFF7C200FB
S32500040AA00000000000000000000000110000001500000037000000150000000000000013A7
S32500040AC0000000000000000000000000000000110000003B00000027000013080000130863
S32500040AE0000013000000130800000000000013080000000000000000000000000000100093
S32500040B0000001208000006080801220008015300000000000801AD00000000000000000066
S32500040B20F000000000000000000000000000000000000000000000000000001100000000AA
S32500040B40000000000000000000000000000000130000003700000000000000000000000041
S32500040B600000003B000000270000130800001308000000000000130800000000000013089D
S32500040B8000001300000000000000000000000000000012080000060808012400080080005B
S32500040BA0F00000000801A0000000000000000000000000000000000000000000FFF7C200DA
S32500040BC0000000000000000000000011000000150000003700000015000000000000001386
S32500040BE0000000000000000000000000000000110000003B00000027000013080000130842
S32500040C00000013000000130800000000000013080000000000000000000000000000100071
S32500040C2000001208000006080801260008011800000000000801A800000000000000000081
S32500040C40F00000000000000000000000000000000000000000000000000000110000001178
S32500040C6000000000000000110000000000000013000000370000000000000000000000000F
S32500040C800000003B000000270000130800001308000000000000130800000000000013087C
S32500040CA0000013000000000000000000000000000000120800000608080128000801500065
S32500040CC0000000000801AC000000000000000000F000000000000000000000000000000065
S32500040CE00000000000000000000000110000000F000000000000000F0000000000000013A8
S32500040D00000000370000000000000000000000000000003B000000270000130800001308FA
S32500040D20000000000000130800000000000013080000130000000000000000000000000060
S32500040D40000012080000060808012A0008015300000000000801AD0000000000000000001C
S32500040D60F00000000000000000000000000000000000000000000000000000110000000068
S32500040D800000000000000000000000000000001300000037000000000000000000000000FF
S32500040DA00000003B000000270000130800001308000000000000130800000000000013085B
S32500040DC000001300000000000000000000000000000012080000060808012E00080153003B
S32500040DE0000000000801AD000000000000000000F000000000000000000000000000000043
S32500040E000000000000000000000000110000000000000000000000000000000000000013A4
S32500040E20000000370000000000000000000000000000003B000000270000130800001308D9
S32500040E4000000000000013080000000000001308000013000000000000000000000000003F
S32500040E60000012080000060808013000080040000000000008019000000000000000000026
S32500040E80F000000008003400080018000801C0000000000000000000000000110000001B07
S32500040EA0000000000000001700000000000000130000003700000009000000150000001B8E
S32500040EC00000003B000000270000130800001308000000000000130800000000000013083A
S32500040EE0000013000000131000001310000013100000120800000608080132000800800081
S32500040F00F00000000801A0000000000000000000000000000000000000000000FFF7C20076
S32500040F20000000000000000000000011000000150000003700000015000000000000001322
S32500040F40000000000000000000000000000000110000003B000000270000130800001308DE
S32500040F6000001300000013080000000000001308000000000000000000000000000010000E
S32500040F80000012080000060808013400080040000000000008019000000000000000000001
S32500040FA0F000000008003400080018000801C0000000000000000000000000110000001BE6
S32500040FC0000000000000001700000000000000130000003700000009000000150000001B6D
S32500040FE00000003B0000002700001308000013080000000000001308000000000000130819
S3250004100000001300000013100000131000001310000012080000060808009C000801530022
S32500041020000000000801AD000000000000000000F000000000000000000000000000000000
S32500041040000000000000000000000013000000000000000000000000000000000000001360
S32500041060000000370000000000000000000000000000003B00000027000013080000130897
S325000410800000000000001308000000000000130800001300000000000000000000000000FD
S325000410A000001208000006080800A00008015000000000000801AC00000000000000000048
S325000410C0F00000000000000000000000000000000000000000000000000000130000000FF4
S325000410E0000000000000000F0000000000000013000000370000000000000000000000008D
S325000411000000003B00000027000013080000130800000000000013080000000000001308F7
S325000411200000130000000000000000000000000000001208000006080800A400080118009D
S32500041140000000000801A8000000000000000000F0000000000000000000000000000000E4
S3250004116000000000000000000000001300000011000000000000001100000000000000131D
S32500041180000000370000000000000000000000000000003B00000027000013080000130876
S325000411A00000000000001308000000000000130800001300000000000000000000000000DC
S325000411C00000120800000608080136000800400000000000080190000000000000000000BD
S325000411E0F000000008003400080018000801C0000000000000000000000000110000001BA4
S32500041200000000000000001700000000000000130000003700000009000000150000001B2A
S325000412200000003B00000027000013080000130800000000000013080000000000001308D6
S325000412400000130000001310000013100000131000001208000006080800AC0008008000A4
S32500041260F00000000801A0000000000000000000000000000000000000000000FFF7C20013
S325000412800000000000000000000000130000001500000037000000150000000000000013BD
S325000412A0000000000000000000000000000000110000003B0000002700001308000013087B
S325000412C00000130000001308000000000000130800000000000000000000000000001000AB
S325000412E000001208000006080800B000080040000000000008019000000000000000000023
S32500041300F000000008003400080018000801C0000000000000000000000000130000001B80
S32500041320000000000000001700000000000000130000003700000009000000150000001B09
S325000413400000003B00000027000013080000130800000000000013080000000000001308B5
S3250004136000001300000013100000131000001310000012080000060808013800080118005D
S32500041380000000000801A8000000000000000000F0000000000000000000000000000000A2
S325000413A00000000000000000000000110000001100000000000000110000000000000013DD
S325000413C0000000370000000000000000000000000000003B00000027000013080000130834
S325000413E000000000000013080000000000001308000013000000000000000000000000009A
S32500041400000012080000060808013A0008015300000000000801AD00000000000000000045
S32500041420F000000000000000000000000000000000000000000000000000001100000000A1
S32500041440000000000000000000000000000000130000003700000000000000000000000038
S325000414600000003B0000002700001308000013080000000000001308000000000000130894
S325000414800000130000000000000000000000000000001208000006080800BC0008004000FB
S325000414A000000000080190000000000000000000F000000008003400080018000801C00074
S325000414C00000000000000000000000130000001B00000000000000170000000000000013AA
S325000414E00000003700000009000000150000001B0000003B000000270000130800001308DA
S3250004150000000000000013080000000000001308000013000000131000001310000013100F
S3250004152000001208000006080800C00008015300000000000801AD0000000000000000009F
S32500041540F0000000000000000000000000000000000000000000000000000013000000007E
S32500041560000000000000000000000000000000130000003700000000000000000000000017
S325000415800000003B0000002700001308000013080000000000001308000000000000130873
S325000415A00000130000000000000000000000000000001208000006080800C4000800800092
S325000415C0F00000000801A0000000000000000000000000000000000000000000FFF7C200B0
S325000415E000000000000000000000001300000015000000370000001500000000000000135A
S32500041600000000000000000000000000000000110000003B00000027000013080000130817
S32500041620000013000000130800000000000013080000000000000000000000000000100047
S3250004164000001208000006080800C8000800400000000000080190000000000000000000A7
S32500041660F000000008003400080018000801C0000000000000000000000000130000001B1D
S32500041680000000000000001700000000000000130000003700000009000000150000001BA6
S325000416A00000003B0000002700001308000013080000000000001308000000000000130852
S325000416C00000130000001310000013100000131000001208000006080800CC00080153002C
S325000416E0000000000801AD000000000000000000F00000000000000000000000000000003A
S32500041700000000000000000000000013000000000000000000000000000000000000001399
S32500041720000000370000000000000000000000000000003B000000270000130800001308D0
S32500041740000000000000130800000000000013080000130000000000000000000000000036
S3250004176000001208000006080800D00008008000F00000000801A00000000000000000003E
S32500041780000000000000000000000000FFF7C200000000000000000000000013000000155F
S325000417A00000003700000015000000000000001300000000000000000000000000000011AF
S325000417C00000003B000000270000130800001308000013000000130800000000000013081E
S325000417E00000000000000000000000000000100000001208000006080800D40008011800AA
S32500041800000000000801A8000000000000000000F00000000000000000000000000000001D
S32500041820000000000000000000000013000000110000000000000011000000000000001356
S32500041840000000370000000000000000000000000000003B000000270000130800001308AF
S32500041860000000000000130800000000000013080000130000000000000000000000000015
S3250004188000001208000006080800D800080040000000000008019000000000000000000055
S325000418A0F000000008003400080018000801C0000000000000000000000000130000001BDB
S325000418C0000000000000001700000000000000130000003700000009000000150000001B64
S325000418E00000003B0000002700001308000013080000000000001308000000000000130810
S3250004190000001300000013100000131000001310000012080000060808013E000801530076
S32500041920000000000801AD000000000000000000F0000000000000000000000000000000F7
S32500041940000000000000000000000011000000000000000000000000000000000000001359
S32500041960000000370000000000000000000000000000003B0000002700001308000013088E
S325000419800000000000001308000000000000130800001300000000000000000000000000F4
S325000419A000001208000006080801400008015000000000000801AC0000000000000000009E
S325000419C0F00000000000000000000000000000000000000000000000000000110000000FED
S325000419E0000000000000000F00000000000000130000003700000000000000000000000084
S32500041A000000003B00000027000013080000130800000000000013080000000000001308EE
S32500041A200000130000000000000000000000000000001208000006080800DC000800400035
S32500041A4000000000080190000000000000000000F000000008003400080018000801C000CE
S32500041A600000000000000000000000130000001B0000000000000017000000000000001304
S32500041A800000003700000009000000150000001B0000003B00000027000013080000130834
S32500041AA000000000000013080000000000001308000013000000131000001310000013106A
S32500041AC000001208000006080800E400080040000000000008019000000000000000000007
S32500041AE0F000000008003400080018000801C0000000000000000000000000130000001B99
S32500041B00000000000000001700000000000000130000003700000009000000150000001B21
S32500041B200000003B00000027000013080000130800000000000013080000000000001308CD
S32500041B400000130000001310000013100000131000001208000006080800880008004000FF
S32500041B6000000000080190000000000000000000F000000008003400080018000801C000AD
S32500041B800000000000000000000000150000001B00000000000000170000000000000013E1
S32500041BA00000003700000009000000150000001B0000003B00000027000013080000130813
S32500041BC0000000000000130800000000000013080000130000001310000013100000131049
S32500041BE000001208000006080800900008004000000000000801900000000000000000003A
S32500041C00F000000008003400080018000801C0000000000000000000000000150000001B75
S32500041C20000000000000001700000000000000130000003700000009000000150000001B00
S32500041C400000003B00000027000013080000130800000000000013080000000000001308AC
S32500041C600000130000001310000013100000131000001208000006080202000202000305A6
S32500041C800100020002050005010300000205020003010205020100020005020005010200FF
S32500041CA00302020202000000000000000000000000000000080151000000000F000013088B
S32500041CC00000000000000000000000000000000000000000000000000000000000000000FA
S32500041CE00000000000000000000000000000000000000000000000000000000000000000DA
S32500041D000000000000000000000000000000000000000000000000000000000000000000B9
S32500041D20000000000000000000000000000000000000000000000000000000000000000099
S32500041D40000000000000000000000000000000000000000000000000000000000000000079
S32500041D60000000000000000000000000000000000000000000000000000000000000000059
S32500041D80000000000000000000000000000000000000000000000000000000000000000039
S32500041DA0000000000000000000000000000000000000000000000000000000000000000019
S32500041DC00000000000000000000000000000000000000000000000000000000000000000F9
S32500041DE00000000000000000000000000000000000000000000000000000000000000000D9
S32500041E000000000000000000000000000000000000000000000000000000000000000000B8
S32500041E20000000000000000000000000000000000000000000000000000000000000000098
S32500041E4008013C000000001100001308000000000000000000000000000000000000000007
S32500041E60000000000000000000000000000000000000000000000000000000000000000058
S32500041E80000000000000000000000000000000000000000000000000000000000000000038
S32500041EA0080152000000000F0000130808014A000000001100001308000000000000000014
S32500041EC000000000000000000801510000000000000000000000000000000000000000009E
S32500041EE00000000000000000000000000000000000000000000000000000000000000000D8
S32500041F000000000000000000000000000000000000000000000000000000000000000000B7
S32500041F20000000000000000000000000000000000000000000000000000000000000000097
S32500041F4000000000000000000000000008013C000000000000000000000000000000000032
S32500041F600000000000000000000000000801520008014A000000000000000000080151F857
S32500041F80000000000000000000000000000000000000000000000000000000000000000037
S32500041FA0000000000000000000000000000000000000000000000000000000000000000017
S32500041FC00000000000000000000000000000000000000000000000000000000000000000F7
S32500041FE00000000000000000000000000000000000000000000000000000000000000000D7
S3250004200008013DFC0000000000000000000000000000000000000000000000000000000074
S32500042020080152F808014BFC00000000000000000800400000000000080190000000000012
S3250004204000000000F000000008003400080018000801C0000000000000000000000000134E
S325000420600000001B00000000000000170000000000000013000000370000000900000015BC
S325000420800000001B0000003B00000027000013080000130800000000000013080000000068
S325000420A0000013080000130000001310000013100000131000001208000006080000000057
S325000420C00800400000000000080190000000000000000000F00000000800340008001800C9
S325000420E00801C0000000000000000000000000130000001B000000000000001700000000C8
S32500042100000000130000003700000009000000150000001B0000003B0000002700001308B5
S325000421200000130800000000000013080000000000001308000013000000131000001310EB
S32500042140000013100000120800000608000000000800400000000000080190000000000049
S3250004216000000000F000000008003400080018000801C0000000000000000000000000132D
S325000421800000001B000000000000001700000000000000130000003700000009000000159B
S325000421A00000001B0000003B00000027000013080000130800000000000013080000000047
S325000421C0000013080000130000001310000013100000131000001208000006080000000036
S325000421E00800400000000000080190000000000000000000F00000000800340008001800A8
S325000422000801C0000000000000000000000000130000001B000000000000001700000000A6
S32500042220000000130000003700000009000000150000001B0000003B000000270000130894
S325000422400000130800000000000013080000000000001308000013000000131000001310CA
S325000422600000131000001208000006080000000008008000F00000000801A00000000000E8
S3250004228000000000000000000000000000000000FFF7C20000000000000000000000001369
S325000422A00000001500000037000000150000000000000013000000000000000000000000A0
S325000422C0000000110000003B0000002700001308000013080000130000001308000000001D
S325000422E0000013080000000000000000000000000000100000001208000006080000000081
S3250004230008008000F00000000801A000000000000000000000000000000000000000000092
S32500042320FFF7C2000000000000000000000000130000001500000037000000150000000067
S3250004234000000013000000000000000000000000000000110000003B0000002700001308D2
S325000423600000130800001300000013080000000000001308000000000000000000000000EF
S3250004238000001000000012080000060800000000080040000000000008019000000000001A
S325000423A000000000F000000008003400080018000801C000000000000000000000000013EB
S325000423C00000001B0000000000000017000000000000001300000037000000090000001559
S325000423E00000001B0000003B00000027000013080000130800000000000013080000000005
S325000424000000130800001300000013100000131000001310000012080000060800000000F3
S3250004242008015300000000000801AD000000000000000000F0000000000000000000000090
S3250004244000000000000000000000000000000013000000000000000000000000000000005F
S3250004246000000013000000370000000000000000000000000000003B00000027000013088B
S325000424800000130800000000000013080000000000001308000013000000000000000000CE
S325000424A00000000000001208000006080000000008015300000000000801AD0000000000D8
S325000424C000000000F0000000000000000000000000000000000000000000000000000013EF
S325000424E0000000000000000000000000000000000000001300000037000000000000000088
S32500042500000000000000003B000000270000130800001308000000000000130800000000FE
S32500042520000013080000130000000000000000000000000000001208000006080202020233
S32500042540050502000000000000000000010100000000000000000000000000000000000063
S32500042560000000000000000000000000000000000000000000000000000000000000000051
S32500042580000000000000000000000000000000000000000000000000000000000000000031
S325000425A0000000000000000000000000000000000000000000000000000000000000000011
S325000425C00000000000000000000000000000000000000000000000000000000000000000F1
S325000425E00000000000000000000000000000000000000000000000000000000000000000D1
S32500042600000000000800F0000800F4000800F8000800FC0008010000080104000801080091
S3250004262008010C0008011000080114000800F3FC0800F7FC0800FBFC0800FFFC080103FC49
S32500042640080107FC08010BFC08010FFC080113FC080117FC0008B1590008B15D0008B143E8
S325000426600008B1470008B1970008B1930008B18F0008B17F0008B1670008B11B0008B11770
S325000426800008B1330008B12B0008B1230008B1710008B1750008B10F0008B0F30008B153AD
S325000426A00008B14B0008B1630009BE210009BDC90009BDB50009BDA50009BDF30009BDCD47
S325000426C00009BE010009BDDB0009BDE70009BD9F0009EFD50008B0F70008B1030008B0EF96
S325000426E00000000000000000000000000000000000000000000000000000000000000000D0
S32500042700040404000008B3090008B3050008B3110008B4310008B40D0008B3D70008B3B39D
S325000427200008B3830008B4550008B4070008B4010008B3A70008B36B0008B3150008B37F2E
S325000427400008B3790008B30D0008B4650008B3190008B3550102030505050505050505053B
S32500042760050505050505050508014C000801B8E4080090000801B6E808014E0008014DFC45
S325000427800801BC44080097FC0801B8E408014FFC08014E000800980000000000000000009B
S325000427A0000000000801C00000000000000000000000000000000000000000000000000046
S325000427C00000001100000013000000000000000000000000000000130000000000000000B8
S325000427E000000000000000000000003B000000270000130800001308000000000000000037
S3250004280000000000000013080000000000000000000000000000000000001208000006086B
S325000428200000000008015300000000000801AD00000000000801C000F000000000000000C3
S3250004284000000000000000000000000000000000000000000000000000000000000000006E
S325000428600000000000000013000000370000000000000000000000000000003B00000027A2
S325000428800000130800001308000000000000130800000000000013080000130000000000AF
S325000428A0000000000000000000001208000006080000000008011800000000000801A80014
S325000428C0000000000801C000F0000000000000000000000000000000000000000000000035
S325000428E0000000000000001100000000000000110000000000000013000000370000000062
S3250004290000000000000000000000003B0000002700001308000013080000000000001308FA
S32500042920000000000000130800001300000000000000000000000000000012080000060837
S3250004294000000000080040000000000008019000000000000801C000F00000000800340097
S32500042960080018000801C0000000000000000000000000000000001B000000000000001732
S3250004298000000000000000130000003700000009000000150000001B0000003B0000002748
S325000429A000001308000013080000000000001308000000000000130800001300000013106B
S325000429C0000013100000131000001208000006080000000008015000000000000801AC0071
S325000429E0000000000801C000F0000000000000000000000000000000000000000000000014
S32500042A00000000000000000F000000000000000F0000000000000013000000370000000044
S32500042A2000000000000000000000003B0000002700001308000013080000000000001308D9
S32500042A40000000000000130800001300000000000000000000000000000012080000060816
S32500042A600000000008011A00000000000801AA00000000000801C0000000000000000000AD
S32500042A8000000000000000000000000000000000000000000000001100000000000000110A
S32500042AA00000000000000013000000000000000000000000000000000000003B0000002797
S32500042AC0000013080000130800000000000013080000000000001308000000000000000080
S32500042AE0000000000000000000001208000006080000000008008000F00000000801A00083
S32500042B00000000000801C000000000000000000000000000FFF7C20000000000000000002A
S32500042B20000000000000001500000037000000150000000000000013000000000000000017
S32500042B4000000000000000110000003B000000270000130800001308000013000000130894
S32500042B600000000000001308000000000000000000000000000010000000120800000608F8
S32500042B80FFF7BC00FFF7BC00FFF7DC00FFF7DE00FFF7E000FFF7E400FFF7E500FFF7D400CC
S32500042BA0FFF7F400FFF7F600FFF7F800FFF7FA00FFF7FC00FFF7B800FFF7B900FFFFFF000B
S32500042BC0FFF7C000FFF7C200FFFFFA00FFFFF700FFFFEA00FFFFFC00FFFFF524FFFFFE009B
S32500042BE0FFFFF538FFF7F400FFF7F800FFF7FC00FF0E0000FF0C0000FF0A0000FFFFFFE0D8
S32500042C00FFF7BCFFFFF7BCFFFFF7DDFFFFF7DFFFFFF7E1FFFFF7E4FFFFF7E5FFFFF7D4FF50
S32500042C20FFF7F5FFFFF7F7FFFFF7F9FFFFF7FBFFFFF7FDFFFFF7B8FFFFF7B9FFFFFFFFFF8D
S32500042C40FFF7C1FFFFF7C3FFFFFFFAFFFFFFF7FFFFFFEBFFFFFFFCFFFFFFF527FFFFFE4BCF
S32500042C60FFFFF541FFF7F5FFFFF7F9FFFFF7FDFFFF0FFFFFFF0DFFFFFF0BFFFFFFFFFFE34E
S32500042C800000002700000027000000270000002700000027000000270000002700000027F2
S32500042CA00000002700000027000000270000002700000027000000270000002700000027D2
S32500042CC00000002700000027000000270000002700000027000000270000002700000027B2
S32500042CE0000000270000002700000027000000270000002700000027000000270000002792
S32500042D0003051A0C25260414130101010101010100000000000000030000000000000000FB
S32500042D200003322002120303030303030C030303030303131403030303031A030303030391
S32500042D400303030303252603030303030303030303030303030303030303030303030303C4
S32500042D600303030303030303030303030303030303030303030303030303030303030303E9
S32500042D80000099B7B5F8F64916F8F6C0060128006831EA4F7591F3C16341F3C164C1F3C13D
S32500042DA05281D03F2801F3C16C00F3C17740D0182803F1A50501D1521E64F0214140EA4162
S32500042DC07185F00404031E5BF02151F0F0030303EA4161C4EA4161431E52F36251976031D7
S32500042DE0BDF81E6DF0050503F3C101152001EA2007071E64EA417185F00404031E5BEA4147
S32500042E007147F0030303EA4161C4EA200C0C1E52EA416143F0020203EA41610CEA415182B9
S32500042E206031BDF81E6DF0050503F02141401E64EA417185F0040403F02151C01E5BEA41C4
S32500042E4061C4F0030303F02161C01E52EA416143F0020203F4210140EA4151826031BDF848
S32500042E60E92D4FF8F64917F520FFF6457654F6C00701F6490BDDF6C00600F6490ADEF6C0FE
S32500042E800B01F64909DFF6C00A01F64918F7F6C00901F6C00801F06BE89420044669F06A63
S32500042EA0EFF29800B2C0F06AEF6498000980D303F045FB08F04AFDF3980009C0D303F05E92
S32500042EC0F911F018FC989900F0010001F00101104301D010F057FACA78F078B17872783360
S32500042EE0F64905DCF8890000F6C00501F88A1000F88B2000702B98000900D301F05EF8FEE2
S32500042F009C00F0140402D001F057FAA998000A00D301F01EF8109D00F0150508D001F02E1C
S32500042F20FBF298000A00D301F02EFBE09800F00000984304D001F047FBDE9800F00000F764
S32500042F404305F04F00FFD0A6F059FD05787878394281D002F7FFFF167839F8881000F05955
S32500042F60FCF120FFE7972801F64A0214D106F6C00201681143C8F361001E60104770B5F8E4
S32500042F80F64A06142007F64A050EF6C00601F64A0710F6C00501F6C00701F06BE812200848
S32500042FA04669F06AEF709800F0000007F06AEEE09C00F0140401D001F045FAE09800088043
S32500042FC0D301F044FE429800F00000064304F04F0007D0E2F059FCBF786878294281D006B4
S32500042FE02801D104683243D0F362001E60307039F059FCA82007E7D0B5F8F24A176CF6C083
S32500043000070128006839EA4F7ED1F3C14381F3C15481F3C16600F3C16541F3C15201F3C11D
S325000430207C80D0512801F3C16CC0F3C17601D01F2802F1A20201D0132803F64F70FFF1A62D
S325000430400601F6CC70F3D16DF00606031E5BF00303034008EA407006EA4040836038BDF869
S32500043060F0020203F4211140EA4151026039BDF820011E76F0060603F0215140EA41710625
S32500043080EA200C0CF02160001E6DEA4060CCF0050503F02060C01E64EA406045F004040339
S325000430A0F42000401E52EA405084F0020203F42010401E5BEA405002F0030303F420204087
S325000430C0EA4041836039BDF82001EA200E0EEA200C0CF0214140EA4171CE1E6DEA41718C92
S325000430E0F0050503F02161C0EA416145EA200606F02171801E64EA416106F0040403F4218A
S3250004310001401E52EA415184F0020203F42111401E5BEA415102F0030303F4212140EA4106
S3250004312041836039BDF8E92D4FF8F24A1768201FF24A09F5F6C00701F24A08F4F6C009012C
S32500043140F2481668F6C00801F24A0BF6F6C00600F24A1A6AF6C00B01F6C00A01F06AEF3039
S3250004316020074669F06AEE8E9800F000001FF06AEE009D00F0150501D001F045FA5098001A
S325000431800880D307F053FC1078317870F8881000F889000098000900D312F053F99EF24A36
S325000431A01120F6C0010178307008F053FBDB78B078327871F88B0000F8882000F889100074
S325000431C09C00F0140402D001F053F9849800F00000184304D001F03AFB409800F000001EEB
S325000431E04305F04F001FD0B9F059FBB5787878394281D002F7FFFF007839F88A1000F059E6
S32500043200FBA1201FE7AAB538F64A4408F0300501F6C004016821EA4F7291F3C17301D01908
S325000432202802F3C16381D00C2803F1A20201D11EF0214140EA4171821E5BF363619B60213A
S32500043240BD38F02161401E5BF0030303EA4161836021BD381E521E5BF0020203F0030303ED
S32500043260F0214170EA417182EA4171036021BD38E92D41F0F1AD0D08F64A4503201FF24557
S32500043280077CF6C00501F64A4802F6C00701F64A4605F6C00801F6C00601F06AEE92200696
S325000432A04669F06AEDF09800F000001FF06AED609C00F0140401D001F045FA099800094041
S325000432C0D301F040F9EF98000880D304F044F9B67838F88800009900F0010008F001011258
S325000432E04301D001F037FB639800F000001E4304F04F001FD0D1F059FB2E78687829428188
S32500043300D002F7FFFF8078297031F059FB1B201FE7C3B570F24B4534F6C005012801682981
S32500043320F3C17441F3C16201F3C16381D01C2803F1A40401D12E43C8F0004600F021417FA9
S32500043340F0040403430E1E5BEA467644F0005080F00303031E524330F0020203EA40608314
S32500043360EA4060026028BD701E64F00404031E5BF02141C0EA417144F0030303F02161406F
S325000433801E52EA416183F0020203F0217140EA4161026029BD70B5F8F24B4630207FF24B6B
S325000433A04732F6C00601F6C00701F06AEE0A20054669F06AED689800F000007FF06AECD815
S325000433C09D00F0150501D001F045F9D2980009C0D301F05DFE6498000900D301F03AEB36C6
S325000433E09C00F0140402D001F034FA1198000980D301F05DFE609800F00000384304D001A5
S32500043400F02EFEC79800F000007E4305F04F007FD0CBF059FAA0787078314281D002F7FF19
S32500043420FF7878317039F059FA8D207FE7BDB508F055F814F06AE818BD08E92D4FF8F649DD
S32500043440189F20FFF649179EF6C00801F649169DF6C00701F649159AF6C00601F2456408DB
S32500043460F6C00501F24B2B5FF6C00401F6491A8CF6C00B01F64909B0F6C00A01F6C00901E4
S32500043480F06AED9E20024669F06AECFC9800B2C0F06AEC6E980008C0D304F89B0000702012
S325000434A0F00EF88498000840D30EF898000078397832782BF89AC000712070E170A2706320
S325000434C0F884C000F00EFD129800F8D910000880D207783AF8983000F8DDC000783178286F
S325000434E0E0096021F00EFB5278287831F8DDC000783AF8983000EA5F1C1CD3057061702003
S3250004350070E370A2F00DFF6E98000940D301F00FFA6B98000980D301F00FF97A980009C0F1
S32500043520D301F00EF95E98000A00F04F00FFD3A7F00EF9F520FFE7A3B508F045F84DF049F9
S32500043540FB86F24B20B8F6C00001F6410138F6C0010168006008F04AFDC1F050F948F0694A
S32500043560EF84BD08B508F045F8E0F040FBD3F069EF7CBD08E92D4FF8F05DFDCBF046FE0B07
S32500043580F6457444F6491508F6C00400F64918C0F6C00501F64919BCF6C008016867F64964
S325000435A000B768A3F6C00001F894C000F6491EC46829F6C00E017802F6C00901F8C870005B
S325000435C0F6491675F8CE3000F6C00601F889C0006061783070227220F023FF42F05EFD688F
S325000435E0F019F989F64913647921F6C003017960682270197030602AF051FB11F042FE4851
S32500043600F033FC5DF24B10D8F6C0000168006020F03CFF7EF64907EC7925F6C007017BA00E
S32500043620F6490CE868A3F6C00C017B22F64906F0603BF6C00601F88C5000F64903F2F6490E
S3250004364005F1F6C003017B61F6C00501703270187029F038F950F048FE5FF048FA0BF03FE3
S32500043660F902F01BF837F01EFB98F6490064F6C0000168216001F02EFCEDF038FD2AF018C8
S32500043680F83D2400F04F0906F64917E0F04F0A04F64916F4F6C00701F64915F0F6C00601EE
S325000436A0F6C005012001F06AEC8C46204669F06AEBEA9800F0000001F06AEB5A9800084005
S325000436C0F04F0001D3EFF041F98DF059F94478A846A05C297031B96078E91C4070A878A867
S325000436E04288BF1CF8869000F04F0801D1096838E00878E870AC4284BF1CF8869000F04FF9
S3250004370008016838F04040006038F059F91BF1B80F01F04F0001D1C678A8F64821FCF2C0D4
S32500043720010AE020F059F91778A8F88680002800BF1270AC1C4070A8683878EA78A9F04021
S32500043740400042916038BF1AF8869000F04F080146A0F059F8F7F1B80F01D1A378A8F648DC
S3250004376021FCF2C0010AF8158000FB18F00AF851B000F1BB0F00D0D5F059F8EDF886900036
S32500043780F059F8E046204659F06AEA682001E78AE92D4FF8F02BFB26F2481430F6C00400EA
S325000437A068A0F24A014CF8D48014F24A0B58F8D4E018F24A0A5CF8D4C01CF6C001016A2718
S325000437C0F6C00B016A66F24A09606008F6C00A01F8CB8000F6C009016AA5F8CAE000F8C90A
S325000437E0C0006AE3F24A0864F24A0150F24A0E68F6C0010168E0F6C00801F24A0C6CF6C0A2
S325000438000E016008F6C00C01F8C87000F8CE6000F24A0154F8CC5000F6C001016920F24AEC
S325000438200770F24A0674F6C007016B22F24A05786008F6C00601603BF6C005016B61F24AC9
S32500043840037C6820F6C00301603260296018F028FF1DF03EFCA1F023FF63F24A0544F24AD5
S325000438600638F6C0050168E1F24A03486920F6C0030168A2F6C00601602960186032F05E89
S32500043880FBB7F051FD44F24A010CF6C0010168606008F04CFB77F64910B8F6C000017800D5
S325000438A07220F016FCE1F24A1140F6C00101F24A162CF24A10446809F6C0000168E3F24A87
S325000438C015306922F6C006016800F6C0050160A16033602A6120F032F9B3F24A07B8F24A89
S325000438E006BCF6C007016963F24A05C069A2F6C00601603BF6C0050169E1F24A03C46A207B
S32500043900F6C00301603260296018F036FE53F045FF12F02DF85FF24A0114F24A0210F6C0CA
S32500043920010168E3F6C002017A20600B7010F02FFD54F046F9ADF069ED98E8BD8FF8B5F8EF
S32500043940F03EFFF8F05CFEAAF01AF8E3F04FFC58F057FD84F031F852F025EBCAF24554F84C
S32500043960F6C00401F24B12EEF24B13ECF6C002018860F6C00301782180107019F041FE5974
S32500043980F045FC3FF021F913F24B3000F6C00001F99000007020F053FE2DF02CFAE3F24BAF
S325000439A027E06823F6C007016862F24B26E468A1F24B25E8603BF6C00601F24B23ECF6C0EF
S325000439C0050168E0F6C00301603260296018F047E87AF24B2790F24B2598F6C00701782263
S325000439E0F6C005017A20F24B2394703AF6C003016861F24B229C68E4F6C002016019702835
S32500043A006014F032FDD9F00FFB16F034FB0BF05DFB5DF042FFD8F069ED28BDF8B570F051BF
S32500043A20F8CDF6457440F6C00400F64905A1F649069CF64903A678A1F6C0050178E0F6C07D
S32500043A4003018822F6C00601702970188032F044FD67F02DEB10F64911B6F64912B4F6C0AD
S32500043A6001018863F6C002018820800B8010F069ECFCBD70B510F044FE00F64910B6F6492A
S32500043A8011B4F6C00001F2481428F6C00101F6C004008800880980608021F055F942F24A62
S32500043AA01124F24A1222F6C0010188E3F6C0020188A0800B8010F069ECD8BD10B5F8F0446D
S32500043AC0FE85F03AE9E2F058FAD1F24550ECF6C00001F24B27FFF24B2EFDF9906000F24B36
S32500043AE02CFEF9905001F6C00E01F9904002F6C00C01F9903003F6C00701F88E6000F88C81
S32500043B005000F24B3600703CF6C00601F9902004F24B3501F9901005F24B34027033F6C0E5
S32500043B200501F24B3304F6C004016880F6C00301702A70216018F069EC98BDF8E92D4FF01A
S32500043B40F1AD0D1CF6457404F6C004001DA090011D6090021D2090031CE090041CA0900519
S32500043B60F64905B01C609006F6C00501F04F30FFF06AEA2620034669F06AE9849800F06A16
S32500043B80E8F898000C00D301F05CFE1E98000940F24B205FD305F6C0000178007020F01720
S32500043BA0FEF1980009C0D301F017FE2B98000900F04F0006D32AF010F93420434621F010CD
S32500043BC0FAB199062044F010FAAD99052045F010FAA999042046F010FAA599032047F0103B
S32500043BE0FAA199022048F010FA9D99012049F010FA99F64910E4F6C0000168000A40BF276E
S32500043C00204071E0200071E0F017FF0B98000980D301F017FE2898000880D301F018FC9FAE
S32500043C2098000840D301F018FCB39A00F649109EF649119FF6C00001F6C0010108D27800D8
S32500043C40F649129A7809F6C00201D31770A0F6491C9D7813F6C00C017023F89C200070E15D
S32500043C607062F018F877F649109FF6C00001F6491B9EF6C00B017801F89B00009A000A9250
S32500043C80D30370617020F018FC2F98000A00D30368286020F018F83398000A40D301F01837
S32500043CA0F81598000AC0D301F040FBA39900F6491095F6C000010B097800D30D7020F017B2
S32500043CC0FF30F6491095F6491265F6C00001F6C0020178617800701199000B49D30270207D
S32500043CE0F017FE0498000C00BF386828D302F040FBB268289A00F649119CF6C001010BD229
S32500043D007809D30F60607021F018FB00F649109CF6C00001F649131068A2F6C003017801A1
S32500043D206828601A9A000B92D30360607021F018FCCC98000D80D301F018FBB298000D40AE
S32500043D40D301F018FCE398000DC0D301F017FE4598000E00D301F017FD6D98000EC0D301F6
S32500043D60F018FA7298000E40D301F018FC9598000F00D301F018FA1F98000E80D301F018D4
S32500043D80FC4898000F80D301F018F83398000F40D301F018FC1698000FC0D301F017FF721F
S32500043DA098000800D301F017FDD498000C80D301F01AFB8898000CC0D301F01AFA6D9800E7
S32500043DC00C40D301F01AFEE298000C00F24A102CF0C08116F24A1C30F6C00001F6C00C016A
S32500043DE06801F8DC000060216060F050FDD0F64908A6F64903A4F894C024F64906A5F89475
S32500043E009026F6490AA7F8947025F6C00301F894B027F6C00801F8940028F6C00601F88309
S32500043E20C000F6C00A01F8889000F64901A87037F6C00101F88AB000F89420237008F649E8
S32500043E40039FF64908A1F64906A0F894C01FF6490AA2F8947020F6C00301F8949021F6C0CA
S32500043E600601F894B022F6C00801F883C000F6C00A017037F64900A3F8889000F6C00001C8
S32500043E80F88AB000F8D4C0307002F8947034F64901B4F894901AF6C001017E66F649089AE1
S32500043EA0F8B4B01CF6490399F8C5C000F6C008017FA2F6C00301700FF6490A9CF88890001A
S32500043EC0F6C00A01701EF649009EF894E02CF6C00001F8AAB000F6490C96F8948016F649C9
S32500043EE001B57002F6C00C01F8946035F6C00101F894B017F6490794F8943036F6490997F6
S32500043F007E22F6490098F88C8000F6C00901700EF6C00701F894A029F6C00001F8D4C01078
S32500043F20F64901B6F889B000F64908907002F6C00101F8949014F6C008017D62F6490095AD
S32500043F40700BF6C00001F8C8C000F6490BA9F8879000F6C00B017002F64901AA7A66F64966
S32500043F60088AF894902AF649078BF894C00AF6C00101F64903B8F649008CF88BA000F6C0E2
S32500043F8008017B22F6C00701F894B00BF6C00001F8819000F6490AB7F888C000F6C00301B2
S32500043FA07002F64901ABF894802BF6C00A01F887B000F6C00101F8942037F64909ACF89458
S32500043FC0B008F6490089F88A2000F6C00901F8818000F6C00001F894A038F6490788F88992
S32500043FE0E000F6490CB97006F6C00701F883A000F6C00C01F894A039F887B000F88CA00009
S3250004400098000D00D301F01AF8BD98000C00F04F30FFF4FFADADF05CFBDBF04F30FFE5A7E3
S32500044020B5F8F05CFBD9F24B10D8F24B2230F6C00001F6C00201F64901A06807F6C001017E
S325000440406816F24A0084F24A0288F6C00001F64564DCF6C00201780DF6C004006803681243
S32500044060F24A018C6027F6C0010160667225F24B20C47809F6C0000160E3612268007521B4
S3250004408061A0F03CF876F64906E87F23F64905EC6A22F6C00601F8941024F6C00501F8942B
S325000440A00025F64907F07033F6C00701602AF64903F1F64902F2F6C003017039F6C002012E
S325000440C0F894402670187014F05CFB8AF069E9CCBDF8B5F8F05DFC2CF24B20D0F24B21C8CF
S325000440E0F6C00001F6410420F6C00101F6C004016800680960606021F049FE40F64902A0BF
S32500044100F24A0080F6C00201F24B3151F6C00001F6C001017816F24A02E4F6C0020168071A
S32500044120780DF24A00D06812F24A01DC7126F6C000016027F6C0010171657803F24A100C1B
S325000441406809F6C0000160A260E1680071A36120F04FF9E1F64A0E0CF24A0068F64A0C0D7D
S32500044160F24A026CF24A0134F6C000017D27F6C002017D66F6C001016803F6C00E016812C1
S32500044180F6C00C01680DF88E7000F24A0048F88C6000F24A014460A2F6C000016025F6C00A
S325000441A00101606368006809612060E1F048FBC3F24A005CF6C00001F24A0158F6C0010103
S325000441C06800680960606021F04CFE20F05DFBB4F069E94ABDF8B510F05DF850F24B203835
S325000441E0F64A0200F6C00001F24A0174F6C00201F2481418F6C001017803F6C00400681285
S32500044200F24A00786809F6C0000170236062680060A160E0F023FBF2F058FB9DF24A106C22
S32500044220F6C000016800F4102F40D110F058FB8AF24A0070F6C00001F24A0154F6C0010188
S325000442406800680960606021F050FCEFE001F058FB79F05DF817F069E908BD10B508F05CF6
S32500044260FFEDF05AFC89F64A0008F64A0104F6C00001F24552E4F6C00101F6C002016800EF
S32500044280680960506011F02FFF20F05CFFDBF069E8ECBD08B5F8F05DFB53F24B20B8F24B92
S325000442A021FDF6C00001F6410408F6C00101F6C004016800F991100060607021F049FE4699
S325000442C0F64A0C08F24A0238F64A0E04F24A0168F24A0048F6C0020168A7F6C0010168E6C1
S325000442E0F6C000016815F6C00E01680BF6C00C016800F24A026CF8CE7000F6C00201F8CCC0
S3250004430060006025F24A01446812F6C0010161206063680960A260E1F048FC39F64A001442
S32500044320F64A02006961F6C00001F6C00201680060110800F64910BAD203F056FE03F649B2
S3250004434010BAF24B2138F24B2E5CF24A1520F24B36C0F64912BBF6C00101F6C00E01F6C049
S3250004436005017809F6C00601F6C00201782DF6C00001783678127803F89E000070A170E030
S325000443807165712670627023F054F880F24A0158F6C00101F24A005CF6C000016809680010
S325000443A060216060F04CFE31F05DFACEF069E85CBDF8E92D4FF8F05CFF69F052F9A2F02AD8
S325000443C0FEFCF24804B8F6C00400F24A0C6CF6C00C016AE3F24A074CF24B20D0F8CC3000B5
S325000443E0F24A0E686AA5F24A03746B22F6C003016A66F6C000016B61F6C00E01601AF6C0B0
S3250004440007016800F24A0278F8CE5000F6C00201603E62606011F02EFCA2F64901A0F24AF4
S3250004442009A86B27F24B10D8F8D4C02CF6C00001F8D4E028F6C001016BE3F24A0AA468026D
S32500044440F24A08A07809F6C009016B66F6C00A016BA5F6C00801F8C97000F8CAC000F8C859
S32500044460E000F24B20C4F24A07B4F6C00001F24A0CB0F24A0EACF8841028F6C0070162625F
S32500044480F6C00E016800F6C00C01603BF8CE6000F8CC50006020F027FAD8F24A0780F24AE5
S325000444A00588F6C007016AE3F24A06846B22F6C00501603BF6C006016B61F24A038CF894D0
S325000444C00038F6C00301603260297018F05DFE28F64900A9F6C00001F24B11E0F6C0010145
S325000444E07800680972206061F04DFD1FF64900A7F24A022CF6C00001F6C0020168E178009C
S3250004450060117420F051FB42F24A01C8F6C00101F89400287008F24B2061F6C00001F89028
S325000445209000F24B2062F6C00001F8908000F24B20C8F6C00001F8D0C000F24B2000F24B65
S325000445401EDCF6C00001F24A171CF6C00E01F6C007016805F24A104AF8DEE000F6C000013E
S32500044560F8D4A014F24A0BCC683EF6C00B017803F24A104BF8C4E028F6C00001F8CBA00046
S3250004458063667802F24A104CF8849024F6C00001F8848025F8C4C0306801F24B305163A553
S325000445A0F6C00001F884303CF884203D78006421F8840044F041FB50F8942054F24A156C83
S325000445C0ED940A16F6C00501F24A06D0F24A03D8F24A08D4F6C006016828F6C00301F894A0
S325000445E0105CF6C00801703270190F00ED880A00D233F24B2061F24B3320F24B3221F6C034
S325000446000001F8841027F6C00301F6C002017800781B7812F8840026F8843024F8842025A1
S32500044620F054F8C8F24A0B28F8943028F24A0E29F8941029F24A0C2AF894002AF6C00B01F7
S32500044640ED980A00F6C00E017832F6C00C01F88B3000F88E1000F88C0000F24B10E0F24B58
S3250004466021C4F24A190CF6C00001683BF6C00101F8842028F6C00901680068096260602138
S3250004468061A3ED840A0BF8D9000061E0F03DFCD4F24A1E3CF24A01DC6B20F6C00101F24A49
S325000446A00C74F6C00E01F8D4B034F24A0AE06008F24A0378F89E0000F6C00C01F8D48038D9
S325000446C0F6C00A01F8840024F6C00301F8DC0000F24A01E4F8CAB000F6C0010162A0681814
S325000446E0F8C1800062E0F023F87AF24A0A34F6C00A01F8D4B020F24A01306B20F6C0010129
S32500044700F8948035F24A0E3CF8CAB000F6C00E016008F24A1B10F24A0140F6C00B01F8D4B7
S32500044720C038F6C00101F88E8000F89B0000F8C1C000F884002CF05DFC5469A06038F24A8B
S325000447400750F6C00701F24A0854F6C0080168386260F8D8000062A0F050FB3CF24A0100FB
S32500044760F6C001016AE0F24A1358F6C003016008F24A0108F6C00101F894E034F24B325008
S325000447806818F6C00201F881E000F24A0A046260F24B3E657810F6C00E01F8D4C030F6C0D2
S325000447A00A01F8840028F24A1164F89E0000F6C00101F8CAC000F8840038F24B3C5C6808C6
S325000447C0F6C00C01F24A1A5C63E0F6C00A01F89C0000F8840040F24A1360F8DA0000F6C0CF
S325000447E00301F24B325462E0F6C002017818F884003068106360F045F84769E0F894A05538
S32500044800F24A01F8F8D4E044F24A0CFCF8943048F6C00101F8C90000F6C00C01F88BA000C2
S32500044820F24A1200F8C1E000F6C00201F88C3000F24A09FD6CE0F6C00901F894B049F24A0B
S325000448401A04F8D4E050F6C00A01F8943054F24A1C086010F6C00C01F8CAE000F24A1218C8
S32500044860F889B000F24B3E14F88C3000F6C00E01F894005CF24B3C44F24B3A1CF6C0020104
S32500044880F8DE1000F6C00A01F8D49058F24A1B146261F6C00C01F8DA1000F6C00B0170109E
S325000448A0F24A0A2862A1F6C00A01F8CB9000F8DC1000F89A000062E1F8840030F047FD745C
S325000448C0F24A0B20F6C00B01F24B2E5EF24A011C6C20F6C00101F8D49044F6C00E01F8D40E
S325000448E0A048F24A0C7C6008F6C00C01F89E0000F24A0124F8CB9000F6C00101F884002435
S32500044900F8DC0000F8C1A00062A0F050FC97F24A010CF6C001016AE06008F058F81C6829EB
S32500044920F24A0A4CF24B29D0F6C00A01F6C00901F4110F40D148F058F805F24B21D4F8D771
S32500044940B000F24A1050F24A1254F6C00101F8D8E000F6C00001F8C4B024F6C00201F8D12E
S32500044960C00068036812F8C4E028F6490BDDF64901DEF8C4C02CF6C001016323F6C00B01D7
S3250004498063627808F89B1000F8840039F8841038F052F81CF894003CF24A03F6F24A0EF41B
S325000449A0F6C00301F24A0CF5F6C00E01F894203AF6C00C0170186828F894103BF88E2000F3
S325000449C0F88C10000E40E003F057FFBC68280E40D22E7833F24B26E0F24A0204F24A0110AB
S325000449E0F24A0C18F6C00601F8D90000F6C00201F8843034F6C001016836F6C00C01681293
S32500044A007809F8DCC00062E663A2F8841024F8C4C0286320F044FD1BF24A02ECF24A03E8B6
S32500044A20F6C002016C20F6C003016BE160106019F057FF916828F0106FC0D13EF057FF82CB
S32500044A40F24B2014F24A133EF6C00001F8DA2000F24A01A0F24B3608F6C003018800F6C055
S32500044A6001016262F6C00601881B6809F996600085A0862362A1F884602EF04BF95DF24AFE
S32500044A800990F24A0E94F24A0C98F24A0B9C6B63F6C009016BA2F6C00E016BE1F6C00C0163
S32500044AA0F8940040F6C00B01F8C93000F8CE2000F8CC1000F88B0000E001F057FF43F0577F
S32500044AC0FF4A6828F4101F40D112F057FF3BF64900DFF6C000017800F8840024F051FD58A9
S32500044AE0F8940025F24A1120F6C001017008E001F057FF28F02AFC94F8D4C0246C206AA619
S32500044B006B23F24A0A7C6BA1F24A0B586B62F6C00A01F8C7C000F24A09646AE5F24A0C5CE7
S32500044B20F8CA0000F6C00C01F8C86000F6C00B016BE4F6C00901F8CC3000F24A0060F24A29
S32500044B400370F6C00001F8CB5000F6C00301F8C910006002601CF053FCCBF05CFB9BF06861
S32500044B60EC84E8BD8FF8E92D47F0F05DF91DF057FEF2F64A4408F6C004016820F0105F403A
S32500044B80D126F057FEDFF24A0008F64901DCF6C00001F2450550F6C00101F6C00501780061
S32500044BA0780970687029F042FD6BF64A4600F64A4301F64A4202F6C0060178E9F6C00301F9
S32500044BC07928F6C0020178AD701970107035E001F057FEB8F057FEBF6820F0106F40D104B0
S32500044BE0F057FEB0F042FD49E001F057FEABF057FEB26820F0104F40D15DF057FEA3F24B0C
S32500044C002018F24B2120F24B221CF24A07A0F24B36DCF24B2424F6C00001F24B35E0F6C0E3
S32500044C200201F24B2328F6C00101F8D0A000F6C00601F8D29000F6C00701F8D18000F6C0EB
S32500044C400401F8D6C000F6C00501F8D7E000F6C00301F24B20D4F24B222CF24B21F4F6C0CE
S32500044C6002016826F6C00001882FF6C001016814F24B3200681DF6C002016803F245005058
S32500044C80F6C000017809F9922000F8C0E00CF8C08008F8C0C0108287618661C5620462439A
S32500044CA0F8802028F8801029F8C0A000F8C09004F03EFD04E001F057FE45F053FC2FF05D80
S32500044CC0F877F068EBD2E8BD87F0E92D4FF0F1AD0D14F05CFABBF057FE3EF24B4034F24AA5
S32500044CE0140CF24B18F8F6C00001F24B1AFCF6C00401F6C008016800F6C00A01F0104FC081
S32500044D00D157F057FE1FF649015CF64906A6F6490CE4F6490597F6C00101F6491088F6C027
S32500044D200C0146A1F6C00601680BF6C00501F8DCB000F6C00001F896E000F2455430782A83
S32500044D40F6C004016801F8D9C000F884E060F24A171C64E3F6C00701F8842050F8C4B05CB0
S32500044D6068386561F8C4C06465A0F040F9B9ED940A1AF24A001CF6491E78F6C00001EDD4B2
S32500044D800A1BF6C00E01F8CD900046CC6800F8DE100064E0ED840A14F8DC0000EDC40A15F3
S32500044DA0683AED880A00662065E165A2EDCA0A00E02FF057FDC7F24A001C46A1F6C0000124
S32500044DC0F8CD9000F2455430ED980A00F6C00401680046CCEDDA0A00F6491E7864E0F24ACF
S32500044DE0171CED840A14F6C00E01F8DC0000F6C00701EDC40A15F8DE1000683AF64905975D
S32500044E006620F64906A665E1F6C0050165A2F6C00601F044F839F24B31C4F6C001016E6034
S32500044E206008F057FD98F24B4034F6C000016800F0106F40D152F057FD85F6490C98F8D707
S32500044E40E0004649F8D80000F6490BBCF8959000F6C00C017833F6C00B01F8C4E05CF89C2A
S32500044E608000F8DBA000680964E0F64902D4F8849058F6C00201F8848059F24B4E14F884DE
S32500044E803064F24B4B10F8D2C000F6C00E016721F6C00B01F8C4A054F8DE0000F24B29C493
S32500044EA0F8DB2000F649085CF8C4C060F6C008016760F6C0090166E2F8D8B000F8D9000097
S32500044EC0F8C4B05066A0F018FAAFF8CD9004F24B21506FA0F6C001016008E006F057FD32C3
S32500044EE0F24B20C4F6C000019001F057FD34F24B4034F24B18E0F6C00001F6C00801680003
S32500044F00F0107F40D130F057FD1D980078297832F8D8C0006800F6490384F884104CF6C037
S32500044F200301F8842054F8C4C050681B65E065A3F056F8CB6E20F24B310CF24B2294F6C01D
S32500044F400101F6490994F6C00201F6C009016008F24B2190F8DDE0044640F8DDB000F6C020
S32500044F600101F8CD8008E014F057FCECF6490994F24B2294F8DDB000F24B2190F8DDE004BA
S32500044F80F6C00201F8CD8008F6C009014640F6C001016812683FF8DE3000F24B2E9CF8D00D
S32500044FA0C000F6C00E01F8DB00009203F8DEA000F24B2E9865E7F24B12DCF8C4C004F6C0D4
S32500044FC00E01F24B2710F24B2C8060E0F6C00201F8998000F6C00701F89E9000F6C00C01AA
S32500044FE0F8D2E00060A3F8DC20009803F891B0006839F8C4E000F8849058666164E0F8C4CA
S32500045000A054F884B050F88480596622F028FEAC78287831692569A2F24B2B68F8841060D9
S32500045020F6C00B01F8840054F24B2170F24B206CF6C001016963F6C00001F8CB5000600A85
S325000450406003F04CFDBDF24B295CF24B2574F6C00901F24B2058F24B2154F64912C0F6C067
S325000450600101F8D4C068F6C00001F8993000F6C00201680FF6C0050168066812F6491AC4C7
S32500045080F8C5C000F6C00A01F884305464E7F64908B8F8DA1000F6C00801652665A2F898BB
S325000450A0000065E1F8840060F056FD7EF6491B84F6C00B01F64911C8F24B39C0F64902D8FC
S325000450C0F24A0014F8943061F6C0010169E6F6C00001F8DB7000F6C002016809F6C009016E
S325000450E06800F24B3CBC6812F6C00C016667F8893000F8CC600065A165E06562F04DFD6678
S32500045100F24B2678F6C00601F8D4B06CF64902746F27F6490070F8C6B000F6C00201F8D418
S32500045120A074F6C00001F8D490787813F8D0C000F8D4E080F6490178F8D4807CF6C001014F
S32500045140F8843050F24B2B7CF8C4C04CF649007C680AF6C00B01F6490380F6C0000165626E
S32500045160F24B2C80F8CB7000F6C003016801F6C00C01F24B228CF24B2B8465A1F6C00B0184
S325000451806818F6C00201F8CCA000F24B2788F8CB9000F6C00701F8C2E00065E0F8C780004D
S325000451A0F041FA29F8942060F24B4034ED940A19F6C00001F24B3ED0F24B33D8F24B3CD499
S325000451C0F6C00E016800F6C00301F8941068F6C00C01F88E200070190F40ED8C0A00F24BD9
S325000451E030C4F6C00001F08080BEF24A0EE8F24B2C506800F6C00E01F24B3B38F6C00C01C1
S3250004520064E0F6C00B01F8DE0000F64A010CF24B237CF6490A9F6520F6C00101F8DC000086
S32500045220F6490CA0F8D58000F6C00C016560F6C00301F8DB0000F24A0B80F24B320CF6C01F
S325000452400B01F24A0928F6C00A01F89CE000F6C00201F8DBC000F6C00901F8D6B000F24AD0
S32500045260052A65A0F6C00501F89A0000F8D3A000F24B2380F8C48060F6C00301F8918000F8
S325000452806839F8C4B064F8C4A068F64A0B0DF8C41090F24B2A84F884005CF6490148F8993F
S325000452A00000F6C00B01F8D29000F24A02DCF884005DF6C00A01681EF6C00201F89B300012
S325000452C0F6C00101F8DA0000F24B4B0C782FF6C00B016815680AF8843084F8C4008CF8C41A
S325000452E05080F8C4208867E6F8C4C074F8C4906CF884E071F24B298CF8848070F6C0090190
S32500045300F8847078ED840A25F8DD8000F8DB1000F8D92000F8C410A0F8C42098F8D80000A6
S32500045320F8C4009CF047FCD7ED940A29F24B2610F24B2708F24B2A0CF24B2004F6C00601DD
S32500045340F8D410A8F6C00701F8D420B0F6C00A01F8D430ACF6C0000160326039F8CA300028
S32500045360ED800A00E005F24B2004F6C00001ED900A00ED840A13F05CFE749801F24B21FDE8
S32500045380F24B235DF24B35C8F6C003016A22F6C001016800F6C00501781BF9911000602A33
S325000453A064E0F8843050F8841024F052FD63F24B2B34F24B2938F6C00B01F24B273CF6C0FF
S325000453C00901F24A1528F6C00701F8D4A02CF6C00501F8948030F24B2CB06DA6F64902EC99
S325000453E06AA0F6C00C01F8CBA000F24B2130F8898000F6C00201603EF6C00101F8DCE00021
S32500045400F24B23606812F6C003016008F24B2B63F8D4805CF6C00B01F8C4E04CF24B294063
S32500045420F893C000F24B3A18F89B7000F6C00A016829F6C0090165A2F8BA6000F8C9800019
S32500045440F24B3348F884C050F6C00301F8847051F24A1E3465E1F6C00E01781DF6490BE8A7
S32500045460F8A46052F6C00B01F89E0000F8845054F89B3000F8840064F8843055F023EC7C3D
S32500045480F8DDB008F8D49068F8D4E070F24B1AD8F8D4C074F6C00A01F8D4806C6FA7F8CA15
S325000454A09000F64A4100F8D43080F64A4001F894507EF6C00101F8B4607CF6C00001F8CBC0
S325000454C0E000F24B1ADCF24B1BE4F6C00A01780AF6C00B017801F24B10E8F884204CF6C022
S325000454E00001F8CBC000F24B19F4F8CA8000F6C009016007F24B1CF0F24B10EEF6C00C0124
S32500045500F884104DF6C00001F8C93000F88C50008006F051FF97F05AFC50F24B2BE0F24BB4
S3250004552025ECF6C00B01F6C005016B62F8DB1000F24B33CC6828F6C0030164E163A0601ADA
S32500045540F01FFAF6F24B26F0F24B37E8F24B4100F24B33DCF24A0004F6C00301F24B32F46C
S32500045560F6C00101F8D4E054F6C00001681BF6C002018809F6C006016800F6C00701681288
S32500045580F8D6C000F8C7E0006563F8A4105C63E065A2F8C4C050F04DF846F24B2A4CF24A84
S325000455A0099CF6C00A01F24B4024F6C00901F24A0C94F6C00001F8D4E040F6C00C01F8D40C
S325000455C08060F24B41286800F6C00101F8DC3000F24B27D0F8CAE000F6C007016008F24BDE
S325000455E032096563F24B2144F8D7C000F6C00101F8990000F6C00201F8C4C044F6490EA3BB
S32500045600F8C18000F6C00E01F88400597811F89E2000F8841048F8842058F02AF9DFF24B77
S3250004562027E4F8D4E060F24A0110F8D4805CF24A00ECF8D4C064F6C001016EA3F6C00001BC
S325000456406EE2F6C007017809F24B2AE86800F6C00A01F8C7E000F8CB8000F8CAC000602B4A
S325000456606032F884104C6520F01EFDF9F24A0098F6C0000168006560F030FDBAF24B29F444
S32500045680F24B27F6F6C00901F8942058F6C007016DE0F24B23F8F8B4105AF6C00301F8892E
S325000456A0200080396018F057FB9CF64910BAF64912BBF6C00001F24B215CF6C00201F24A36
S325000456C01520F6C001017803F6C0050178127809782DF24B3EC0F884304CF6C00E01F88478
S325000456E0204DF884104FF89E0000F8845051F8840050F038EA4CF059FD11F05CFCFEF24BA1
S325000457003000F6C00001F9900000F884004CF051FEFFF24B281CF24B2A14F24B2B206D67B1
S32500045720F24B29186DA6F6C00801F8B4E04EF6C00B016DE5F6C00A01F8C87000F64900B041
S32500045740F8D4C050F6C000016E23F24B215F6E62F6C001016800F6C00901F8CB6000F24B4E
S3250004576028287809F6C00801F8AAE000F24B272CF8C9C000F6C00701F884104CF24B2C24D9
S325000457806520F6C00C01F8C83000603AF8CC5000F00DFA76F24B3222F24B3165F6C002018F
S325000457A0F8940054F6C00101F89430557010700BF05BFD50F067EE58B005E8BD8FF0B50870
S325000457C0F05BF812F05CFC46F05BF816F067EE4CBD08E92D4FF8F05BF80BF24B21C4F24B23
S325000457E0200CF6C00101F6490295F6C00001F6456468F6C002016809F6C004006800781251
S3250004580060216460F8842040F055F886F24B18E0F24B17DCF6C00801F6490ED8F24B21945F
S32500045820F24B209CF6C00101F8D4C048F6C00001F8D82000F6C00E01680DF6C007016803CF
S32500045840F24A160CF8CEC000F6C006016839606268306425646360A160E0F053FBABF24AEC
S32500045860151CF24A01B8F6C00501F24B2060F6C00101F6491BC8F24A02E0F8D4A048F6C01D
S325000458800001F8D19000F6C00201682BF6C00B01F890E000F24A01246812F6C00101F8CBD8
S325000458A0A000F24B20C861E3F6C000016809F8C49010F8D0C000F6491010F884E014F6C044
S325000458C00001622262616800F8C4C01862A0F046E8DAF6490CF8F64911A1F24B30CCF6C05D
S325000458E00101F64902ABF6C000016AE3F6C002017809F6C00C0168007812F8CC3000F8844D
S32500045900104665A0F8842044F015F9FFF6490184F6C001016EE06008F053FE08F6490099F2
S32500045920F6491288F6C00001F6C002016CA178006011F8840044F03BF93AF24A021CF64967
S325000459400AE0F649018BF6C00201F649107CF6C00101F8D49030F6C00001F8D2E000F6C0A9
S325000459600A01F891C000F64902906803F6C00201F8CA9000F64911CCF8C4E034F6C00101DE
S325000459806812F64910D0F884C040F6C0000168096463680064A2656165E0F051FC47F649BD
S325000459A00C5CF6490164F64910DCF6C00101F649029AF6C000016BA3F6C002016809F6C06E
S325000459C00C0168007812F8CC300064E165A0F8842048F030FFF4F24B3064F24B3160F6C034
S325000459E00001F64903E4F6C001016DE2F6C0030178006809601AF88400486461F045FDDDBA
S32500045A00F24B32C4F6490954F6490E58F24A0120F649008AF6C00201F8943050F6C0010165
S32500045A20F8D4C03CF6C000016812F6C00E016809F6C009017800F88E3000F8C9C000642238
S32500045A4064E1F8840050F03CFE4DF64910D8F64911D4F6490298F6C00101F6490CBCF6C01B
S32500045A6000016E23F6C002016809F6C00C0168007812F8CC3000652165A0F8842048F03523
S32500045A80FEC7F24B10FCF24B11F8F6C00001F64903D4F6C001016DE2F6C003016800680941
S32500045AA0601A64A06461F046FB20F6491178F6C001016D606008F056FF4EF64910F8F24A7D
S32500045AC01510F6C00001F6C005016800F0106FC0D146F056FF37F64919A0683FF24A101CF3
S32500045AE0F24B3A58F6C00901F8D88000F64903886831F6490CAAF899B000F6C0000164A762
S32500045B00F6C00A01F8C4804CF6C003016802F6C00C01F8DAA000781BF89CC000F8959000D5
S32500045B2065E1F884B0586562F24A07F8F8C4A064F24B28C8F8843040F6C00701F884C0417B
S32500045B40F6C00801F8849060F8D7E000F8D80000F8C4E0446520F02CF93EF64910F8E003AF
S32500045B60F056FEF0F64910F8F64911A0F6C00001F64902AAF6C00101F6C0020168000E40E7
S32500045B80D20F6830780978126460F8841041F8842040F02BFF0AF6490148F6C001016CA09A
S32500045BA06008F64A4002F24A1E20F24A01F5F24A02F4F6C00001F6C00E01F6C00101780364
S32500045BC0F6C00201F89E000078097812F8843040F8840043F8841042F8842041F054FC6D5E
S32500045BE0F6490EDCF8943044F6C00E01F8942045F6490CDDF8941046F64907DEF88E3000D8
S32500045C00F6C00C01F64903DFF6C00701F8940047F6C00301F88C200070397018F052FC2018
S32500045C20F6490096F6C00001F649118DF6C001017802F24B3B24780BF6C00B01F884204101
S32500045C40F8843040F1040A44E89B008EF24A191CF24B3849F6C00901E88A008EF6C008014C
S32500045C607828F24B3E516831F6C00E01F8D97000F8983000F89E2000F884006065E16567AB
S32500045C80F8843058F8842059F044F826F6491ABBF6C00A01F64919BCF64918C0F894E062E1
S32500045CA0F6C008016E67F64911986EA3F6C00101F894C063F24B205FF88AE000F6491AC4AB
S32500045CC0780AF6C00A01F894B061F6C00001F8C87000F6C00901F8CA30007801F64913BABC
S32500045CE0F889C000F6C00301F88410412025F8842040F1040142F883B000F00EF945F649D3
S32500045D0000B0F6C0000168006460F016FD79F056FE22F64910F8F6C000016800F4100F404B
S32500045D20D177F056FE0FF6491799F6491B02F6491200F64903FEF6C007017829F6C00201CA
S32500045D406830F6C00B01F8979000F6C00301F892E000F24B2504F8BBC000F6C00501F8B35C
S32500045D608000F6491A0465A0F6C00A01682EF884105CF89A7000F884E044F24B2210F8846B
S32500045D809040F24B3BD0F8A48042F6C00201F8A4C046F6C00B0164E66815F24B30D8F89BC7
S32500045DA03000F6C00001F884704865257802F8843054F8842055F035FEE0F6490B6CF649D1
S32500045DC00874F6490770F6490C78F6490A80F649097C6E25F6C00B01F8943064F6C0080103
S32500045DE06EA2F6C007016F20F6C00C016EE1F6C00A01F894405DF6C00901F8883000F88B4D
S32500045E004000603DF8CA0000F8C91000F8CC2000E001F056FD97F05AFCF3F067EB26E8BD23
S32500045E208FF8B508F05CF919F067EB1EBD08E92D47F0F24A100CF24B21FDF6C00001F245A3
S32500045E4044C0F6C00101F6C004016800F991100064A07021F02EFA21F24B2EC8F24B28C495
S32500045E606CE7F24B2CCC6D26F6C00801F8945054F6C00E016863F6C00C01F8C87000F8CEC5
S32500045E806000F24B27D0F88C5000F6C007016DA2F24B26D46DE1F24B25D8603BF6C00601AC
S32500045EA0F24B23DCF6C005016E20F6C00301603260296018F04DF838F24B2CB46D25F24BAC
S32500045EC030CC6CE6F24B2EB068A3F6C00C016DA1F6C000016D62F6C00E01F8CC5000F24BD7
S32500045EE027B86800F6C00701F8CE6000F24B25C0F24B26BCF6C00501603BF6C0060160E0D8
S32500045F0060296032F056F900F24B25E4F24B3908F24A02BCF6C00501F24B20E8F24B21E020
S32500045F20F994E050F6C00201682DF6C00101F894C010F6C000016817F6C00901680EF24B8F
S32500045F4038096803F6C008016525F24B22ECF889E000F24A01ECF888C000F24A000464A7E2
S32500045F60F6C0020164E6F6C001016563F6C0000168126809680065A266616160F01EFA23D0
S32500045F80F8D4C01C6A27F24B3AE4F8D4E018F24B39EC6AA5F6C009016A66F24B38F06EE3E8
S32500045FA0F6C00801F8C9C000F6C00A016B21F24B30E8F8C87000F6C00001F8CAE000F24B2F
S32500045FC03CF8F24B3EF4F6C00C016800F6C00E016AE2F24B37FCF8CC5000F6C00701F8CED0
S32500045FE06000F24B4508F24B4604F6C005016560F6C00601603B60296032F04DFDF6F24BC5
S3250004600022F4F24B21F6F6C00201F24B20F8F6C00101F6C00001781288096800F884204927
S32500046020F8A4104A64E0F01DFF1BF24B4600F24B37E0F6C00601F24B2034F64901B06B6510
S32500046040F6C00101F8B42054F6C000018F23F24B3CDC6809F6C00C016800F6C00701803294
S32500046060F8CC5000803B64A16560F056FBA8F24B26A08F63F6C006016BE2F24B25A46C2102
S32500046080F6C00501F8B40044F24B27A88033F6C00701602AF24B23ACF24B22AEF6C0030170
S325000460A06039F6C00201F8B4404680188014F051F9E5F058FDB1F067E9D8E8BD87F0E92DC7
S325000460C043F8F05BF8EBF056FC46F24A166CF6C006016830F0105F40D10EF056FC33F0507F
S325000460E0FA1EF24A0050F24A0510F248048CF6C00001F6C00501E00BF24A0510F056FC22C4
S32500046100F24A0050F6C00501F248048CF6C00001F6C004006800602078287120F053FB3D5E
S32500046120F649004CF6C00001F64919B4F6C0090168006020F64918B6F8B90000F6C00801E2
S32500046140F24A171C80A0F6C00701F8B8000080E0F6490E506838F6C00E01F24A170C60A077
S32500046160F6C00701F89E0000732068386120F052FD40F24A1122F24B28B0F6C001018AA028
S32500046180F6C00801F6491EB88008F6C00E01F8D800006020F24B1CE4F89E0000F6C00C01EE
S325000461A0F24B13E87120F6C00301F8DC0000F24A1124F8B49016F6C0010160A0F64902E8DA
S325000461C06818F6C00201F8A1900060E0F24B19EC7810F6C00901F64901F07420F6C001010D
S325000461E0F89900007460F64908B67808F6C00801F6490EB47620F6C00E01F8980000766032
S32500046200F6490CB5F89E0000F6C00C01F24B23D076A0F6C00301F89C000076E068186160F0
S32500046220F013FF5669E3F24A19286830F6C00901F8941028F24A182CF24A1E30F6C008014E
S32500046240F8C93000F24A19346A22F6C00901F8D4C024F6C00E01F8C82000F8891000F8CEC2
S32500046260C0000801F6491E70F649118DD24CF64912A8F6C00101F6491090F64919ACF649B0
S3250004628018BCF6C00E01F891C000F64911B0683FF6C00101F8DEE000F6C00201F884C00008
S325000462A0F6C00001F8C4E018F6C009016812F6C0080168036808F8991000F8988000612063
S325000462C0606360A2F884801461E77321F02AFABF6832F24A0814F24A0718F6C008016A605A
S325000462E0F6C00701F8941020F8C800006AA30FD07029F24B2208F24A0004F6C00201603BDA
S32500046300F6C00001D30BE017F24B22080FC0F24A0004F6C002017829F6C00001D20C681208
S325000463206800606260A07021F042FFB3F24A00F0F6C0000168E16001F05AFFB4F067E89457
S32500046340E8BD83F8E92D4FF8F05AFA5EF24B20ECF24B32DCF6C00001F6C00201F24B31E4BE
S325000463606807F6C001016816F24B30F4F24B32FCF6C00001F6456430F6C00201680DF6C038
S32500046380040068036812F24B41006067F6C0010160A660E5F24A00048809F6C000016123B6
S325000463A061626800832161E0F056F812F24B2530F6490BCCF24B16E0F6C00501F24B17DCAC
S325000463C0F6C00601F8D49020F6C00701F8D5C000F24B20C4F8D4E024F6C000016832F6C037
S325000463E00B016839F6490AD06803F6C00A01F8CB9000F8C4C004F24A181CF8CAE000F6C006
S32500046400080160E26121F8D8000060A36160F03FFD0FF6491165F24A02D8F64900A6F6C070
S325000464200201F6490EF4F6C00101F8D4C018F6C000017812F6C00E0178097803F6491074ED
S32500046440F8CEC000F6C00001716271A17800712371E0F02AEC16F6491EB4F6491CB6F64936
S3250004646013B88822F6C00E017A20F6C003018861F6C00C01F8AE20007018F8AC1000F05B8B
S32500046480FE19F24A1024F6C00001F24A1122F6C001018800880980E080A1F039FC50F6493F
S325000464A00250F649034CF6C002017C20F6C0030168E170106019F056FA4EF64910F8F6C016
S325000464C000016800F0105FC0D153F056FA3BF24A0BB8F24A190C6828F6490189F24B2CC8A1
S325000464E0F649129B6833F6C00901F8D8E000F6C00B01683DF6C00101F8D99000F6C0020162
S32500046500F8DB6000F6C00C0178097812F8DCC000F8C4E014F24A1A106060F6C00A0160E302
S325000465206125F89A8000F8C490247221F24B3B4C7262F6C00B01F8C4C0186226F8DB7000FD
S32500046540F884802861E7F01AFDA9F6490960F6490364F6490268F6C009016B21F6C0030118
S325000465606B60F6C002016AE460196010F8C94000E001F056F9E7F05AF94BF066EF76E8BD60
S325000465808FF8B5F8F05AFE6AF048F802F058FA34F24B215FF24A100CF6C00101F649029EB7
S325000465A0F6C00001F2454498F6C002017809F6C0040168007812706160607022F022E8B053
S325000465C0F24B4218F24B11DCF6C00201F24B10F4F6C00101F6C000017816F24A121CF6C0D9
S325000465E00201680D6803F24B21C46812F6C001017026F24B30C86065F6C00001680960A39F
S32500046600680060E261216160F044E87EF24B2798F6C00701F24B2E90F24A01607E26F24AB7
S325000466200064F8943020F6C0010169E5F6C000016A62F6C00E016809F24B2C946800F6C036
S325000466400C01F88E6000703BF24B269CF8CC5000F6C00601602160606032F02FFB93F24B05
S3250004666027F4F24B25F8F6C007017A23F6C005018962F24B26F6703BF6C0060168E1F24B52
S3250004668023FC7C20F6C00301803260297018F059F9C0F24B4034F24A01F0F6C00001F6C06B
S325000466A0010168000800F6491080D20D6809F6C00001602168006060F046FAE1F24B200071
S325000466C0F6C0000168A16001F05AFDCCF066EECCBDF8B508F03EF85FF645602CF6C00000F8
S325000466E0F6491376F6491277F6C003017801F6C00201784070197010F066EEB6BD08E92D7E
S325000467004FF8F6491176F6491077F6C00101F6C00001F649128CF891B000F6C00201F890D6
S32500046720A000F6491194F649109AF6C00101F6C00001F8929000F649129DF8918000F6C0AC
S325000467400201F890E000F649119EF649109FF6C00101F6C00001F892C000F24B2261780FE8
S32500046760F6C002017806F24B2162F24B2000F6C00101F6C000017815F24B12EE780CF6C048
S3250004678002016803F24B11F0F2454084F6C00101F6C0000188127809F880E004F880B0003A
S325000467A0F880A001F8809002F8808003F880C005718771C67205724460C382027481F0315B
S325000467C0FC1CF066EE52E8BD8FF8E92D43F8F05AF823F041FE82F64915F8F6C005016828D6
S325000467E00F80D201F047FA44F031FD4AF017FE4DF018FAD7F64554F8F6491608F24A00BC49
S32500046800F6C00601F24A0CC0F64902B7F24A010CF6C00001F24B2348F6C002016837F6C0FB
S325000468200C01F8D09000F6C00101F8928000F6C00301F8DC6000F6C00400F8D1E000F8D30B
S32500046840C000F24B2044F8848004F6C00001F8C490006127F24A03C46802F6C00301616654
S32500046860F6491875F8C4E008F24B29C46819F6C00801F8C4C00CF6C0090161E2F898000019
S32500046880F8D930006221F884002461A3F020F873F6491780F6491384F649197C6B20F6C08A
S325000468A003016AA2F6C009016AE1F6C007016018F8C920006039F056F84E6828F0104F4058
S325000468C0D116F056F83FF64912A0F24A110CF6C00201F24A101CF6C00101F6C000017812E6
S325000468E068096800712260A16020F02AFF70E001F056F828F059FF94F066EDB6E8BD83F8DC
S32500046900B508F05BF825F24A0030F6C00001F6410104F6C0010168006008F045FF86F04176
S32500046920FE38F05BF819F066EDA0BD08B5F8F05AFCBDF64900A6F6C00001F2480464F6C06F
S32500046940040078007020F021FB4FF041FE73F24A1038F6C0000168006020F04EFC0BF24A80
S32500046960020CF24A1040F6C00201F24A1144F6C00001F6C001016816F24B22C8F6C002015C
S325000469806807680DF24B20446812F24A11486027F6C000016066F6C0010160A56803F24AF1
S325000469A010497809F6C0000161227521780060E37560F02EFD75F24A05B8F24A06C0F6C052
S325000469C0050169A2F24A03BC69E1F6C00301602AF6C006016A20F24A02C46019F6C0020198
S325000469E06A6460306014F05AFC65F066ED3EBDF8B508F05BF9E1F041FE75F05BF9E1F066D9
S32500046A00ED34BD08B510F05AFC31F24A01C0F24A00C4F6C00101F24A02BCF6C00001F245AD
S32500046A204478F6C002016809F6C0040168006812606160A06022F028FE2AF041FEA4F05A29
S32500046A40FA97F24B4028F6C00001F24B4120F6C0010168006008F04BFD8DF24B2048F6C0F9
S32500046A60000168216001F044FB99F05AFC03F066ECFCBD10F64901C9F6C0010170082000AC
S32500046A804770F64901C1F6C00101684268006008604A20004770B508F649119FF6C001011D
S32500046AA0700820022108F067E8DA2000BD08B508F649119EF6C00101700820022108F0678E
S32500046AC0E8CE2000BD08B508F649119DF6C00101700820022108F067E8C22000BD08B50849
S32500046AE0F649119AF6C00101700820022108F067E8B62000BD08B508F88D0000466920C379
S32500046B00F00DF848BD08B510460420801CE1F00CFE0920941D21F00CFE0520BFF1040108EC
S32500046B20F00CFE0020C0F104010CF00CFDFB20C74621F00CFDF720CB1CA1F00CFDF3201475
S32500046B40F00CFFEABD10B5104604207F4621F00CFDE920931C61F00CFDE520B61CA1F00CE5
S32500046B60FDE120B71D61F00CFDDD20B81D21F00CFDD920BD1CE1F00CFDD52013F00CFFCC78
S32500046B80BD10B508F88D0000466920ABF00DF802BD08B508F8AD0000466920C6F00CFFFABA
S32500046BA0BD08B508F8AD0000466920C5F00CFFF2BD08B508F88D0000466920C4F00CFFEAA4
S32500046BC0BD08B508F88D0000466920C2F00CFFE2BD08B508F8AD0000466920C1F00CFFDAAA
S32500046BE0BD08B508F88D0000466920B9F00CFFD2BD08B508F8AD0000466920B1F00CFFCAC3
S32500046C00BD08B508F8AD0000466920ACF00CFFC2BD08B508F8AD0000466920AEF00CFFBAB2
S32500046C20BD08B508F8AD0000466920ADF00CFFB2BD08B508F8AD0000466920AFF00CFFAAB0
S32500046C40BD08B508F88D0000466920A6F00CFFA2BD08B508F88D0000466920A5F00CFF9A01
S32500046C60BD08B508F8AD0000466920A4F00CFF92BD08B508F8AD00004669209EF00CFF8ACA
S32500046C80BD08B508F88D00004669208DF00CFF82BD08B508F8AD000046692089F00CFF7A16
S32500046CA0BD08B5104604207DF1040109F00CFD3A2083F104010AF00CFD3520924621F00C41
S32500046CC0FD31209FF104010CF00CFD2C20A0F1040108F00CFD2720A11D21F00CFD2320A2DB
S32500046CE0F1040110F00CFD1E20A3F104010BF00CFD192012F00CFF10BD10B5104604207CE2
S32500046D00F1040108F00CFD0E208A1DE1F00CFD0A20911DA1F00CFD0620B01CA1F00CFD02C3
S32500046D2020BA1D21F00CFCFE20BE1D61F00CFCFA20C84621F00CFCF62011F00CFEEDBD10CB
S32500046D40B508F88D0000466920BCF00CFF23BD08B508F88D0000466920BBF00CFF1BBD08D2
S32500046D60B508F88D00004669209DF00CFF13BD08B508F88D00004669209CF00CFF0BBD0810
S32500046D80B508F88D00004669209BF00CFF03BD08B508F88D00004669209AF00CFEFBBD0815
S32500046DA0B508F88D000046692099F00CFEF3BD08B508F88D000046692098F00CFEEBBD081A
S32500046DC0B508F88D000046692097F00CFEE3BD08B508F88D000046692096F00CFEDBBD081E
S32500046DE0B508F88D00004669207EF00CFED3BD08B5104604207B4621F00CFC9420881CA166
S32500046E00F00CFC9020871D21F00CFC8C20901D61F00CFC8820B51DA1F00CFC842010F00C8E
S32500046E20FE7BBD10B510460420794621F00CFC7A20821CA1F00CFC7620811D21F00CFC726B
S32500046E4020861D61F00CFC6E208E1DA1F00CFC6A20B31DE1F00CFC66200EF00CFE5DBD104F
S32500046E60B508F8AD0000466920C9F00CFE93BD08B5104604207A4621F00CFC5420841CA1FF
S32500046E80F00CFC5020851DA1F00CFC4C208F1D21F00CFC4820A91D61F00CFC4420B2F10482
S32500046EA00108F00CFC3F20B4F104010AF00CFC3A20CAF104010BF00CFC35200FF00CFE2C15
S32500046EC0BD10B5104604F055FD19F24B30ACF6C00001E894001EE880001EF055FD212000FE
S32500046EE0BD10B5104604F055FD09F24B30A4F6C000016821600188A18081F055FD11200012
S32500046F00BD10B5104604F055FCF9CC0EF24B3090F6C00001C00EE8940006E8800006F055C0
S32500046F20FCFF2000BD10B5104604F055FCE7F24B3084F6C000016861682260418921600280
S32500046F408101F055FCED2000BD10B5104604F055FCD5F24B307CF6C00001686268216042D0
S32500046F606001F055FCDD2000BD10B5104604F055FCC5F24B3074F6C00001686268216042F9
S32500046F806001F055FCCD2000BD10B5104604F055FCB5F24B30664621220CF6C00001F0581F
S32500046FA0FAA2F055FCBD2000BD10B5104604F055FCA5F6491066F6C00001686168226041EB
S32500046FC0F24B431C6002F6C003018921F64912ECF6C00201810168196810EA6F019115C90B
S32500046FE0F36150D76010F055FC9B20022140F066EE362000BD10B5104604F055FC7FF649C8
S325000470001054F6C00001E894001EE880001EF055FC8720022180F066EE222000BD10B51088
S325000470204604F055FC6BF6491048F6C00001686268216042F24B431C6001F6C003018922AB
S32500047040F64911ECF6C0010181026818680A0880F08070801600F3606218600AF055FC60E7
S3250004706020022104F066EDFA2000BD10B5104604F055FC44F6491040F6C000016821686268
S325000470806001F24B431CF64911ECF6C00301F6C001016042681A6808EA6F02921652F362FD
S325000470A060596008F055FC3C20022101F066EDD62000BD10B5104604F055FC20F6491034EB
S325000470C04621220CF6C00001F058FA0DF24B401CF6C00001F64912ECF6C0020168016810E4
S325000470E0EA6F01911689F361609A6010F055FC182000BD10B5104604F055FC00F649102C2D
S32500047100F6C00001682168626001F24B431CF64911ECF6C00301F6C001016042681A68081C
S32500047120EA6F029216D2F36260DB6008F055FBF820024601F066ED922000BD10B5384604DE
S32500047140F055FBDCF24B411CF6491020F64912ECF6C00001E8940038F6C00101F6C00201E7
S32500047160E880003868096810EA6F01911709F361701C6010F055FBD420022120F066ED6EF9
S325000471802000BD38B5104604F055FBB8F6491014F6C00001686168226041F24B431C6002BD
S325000471A0F6C003018921F64912ECF6C002018101681968100889F0014160F0205000F081FC
S325000471C0510043016011F055FBAB20022110F066ED462000BD10B510460420A71CA1F00C5C
S325000471E0FAA120AA4621F00CFA9D200DF00CFC94BD10B5104604F055FB81F24B3024F6C089
S325000472000001E894001EE880001EF055FB892000BD10B5384605F055FB71F64913F4F6491F
S3250004722011E0F64912F0F6C00301F6C00101F6C0020178182806F04F0004D029F64824FC8F
S32500047240FB15F000F2C0040A5824B9446808701DF04040006008F055FB632000BD3878D016
S32500047260541578D02800BF19200070D078D01C40BF0870D068082206701AF020400060086E
S32500047280F055FB4E20004621F066ECE82000BD38789078D34298BF0824824610D00C54C5AB
S325000472A078C22A00BF19220070C21C5270C268082400F02040006008F055FB324620BD387B
S325000472C0B5F8F24B4434F6C0040128016821F3C16501F3C16681F3C17741D0232803F001A5
S325000472E04000D139F04F4200F04F4380EB037787EB0202C1F0214E7FF100400008D2EA4008
S32500047300000EEA400057F00252E04302EB037C86F0226240EB037185EA42121CEA421291BA
S325000473206022BDF8F04F4080EB007E86EB0072870F97F02141C0EA417147EA4F769EF02141
S325000473406140EB007C85EA416186EA4F759CF0217140EA4161056021BDF8B5F84605F05574
S32500047360FACDF24B42322104F6483724F6C00201FB15F401F6483614F2C0070A7810F2C08A
S32500047380060A2804FB10F301D103F055FAC92082BDF8593C58F3431CF24B4330D1154285D9
S325000473A0D00B2D01BF08F0440404D0062D03BF08F0440404F24B4330D007F24B4330B9249A
S325000473C07015F055FAAD2000BDF87011F6C003014285701D7058D0024628F7FFFF71F0551B
S325000473E0FA9F20054621F066EC3A2000BDF8E92D41F0F64912F8F6C0020128006811EA4FEA
S325000474007891F3C15581F3C16641F3C16EC1D04E2801F3C16C00F3C17740D01D2803F04F68
S325000474204080D165F0214140EB007388430BEB007C8EF02353C0EA4303DCEB007786F02364
S3250004744063C0EA431357EB007485F4230340EA4323146013E8BD81F0F04F4080EB00748857
S32500047460F04F4300EB0377C7EA4F7894F3C101150FFFEB00748EEA417188EA4F7E94EB00F0
S325000474807686EA417147EB0373CC0FB6EA4161CEEB007885EA4F7CD3EA416146EA4F75982F
S325000474A0EA41610CEA4151856011E8BD81F0F04F4080EB007388EA4F7893EB007C8EF02173
S325000474C04140EA417188EA4F7E9CF02151C0EB007786EA4161CE0FBEF02161C0EB00748563
S325000474E0EA4161460FA5F4210140EA4151856011E8BD81F0B5F84606F055FA00F64911F79F
S325000475002504F64837A4F6C00101FB16F405F6483394F2C0070A7808F2C0030A2804FB101F
S32500047520F205D103F055F9FC2082BDF8593C589A4314F64912F5D1164286D00C2E00BF0841
S32500047540F0440404D0072E01BF142E03F0440404F64912F5D007F64912F5B924700EF0559C
S32500047560F9DF2000BDF8700DF6C00201428670167050D0024630F7FFFF3AF055F9D146281C
S325000475804621F066EB6C2000BDF82801F64A0214D10AF6C002016810F0004100F101410009
S325000475A0F0204000430160114770B5F84605F055F9A5F64A02102104F6483784F6C0020101
S325000475C0FB15F401F6483674F2C0070A7810F2C0060A2804FB10F301D103F055F9A1208227
S325000475E0BDF8593C58F3431CF64A030ED10D4285D0032D01BF08F0440404F64A030EB92465
S325000476007015F055F98D2000BDF87011F6C0030142857058701DD00E2D01F64A0214D10AA7
S32500047620F6C002016810F0004100F1014100F020400043016011F055F97320084621F06610
S32500047640EB0E2000BDF8E92D41F0F24A126CF6C0020128006811EA4F78D1F3C14581F3C147
S325000476605401F3C15681F3C16741F3C17E80F3C16C00D05D2801F3C16CC0F3C17E01D02198
S325000476802802D0132803F04F4380F040808AEB03708EF0215140EA410190EB037385F42127
S325000476A02140EA4131136011E8BD81F0F04F4080EB0070840F84F4211140EA4151046011A1
S325000476C0E8BD81F0F04F4080F04F4300EB007E8EEA4F7E9EEB0373CCF0215140EA41710E44
S325000476E0EA4F7CD3F0216100EB007887EA4161CCEA4F7798F02161C0EB007E86EA41614708
S32500047700EA4F769EF4210140EB007884EA415186EA4F7498F4211140EB007385EA415104C5
S325000477200F9DF4212140EA4141856011E8BD81F0F04F4000EB0073C8EA4F78D3EB007ECE45
S32500047740F04F4380EA4F7EDEF0214140EA4171C8EB037787EA41718E0FBFF02161C0EB0091
S3250004776070CCEA416147EA4F7CD0F0217180EB037086EA41610C0F86F4210140EB03788418
S32500047780EA415186EA4F7498F4211140EB037E85EA415104EA4F759EF4212140EA4141850E
S325000477A06011E8BD81F0B5F84605F055F8A7F24A126A2104F6483764F6C00201FB15F401E8
S325000477C0F6483654F2C0070A7810F2C0060A2804FB10F301D103F055F8A32082BDF8593CFF
S325000477E058F3431CF24A1368D1174285D00D2D00BF08F0440404D0082D01BF1A2D022D0324
S32500047800F0440404F24A1368D007F24A1368B9247015F055F8852000BDF87011F6C00301A9
S325000478204285701D7058D0024628F7FFFF0CF055F87720074621F066EA122000BDF8B5388B
S32500047840F64A4308F0300501F6C003016819EA4F7291F3C17401D01F2802F3C16481D0103B
S325000478602803F04F4080D126F0214140EB007282430AEB007084F0226240EA421210601AC4
S32500047880BD38F04F4080F0216140EB0070840F84EA4161846019BD38F04F4080EB0072826A
S325000478A0EB0070840F920F84F0214170EA417182EA4171046019BD38B5F84605F055F81E6A
S325000478C0F64A42052104F6483744F6C00201FB15F401F6483634F2C0070A7810F2C0060AC6
S325000478E02804FB10F301D103F055F81A2082BDF8593C58F3431CF64A4303D1174285D00D80
S325000479002D00BF08F0440404D0082D01BF1A2D022D03F0440404F64A4303D007F64A4303D0
S32500047920B9247015F054FFFC2000BDF87011F6C003014285701D7058D0024628F7FFFF7FBC
S32500047940F054FFEE20064621F066E9882000BDF8B5082003F066ECCE2017F066ECCC200A64
S32500047960F066ECC8200FF066ECC62008F066ECC22004F066ECC02009F066ECBC200BF066C2
S32500047980ECBA2012F066ECB62011F066ECB42013F066ECB02018F066ECAE2005F066ECAA88
S325000479A02006F066ECA8200CF066ECA42007F066ECA22010F066EC9E2014F066EC9C200D41
S325000479C0F066EC982019F066EC962016F066EC922015F066EC90F6490144F6C00101200045
S325000479E07008BD08B5082003F065ECB4200EF065ECB2200DF065ECAE200CF065ECAC2012E3
S32500047A00F065ECA8200FF065ECA62000F065ECA22011F065ECA02010F065EC9C2002F065C4
S32500047A20EC9A2005F065EC962006F065EC942007F065EC902008F065EC8E2004F065EC8AE1
S32500047A40200321012264F066EB42210120172264F066EB3C2101200A2264F066EB38210105
S32500047A60200F2264F066EB32210120082264F066EB2E21012004220AF066EB28210120096F
S32500047A80220AF066EB242101200B220AF066EB1E21012012460AF066EB1A21012011460AD1
S32500047AA0F066EB14220220132101F066EB10210120182202F066EB0A210120052202F06613
S32500047AC0EB06210120062202F066EB002101200C2202F066EAFC210120072202F066EAF6AD
S32500047AE0210120102204F066EAF2210120142204F066EAEC2101200D2204F066EAE821016B
S32500047B0020192204F066EAE22101201622A0F066EADE210120152205F066EAD8F64830306E
S32500047B20F2C0000A68012005F066E898F6483050F2C0000A68012006F066E890F648307066
S32500047B40F2C0000A68012007F066E888F6483090F2C0000A68012008F066E880F64830B0E2
S32500047B60F2C0000A68012004F066E878F6490144F6C00101200170082000BD08B538F24B18
S32500047B8032ACF6C00201E892003CE880003C21004608BD38F24B31A4F6C00101680A6002E8
S32500047BA0888A808220004770B510F24B3190F6C00101C91CC01CE891000A2200E880000A7D
S32500047BC04610BD10F24B3184F6C00101684A680B6042890A6003810220004770F24B317CCD
S32500047BE0F6C00101684A68096042600120004770F24B3174F6C00101684A68096042600106
S32500047C0020004770B508F24B3166220CF6C00101F057FC692000BD08B5104604F054FE6EBC
S32500047C20F64900C1F6C000016801684060216060F054FE762000BD10B51046042003F00C5E
S32500047C40F8F0203A1CA1F00CFA6D203D4621F00CFA692000BD10B51046042002F00CF8E1A2
S32500047C6020391CA1F00CFA5E203C4621F00CFA5A2000BD10B51046042001F00CF8D2203842
S32500047C804621F00CFA4F203B1CA1F00CFA4B2000BD10B5104604200BF00CF8C3200C462164
S32500047CA0F00CFA40201F1D61F00CFA3C2056F1040108F00CFA3720761DA1F00CFA332074E3
S32500047CC01D21F00CFA2F20751CA1F00CFA2BF64910E4F6C0000168000940BF2C20402000BE
S32500047CE0BD10B50846012068F00CF94EF64910E8F6C0000168000800BF2C20402000BD0850
S32500047D00B51046042008F00CF88C2008F104010CF00CFA08201B4621F00CFA0420271CA1DA
S32500047D20F00CFA0020591C61F00CF9FC205AF104010EF00CF9F7205B1D21F00CF9F3205CD5
S32500047D40F104010BF00CF9EE205FF1040108F00CF9E92061F1040109F00CF9E42064F10408
S32500047D60010AF00CF9DF2072F104010DF00CF9DAF64910E4F6C00001680009C0BF2C204050
S32500047D802000BD10B5104604200CF00CF84A200D1CA1F00CF9C720201CE1F00CF9C3203187
S32500047DA0F1040108F00CF9BE20571D21F00CF9BA20654621F00CF9B620771C61F00CF9B252
S32500047DC020781DA1F00CF9AEF64910E4F6C0000168000900BF2C20402000BD10B5104604FE
S32500047DE0200AF00CF81E200B1C61F00CF99B201E1D21F00CF99720351D61F00CF993205230
S32500047E001DA1F00CF98F20554621F00CF98B206F1CA1F00CF9872000BD10B51046042009CD
S32500047E20F00BFFFF200A1C61F00CF97C201D1D21F00CF9782023F104010AF00CF973203341
S32500047E401D61F00CF96F20344621F00CF96B20361DA1F00CF96720531CA1F00CF9632054AF
S32500047E601CE1F00CF95F206EF1040108F00CF95AF64910E4F6C0000168000980BF2C2040A6
S32500047E802000BD10B5104604F054FD382007F00BFFC81DA12007F00CF945200F1CA1F00C73
S32500047EA0F941201A1D21F00CF93D204A4621F00CF93920631D61F00CF935F64911ECF6C0B8
S32500047EC001016808F0004280F0204000EA4000426008F054FD25F64910E4F6C00001680098
S32500047EE00A00BF2C20402000BD10B50846012041F00CF84AF64910E4F6C0000168000B80B6
S32500047F00BF2C20402000BD08B50846012030F00CF83BF64910E4F6C0000168000D00BF2C5A
S32500047F2020402000BD08B5084601202CF00CF82CF64910E4F6C0000168000E00BF2C2040D7
S32500047F402000BD08B51046042005F00BFF6A20064621F00CF8E72016F1040109F00CF8E227
S32500047F602019F104010BF00CF8DD2022F104010AF00CF8D820261D21F00CF8D42051F1042C
S32500047F800108F00CF8CF205D1C61F00CF8CBF64910E4F6C0000168000A80BF2C204020000B
S32500047FA0BD10B50846012014F00BFFEEF64910E4F6C0000168000800BF2C20402000BD0840
S32500047FC0B51046042000F00BFF2C20011DA1F00CF8A920004621F00CF8A520021D21F00C4A
S32500047FE0F8A120041CA1F00CF89D2017F1040108F00CF898204B1CE1F00CF894F64910E488
S32500048000F6C0000168000AC0BF2C20402000BD10B5104604F054FC72F6491066F6C0000108
S3250004802068416802606160228901F64910ECF24B421CF6C00001F6C002018121680168108D
S3250004804015C9F36160596010F054FC6A2000BD10B5104604F054FC52F6491054F6C0000129
S32500048060E890000FE884000FF054FC5A2000BD10B5104604F054FC42F6491048F6C000018E
S3250004808068416802606160228901F64910ECF24B421CF6C00001F6C002018121680168102D
S325000480A01609F361609A6010F054FC3A2000BD10B5104604F054FC22F6491040F6C00001BB
S325000480C06801F64912EC6021F6C002016840F24B411CF6C001016060681268081652F36255
S325000480E060DB6008F054FC1C2000BD10B5104604F054FC04F64911344620220CF6C0010167
S32500048100F057F9F1F64910ECF6C00001F24B421CF6C00201680168101689F361701C60100E
S32500048120F054FBFE2000BD10B5104604F054FBE6F649102CF6C000016801F64912EC60217E
S32500048140F6C002016840F24B411CF6C0010160606812680816D2F362705D6008F054FBE027
S325000481602000BD10B5384604F054FBC8F6491020F6C00001F24B421CF64911ECE89000292C
S32500048180F6C00101F6C00201E8840029680968101709F361709E6010F054FBC22000BD38DE
S325000481A0B5104604F054FBAAF6491014F6C0000168416802606160228901F64910ECF24B4B
S325000481C0421CF6C00001F6C002018121680168101749F36170DF6010F054FBA22000BD1003
S325000481E0B538B1992901F04F0400F1A00202EA4F0361D9074625F8025F021E5BF104040285
S325000482007055D1F80849BF2421005501BD38E92D47F0ED2D8A03F1AD0D04F2480000F6490A
S325000482200180F2C45089F6C001012400F64A4202EEB10A04F24A0E29F6C002016008F04F44
S325000482400980F649017CF6C00E01F24A0320F6C00101F2400000F6C00301F24B2C6CF2C47C
S3250004826020486008F6490178F24A051CF6C00101F2480000270FF64908C1F2CC50896008E0
S32500048280F6C00501F24A0004EEB79A00F649016CF6C000017014F6C00101ED800A00F24A47
S325000482A00000F88E9000F6C00001ED859A00F6C00801ED800A0020017008F6490158F24A38
S325000482C0029CF6C00101ED839A00F6C00201F8887007F6C00C017008F64911E47014F6C0DB
S325000482E00101F8887006F64902F2F06F30FF6048F6C002016008ED8C9A00F24A003C7014E3
S32500048300F6C00001F8887005F88870047004F64900C0F64902E8F6C00001F8887003F6C0B7
S325000483200201F88870027004F24B20607014F6C00001F8887001F64902DFF8887000F6C01B
S3250004834002017004F24B205FF24B2E61F6C00001F64905ACF6C00E01F64903B4F6C00501F6
S325000483607004F24B205EF24B2C63F6C00001F24B2864F6C003017014F6C008017004F24BCA
S32500048380205DF64902DCF6C00001F64A4101F6C00201F88E4000F6C001017004F24B205C9C
S325000483A0702CF6C00001F6490598F6C00C01701CF6C005017004F24A0014F64903A5F6C018
S325000483C00001F8884000F6C00301ED809A00F24A00107014F6C00001F6490EA8F24A022433
S325000483E0700CF64908AB7004F24B2038F24B2198F6C00001F88C4000F6C00101702CF6C081
S3250004840002017004F64900B9701CF6C00001F6490588F6C00E01F6490389F6C00501700414
S32500048420F64900B8700CF6C00001F64901F1F6C00801F6490CAAF6C001017004F64900B701
S32500048440ED829A00F6C00001F64902B5F6C00301F88E4000F6C002017004F64900A4700C50
S32500048460F6C00001F6490E8CF24B2178702CF6C001017004F64900A3ED819A00F6C0000123
S32500048480F64901DEF6C00C01F8884000F6C001017004F64900A2701CF6C00001F24B451C43
S325000484A0F6C00E017014F6C005017004F64900A1700CF6C00001F6490344F64901CA46262A
S325000484C0F6C001017004F64900A0F64902A6F6C00001F88C4000F6C00201700CF649089613
S325000484E07004F649009FF24A0128F6C00001F88E4000F6C00101602EF6C003017004F6498B
S32500048500009E7014F6C00001F6490C95F649028A700CF6C008017004F649009AF64901B64F
S32500048520F6C00001F24B1EEEF6C00101F24B25B8F6C002017004F6490099700CF6C0000127
S32500048540F64901A7F6C00C01701CF6C001017004F64900977014F6C00001F24B12ECF6C0AD
S325000485600E01700CF6C002017004F6490074F649018BF6C00001F8884000F6C00101F24B4F
S3250004858023BCF6C005017004F24A0008700CF6C00001F88C4000F64071FFF8AE1000F6C075
S325000485A003017004F2400000F24A01A0F2C00000F6490850F6C001017014EE080A10F24B58
S325000485C022C0F04F0CFFED858A00F6C00201ED818A00F24A00A4ED828A00F6C00001ED83B8
S325000485E08A00F24A0594F24B21B4F6C00501F24B22B0F6C00101F24A0398F6C00201ED8080
S325000486008A00F6C00301ED858A00F64C40CDED818A00F2C4100CED828A00F6C00801ED83CF
S325000486208A00EE080A90F24B259CF64A4000F24A0190F6C00001F888C000F24B22A8F24B90
S3250004864023A4F6C005017004F6C00101ED858A00F6C00201ED818A00F6C00301ED828A0001
S32500048660ED838A00F24B2090F24B2588F6C00001F24B2194F64902ECF24B238CF6C00501A1
S325000486807004F6C00201EDC58A00F6C00101ED828A00F6C00301ED818A00EDC38A00F6498B
S325000486A000F0F24A0588F6C00001F24B2280F24B2184F24B237CF6C005017004F6C00101BB
S325000486C0ED858A00F6C00201EDC18A00F6C00301ED828A00EDC38A00F24A008CF24A057835
S325000486E0F6C00001F24A0184F24A0280F24A037CF6C005017004F6C00201ED858A00F6C0E4
S325000487000101ED828A00F6C00301ED818A00ED838A00F64900DDF24A0568F6C00001F24AF0
S325000487200270F24A0174F24A036CF6C005017004F6C00101ED858A00F6C00201ED818A00CC
S32500048740F6C00301ED828A00F64900C9ED838A00F6C00001F24A0558F24A0164F24A0260CB
S32500048760F6C00101F24A035CF6C005017004F6C00201ED818A00F6C00301ED858A00F24AC9
S32500048780002AED828A00F6C00001ED838A00F24A0154F24A0250F64905E4F24A034CF6C073
S325000487A001017004F6C00501ED818A00F6C00201ED858A00F6C00301ED828A00F24B20625E
S325000487C0ED838A00F6C00001F64901E0F24A0544F64A0200F6C00501F24A0348F6C00101FC
S325000487E07004F6C00201ED858A00F6C00301ED818A00F64900A9ED828A00F6C00001ED838C
S325000488008A00F24A0530F24A0140F24A0238F24A0334F6C005017004F6C00201ED858A0008
S32500048820F6C00101ED828A00F6C00301ED818A00F6490094ED838A00F6C00001F24B257471
S32500048840F24A022CF64901D8F6C00201F64903D4F6C005017004F6C00101ED828A00F6C026
S325000488600301ED858A00F24B10F0EDC18A00F6C00001ED838A00F64902CCF24B2568F649B2
S3250004888001D0F24B2370F6C002017004F6C00101ED828A00F6C00501ED818A00F6C00301E1
S325000488A0ED858A00EDC38A00F24A00A8F24B2254F24B2158F64905BCF6C00101F24B2350C3
S325000488C0F6C00201ED818A00F6C00501ED828A00F6C00301ED858A00F6C00001ED838A00C1
S325000488E0F24A0118F24B224CF6C00101F24B2544F6C00201ED818A00F24B2348ED828A00BE
S32500048900F6C00501ED808A00F6C00301ED858A00ED838A00F24B2140F24B223CF24B25301F
S32500048920F6C00201F24B2334F6C00101ED828A00F6C00501ED818A00F6C00301ED858A00C5
S32500048940ED838A00F6490290F24A010CF6490570F6C00101F6490384F6C00201ED818A0016
S32500048960F6C00501ED828A00F6C00301ED858A00ED838A00F6490168F6490264F24B2510C9
S32500048980F6C00201F6490360F6C00101ED828A00F6C00501ED818A00F6C00301ED858A0057
S325000489A0F24A0CACED838A00F6C00C01F24B2208F24B210CF24B2500F6C00101F24B2304AD
S325000489C0F6C00201ED818A00F6C00501ED828A00F6C00301ED858A00F24B201CED838A00FE
S325000489E0F24B11FCF24B12F8F6C00101F6490554F6C00201ED818A00F6C00501ED828A0026
S32500048A00F649035CED858A00F6C00301F6490148F24B12F4ED838A00F6C00201F24B15E444
S32500048A20F6C00101ED828A00F6C00501ED818A00F6C00001ED858A00F24B12DCF24B11E0BB
S32500048A40F6C00201F64915ECF6C00101F24B13E8F6C00501ED828A00F24B2214ED818A0003
S32500048A60F6C00201ED8C8A00F24B2118602EF6C00101801646256005F6C00301600DF24BAA
S32500048A802220F24B2028F6C00201F24B2124F6C00001ED838A00F6C001016015F24B13D8C4
S32500048AA06005F6C00301600DF24B222CF64900B0F6C00201F649019CF6C00001ED838A0060
S32500048AC0F6C001016015F649034C6005F6C00301800EF24B22A0F24B20AEF6C00201F24B24
S32500048AE021ACF6C00001601DF6C00101801680064632800AF24A0CBCF24A03B8F24A01B0AD
S32500048B00F24B2AC4F24B28C8F24A02C0F6C00C01F24A00B4F6C00101ED8C8A00F6C00301CD
S32500048B20ED818A00F6C00801ED838A00F6C00A01ED888A00F6C00201ED8A8A00F6C0000149
S32500048B40ED828A00F24A0EC4ED808A00F6C00E01F24B2CD0F24B21DCF64A0308F24B28E045
S32500048B60ED8E8A00F24B2AD8F24B22D4F6C00101F24A00F5F6C00C01ED818A00F6C0080111
S32500048B80ED8C8A00F6C00301ED888A00F6C00A01ED838A00F6C00201ED8A8A00F6C00001E3
S32500048BA0ED828A00F64A0E04F24B21E4F24B2CF07004F24A08D4F24B23ECF6C00C01F24BED
S32500048BC02AE8F6C00E01F24A02CCF6C00101ED8C8A00F6C00801ED818A00F6C00301ED8809
S32500048BE08A00F6C00A01ED838A00F6491000ED8A8A00F24A0CE4F24B21F8F6C00C01F24A55
S32500048C0008E8F6C00201F24A03E0F6C00101ED8C8A00F6C00801ED818A00F24A0ADCEDC839
S32500048C208A00F6C00301ED8E8A00F6C00A01ED839A00F6C00001ED8A8A00F6490CF8F24ADF
S32500048C4001ECF24B380CF64903F4F6C00C01ED828A00F6C00801ED8C8A00F6C00101ED88BB
S32500048C608A00F6C00301ED818A00F24A0AF0ED838A00F6C00A017004ED8A8A00F24A1C0CE4
S32500048C80F24A1814F24A01F8F24A1304F6C00C01F24A1A00F6C00101ED8C8A00F6C0080147
S32500048CA0ED818A00F6C00301ED888A00F6C00A01ED838A00ED8A8A0046B6F24A0CD0F649EA
S32500048CC01110F24A08D8F6C00101F24A03C8F6C00C01F24B2ACCF6C00801ED818A00F6C02B
S32500048CE00301F88C4000F6C00A01F88890002201701CF24B3008F88A4000F24B21F4F24B5C
S32500048D003C04F64A090CF24B23FCF6C00101F24B2AF6F6C00901F24B3809F6C00C01700CC6
S32500048D20F6C00301F8894000F6C00A01F8CC5000F6C00801701CF6C00001F8AAE000F64A15
S32500048D40010DF8882000F24A1910F24A0CFCF6C00101F24A03F4F6C00901F24A0AF6F6C015
S32500048D600C01F64908FCF6C00301700CF24A0EFDF8894000F6C00A01F88C4000F6C0080117
S32500048D80701CF6C00E01F88A4000F24B22FEF8884000F24A1108F88E4000F6491904F649E3
S32500048DA01C02F6C00101F24A1318F6C00901F6490AFEF6C00C01F24B28FDF6C00201F64948
S32500048DC01E0CF6C00A01700CF6C00301F8894000F6C00E01F8AC6000F6C00801F8AA60001D
S32500048DE0F6491108F24B3901F6C00101F88E4000F24B2CFF701C46AA600DF6C00901F8888B
S32500048E00A000F24B3E02F882A000F6C00C01F889A000F6C00E01F880A000F24B3100F648A4
S32500048E202874F6C00101F88CA000F2C0080AF88EA000F881A000F6491314F8D8E000F6C0E1
S32500048E400301F8B82008F8D8C004F8C3E000F6482190811AF2C0010AF8C3C004F6491320C5
S32500048E60F649192CF6C00301E8911005F6C00901F6477AFFF04F087FE8831005F64821D42D
S32500048E80F8894006F2C0010AF8894005220CF8894004F6491034F8898000F6C00001F8A9AF
S32500048EA0A002F056FB20F6491340F6C00301705C711CF64821F2715CF44F6CFA719CF2C07A
S32500048EC0010A701CF6491048F8A3C002F64822C4F8D1E000F6C00001F8B1A008F64918547D
S32500048EE0F8D1C004F2C0020AF8C0E000F6C00801F8A0A008F6491365F8C0C004F6C0030199
S32500048F00E8925003F6491A64F24B391CF6C00A01E8885003F64828E8F6491C75F2C0080AC5
S32500048F20701CF6491066F88A4000F6C00001F8D83004F24B3110F8D8E000F6C00C016043D5
S32500048F40F6C00101F8C0E000F24B3A14F8B83008F6C00A01F6491E74F6C009018103F6C0B8
S32500048F600E01ED8A9A00F24B3818ED818A00F6C00801F88C40004630F88E4000F24B3320F3
S32500048F80ED899A00F6C00301F24B3A24F24B3121F64A3C85F6C00101F24B3E3CF2C43C264B
S32500048FA0F8A800004691F24B3822F6C00A01F6491070F6C00801701CF6C00001700C230177
S32500048FC0F8883000F6C00E01F8C0C000F24B3838E899100E2001F24B3944F6C00801E88A42
S32500048FE0100EF6C00901F24B3358F24B3A54F24B3C4CF6C00A01F24B3160F6C00301F649A9
S325000490001277F6C00C01ED899A00F6C00101ED8E8A00F6C00201F24B3950F24B3E40ED8A7C
S325000490208A00F24B3A51ED838A00F6C00E01ED8C8A00F6C00901ED818A00F6C00A01ED8824
S325000490408A00F24B335CF24B3C4AF6C003017014F6C00C01F24B315D220CF88E4000F6C077
S325000490600101F8894000F24B3E64F88A7000F24B3934F24B3A49270A701CF6C00E01F88CE2
S325000490804000F6C00901700CF6C00A01F24B3C65F6491376F6482140F6C00301F88A700098
S325000490A0F6C00C01F24B3748F2C0010AF88E0000F6C00701ED898A00F04F0E08701CF24B08
S325000490C03066F887E000F6C00001F88C4000F056FA0AF24B327CF44F69FAF24B3172F6C0A5
S325000490E00201F24B3074F6C00101F6C00001F8A29002800E70047104718471C4715471947C
S32500049100F6482A9C7114F24078E77014F2C00A0AF8A0800223787143F24B3984F8DA700438
S32500049120F6C00901F8DAC000F6482EA8F8BA1008F2C00E0AF8C97004F24B3890F8C9C00070
S32500049140F6C00801F8A91008E8BE1081E8A81081F24B33A4F6482A5CF6C00301E89E000518
S32500049160F24B39ACF6491196F2C00A0AE8880005F6C0090170DCF6C00101711CF64918906A
S32500049180715CF6491095705CF6C00801701CF6C00001709CF24A1328F6C00301E89A5084B3
S325000491A0F24B3AD4F6C00A01E8895084F6491984F6491C88F24B3ECCF6491780F6C00901B8
S325000491C0ED888A00F6C00E01ED8A8A00F6C00C01700CF6C007017004F24A181CF24A113062
S325000491E0F6491A7CEDC98A00F24B30C0ED8E8A00F6C00801ED8C8A00F6C00A01ED878A009D
S32500049200F6C00101ED838A00F24B39C4F24B3EC8F6C00901F6491C78F6C00001F24B37BC9B
S32500049220F6C00E01ED888A00F6C00C01ED8A8A00F6C00701600DF6491898ED898A00F64943
S325000492401A9AF24B31C1F6C00801ED8E8A00F6C00A01ED8C8A00F04F0901ED878A00F64913
S325000492601E99F6491C97F6C00101F6491794F6C00E017004F6C00C01F8884000464BF88ACA
S325000492804000F6C00701F24A1834F6491A8DF88E4000F6C00A01F88C9000F6C00801703B53
S325000492A0F6491E8C700CF24A1C2CF24B37D8F6C00E01F24A1924F6C00C01F24B33D0F6C078
S325000492C00701F88A4000F6C00901F8884000F6C00301F24A1A22F24B38C3F88E4000F6C054
S325000492E00801F8CC5000F6C00A01703CF24A1E20F8A96000F24B3CC2701CF6C00E01F88853
S325000493004000F6C00C01F8AA6000F88E4000F88C4000F6491AF7F64917F8F04F0904F64A8A
S325000493200314F6C00A01F64A0810F6C007014630F6C00301F88A9000F6C008016038F6495D
S325000493401AF56018F6C00A01F88890006838F04F0803F88A8000F88A8001F24A1A50F02006
S325000493604340F6C00A01F0004040F1004080ED8A8A004318F24B4A10F02053C0F6C00A01A7
S32500049380F1006000F00050C04318F02063C0F1007000F00060C04318F4200340F50000804C
S325000493A0F4000040F64A4E084318F24A136AF6C00E01ED8A8A00F6C003014631F24B3AF85F
S325000493C0F8CE1000F6C00A01F8839000F24A13686038F6C00301ED8A8A00F8DE0000F88386
S325000493E08001F8838000F24A134CF6491AC4F6C00301F6C00A01ED838A00F0204740F24AE7
S325000494001338F0004040F6C00301F1004080ED838A00F24B33F4F6C00301ED8A8A00433888
S32500049420ED838A00F0206740F64913C0F1006080F24A1A49F6C00301F6C00A01ED838A007A
S32500049440F0006040F24A13484338F64A4705F6C00301F24A1C6CF6C00701F88A4000F6C020
S325000494600C01701CF6491ABAF8879000F6C00A01F64A47032301F8CE0000F6C00701F8CC70
S325000494801000F24B4E32F88A3000F6C00E01F8878000F8878001F88E9000F24A1744F24B95
S325000494A04E30F6C00701F8DC0000F6C00E01F64913A1F6491AA2ED878A00F6C00A01F88E9A
S325000494C08001F0205140F24B470CF6C00301F88E8000F6C00701F24A1E40F1005080ED8783
S325000494E08A00F0005040F88A4000F6C00E01F24B37F04308ED8E8A00F6C00701F6491ED032
S32500049500F4202140ED878A00F6C00E01F64917B0F5002080ED8E8A00F6C00701F24B3EEC44
S32500049520F4002040ED878A00F6C00E01F24A173E4308ED8E8A00F6C00701701CF6491EA8DA
S32500049540F24A1158F6C00E01803EF6C00101ED8E8A00462AED818A00F6491A9BF8CC0000FC
S32500049560F24A1364F24A1E3CF64917B9F64911D4F6C00701F6491CF4F6C00101F64A000E52
S32500049580F6C00E01703CF6C00C01ED818A00F6C00001F88E4000F24B4104F64917A0F64961
S325000495A01EB8F88C9000F6C00101F8808001F6C00E01F8808000F6491CBCED818A00F6C084
S325000495C00701F88E4000F6C00C01F24B31DCF04F0E01F64910E0F6C00101F88C8000F6C0B7
S325000495E00001F24A1954F6491CDCF887E000F6C00C01ED818A00F6C00901ED8C8A00F6C0ED
S325000496000A01ED898A00F6C003016002F24B4E34F6491CCCF6C00E01F24B4914F6C00C0111
S32500049620F24A114BF6C00901ED8C8A00F24A175CED898A00F24B3CE8F24B39FCF6C00C0180
S32500049640F8CE2000F6C00901ED8C8A00F64918D8F24B4C2CF6C00801ED899A00F6C00C01E1
S325000496606802F64919C8ED888A00F6C00901F8CC5000F6C00101EDC98A00F24B4808F24BC1
S325000496804C00F6C00801F24A194AF6C00C01700CF6C00901ED888A00F6C00701F8AC500066
S325000496A0F0424200F8894000F24B38E46002F6C00801F6491CB6F64919BBED888A00F6C018
S325000496C00901F24A1860F6C00C01F64915B4F6C00801F8894000F6C00501F8AC6000F64978
S325000496E019A3F8884000F6491C9FF8DE0000F6C00901F24B38E0F6C00C01802EF6C00801CF
S32500049700F88940004631F88C4000F24B4528F8A81000F649169EF64911A4F6C00601F64906
S3250004972018ACF6C00101F649199CF6C00801F6491CF0F6C005017034B001F24B4618F6C043
S325000497400901700C2101F8884000F6C00C01F88A1000F6C00601F649189DF0804100F6C02A
S325000497600801F1015000F00040C0F02141C04308F0805080ED838A00F1006180ED878A003D
S32500049780F0016140ED858A00F0206040F88940004301F88C4002F1017080F88C4003F0001D
S325000497A070407034F0217140F88840004308F8CE0000ECBD8A03E8BD87F020844770F649CC
S325000497C010E0F6C0000168000800BF2C208420834770B508F6490044F6C0000178002801E7
S325000497E0D10BF053F8B8F64911E4F6C001016848F02060806048F053F8A5BD08B508F649BB
S325000498000044F6C0000178002801D10BF053F8A3F64911E4F6C001016848F0206000604834
S32500049820F053F890BD08B508F6490044F6C0000178002801D10BF053F88EF64911E4F6C067
S3250004984001016848F02050806048F053F87BBD08B508F6490044F6C0000178002801D10BD5
S32500049860F053F879F64911E4F6C001016848F02050006048F053F866BD08B508F6490044E0
S32500049880F6C0000178002801D10BF053F864F64911E4F6C001016848F02040806048F05394
S325000498A0F851BD08B508F6490044F6C0000178002801D110F053F84FF64911E4F6C00101A1
S325000498C06848F02040006048F053F83CF44F61002003F064E9C4BD08B508F6490044F6C0DC
S325000498E0000178002801D10BF053F835F64911E4F6C001016808F02000016008F053F8223E
S32500049900BD08B508F6490044F6C0000178002801D10BF053F820F64911E4F6C0010168084D
S32500049920F02000026008F053F80DBD08F6490044F44F2180F6C0000178002801F04F000395
S32500049940D101F058BC554770B508F6490044F6C0000178002801D10BF052FFFDF64911E435
S32500049960F6C001016808F02000046008F052FFEABD08F6490044F44F3180F6C000017800A3
S325000499802801F04F0003D101F058BC324770B508F6490044F6C0000178002801D10BF052DD
S325000499A0FFDAF64911E4F6C001016808F42060006008F052FFC7BD08B508F6490044F6C0C9
S325000499C0000178002801D10BF052FFC5F64911E4F6C001016808F42050806008F052FFB25E
S325000499E0BD08B508F6490044F6C0000178002801D110F052FFB0F64911E4F6C001016808D2
S32500049A00F42050006008F052FF9DF04F51002003F064E924BD08B508F6490044F6C00001C2
S32500049A2078002801D10BF052FF96F64911E4F6C001016808F42040806008F052FF83BD08A7
S32500049A40B508F6490044F6C0000178002801D10BF052FF81F64911E4F6C001016808F42056
S32500049A6040006008F052FF6EBD08B508F6490044F6C0000178002801D10BF052FF6CF64960
S32500049A8011E4F6C001016808F42030806008F052FF59BD08B508F6490044F6C000017800A5
S32500049AA02801D10FF052FF57F64911E4F6C001016808F02000086008F052FF442110200346
S32500049AC0F064E8CCBD08B508F6490044F6C0000178002801D110F052FF3EF64911E4F6C0CD
S32500049AE001016808F02000106008F052FF2BF44F01802003F064E8B2BD08F64900442104B4
S32500049B00F6C0000178002801F04F0003D101F058BB6F4770B508F6490044F6C00001780037
S32500049B202801D10BF052FF17F64911E4F6C001016808F02000206008F052FF04BD08B50803
S32500049B40F6490044F6C0000178002801D110F052FF02F64911E4F6C001016808F020004050
S32500049B606008F052FEEFF04F41802003F064E876BD08B508F6490044F6C000017800280112
S32500049B80D121F052FEE8F64912ECF6C0020168100841F0014140F0814180F0204080430132
S32500049BA06011F052FECFF052FED6F64911E4F6C001016808F02000806008F052FEC321800D
S32500049BC02003F064E84CBD08B508F6490044F6C0000178002801D10FF052FEBDF64911E462
S32500049BE0F6C001016808F42070806008F052FEAA21082003F064E832BD08B508F64900441E
S32500049C00F6C0000178002801D110F052FEA4F64911E4F6C001016808F42070006008F05293
S32500049C20FE91F04F61802003F064E818BD08F6490044F44F6180F6C0000178002801F04FF1
S32500049C400003D101F058BAD44770F6490044F44F6180F6C0000178002801F04F0003D10185
S32500049C60F058BAC64770F6490044F44F6180F6C0000178002801F04F0003D101F058BAB88E
