;SWE created by SWE-Generator 3.8.0 with config-file SweGen_768_OBD_3_SWE2.cfg
;
;$PROCESS_CLASS swfl Z
;$IDENTIFIER    0000508c O
;$VERSION       160_013_013 2
;
;$SWE_DESCRIPTION_TABLE_START_ADDRESS 1FDC4 5
;$SWE_SIGNATURE_ADDRESS               1FDCC H
;$SWE_DEVELOPMENT_INFO_FIELD_ADDRESS  1FED0 B
;$SWE_DESCRIPTION_TABLE_END_ADDRESS   1FEDE O
;
;$SIGNATURE_STATUS UNSIGNED S
;$SIGNATURE_BYTE_ORDER MOTOROLA P
;$SIGNATURE_HASH_MODE SHA256 S
;$SIGNATURE_KEY_LENGTH 2048 N
;$SIGNATURE_MODE RSA D
;$SIGNATURE_NUMBER_BLOCKS 3 V
;$SIGNATURE_BLOCK 10000 1FDC3 Y
;$SIGNATURE_BLOCK 1FDC4 1FDCB C
;$SIGNATURE_BLOCK 1FED0 1FFCF A
;
;$BLOCK_NUMBER 1 U
;$BLOCK 10000 1FFDF W
;
;$CARB_MODE_9_CVN C0E2FF22 8
;$CHECKSUM CRC32 98181D4B  A
;
;=============================================================================
;Data Block 1: [010000 - 01FFDF] NOCOMPRESS
;=============================================================================
S325000100003B449BA608DA46C040F000003F800000001446C045034000419000003F80000010
S325000100203F7AE148003246C03F19999A3F8000000000000000000000000000000000000055
S32500010040000000000000000041C00000FFC0004B00644000400000000000003000480068CA
S32500010060009000C000F80138017801C00218026802C8033003980410048805080588000068
S32500010080000000400068009800D80120017801D8024002B8033803C80460050005B0066840
S325000100A0072807F808D80000000000200050008800C80110016801C0022802A0031803A0A6
S325000100C0043004C80570061806D0079808600000000000200048008000B000F00138018067
S325000100E001D80230029002F8036803D8045804D8056005F00688000000000020004800781C
S3250001010000B000E80128016801B80208025802B80318038003E8046004D8055805D80000D4
S3250001012000000000001400290048007B00A400F60148019A01EC025202CD031F03AE04183B
S32500010140048004F80570000000000000001400290048007B00A400CD011F017101AE0214DB
S32500010160026602B80330038003D80438049800000000000000000014003D0066008F00C3E4
S32500010180010A0148019A01EC023D028F02F00340039003E8044000000000000000000014A1
S325000101A0001F003D0066008F00CD01140148019A01D70214027B02CD030A037103C800009B
S325000101C00000000000000014001F003D0066008F00CD01140148019A01D70214027B02CDB3
S325000101E0030A037103C846C04248000041000000410CCCCD410CCCCD3E19999A000100057F
S32500010200000100643D4CCCCD40300000412000003BA3D70A41700000000000323F7AE148FB
S325000102203D4CCCCD3C23D70A00000001FFFE46C03D4CCCCD42C8000040E00000000003C042
S3250001024007800B400F00168021C02D0038404380539A539A539A539A539A539A539A539A6F
S32500010260539A539A0200092F034704810508014101FA068F01F002EE032E012900D0024F58
S3250001028000F900BF0119005A05400D51039505950B300257424800004270000042700000D4
S325000102A0429600004296000042B4000042B4000042FA00003F00000000780003000146C09E
S325000102C03F3AE14800780003000146C03F3AE1484180000040A000000000000040C00000B0
S325000102E000640004000146C03F7D70A43F7AE14842C800003F0000003F000000003246C016
S325000103003F800000019046C03F000000400000004100000040E00000006413883F00000062
S32500010320006446C040800000002846C042480000003246C0412800000064012C138846C001
S325000103404000000000640004000100000000000000000000000000000000000000000000ED
S3250001036000000202000101010101010101010101010101010101010000020000000101015B
S32500010380010101010101010101010101010101000000000000000000000000000000000047
S325000103A00000000000000000000000000000000000000000000046C03F8000003F800000B2
S325000103C0000000003F80000040D7E8774057A8A43F80000040D7E76D019001904000000072
S325000103E04029999A4016666600FE003F000046C03C40000013331E66000003D700000000D5
S325000104000032024000C80260003201B00258024003E8048003E8040041A0000000800140B8
S3250001042001400280028003C003C0050005000080014001400280028003C003C0050005004A
S3250001044000800140014002800280028003C003C003C00080014001400280028002800280BA
S325000104600280028000800140014002800280028002800280028001C03F000000138813882D
S32500010480400000000000006403E846C0401333333D6147AE4040000000C046C0C1F000007D
S325000104A000280002000146C043160000C23400004220000000C046C03DCCCCCD3F000000AC
S325000104C042C80000463B8000427000003F0000003F0000003F0000003F0000003C23D70A1C
S325000104E03F80000000000F001E002D003C0064003A08994A37F2574D3BCAB8753720879F9B
S32500010500410CCCCD00000000417000000000000041700000417000003F8000003F8000005D
S325000105203E19999A410000000003000A4089999A000146C04120000000000C80190025802E
S32500010540320064007FE07FE00000180038003800380038003800380000000C80190025808E
S32500010560320064007FE07FE00000180038003800380038003800380000010032000004A0E1
S3250001058009400DE0128017201BC02060250029A02E4046C041C00000402000003F80000078
S325000105A0458CA00041200000412000003F8000000000028006400C80190032008CA08CA04B
S325000105C08CA08CA08CA08CA04000400040004000400040004000400040004000000D001BBC
S325000105E000280035004246C03F8000003F8000003F8000003F8000003F8000003F800000D5
S325000106003F8000003F8000003F8000003F8000003F8000003F8000003A83126F00000D000E
S3250001062080081D17C0081F3880081D1780081D1700000D0000000D0000000D0000000D002C
S3250001064000000D0000001D0080081D4C80081F38A4000D3800080D0080081D4C80081D4DB8
S3250001066080081D4DC0081F3880081D4D00000D0000080F6B80080D6C80081D4D80081D4DFC
S3250001068080081D4D80081D4D14081E0080081D4D80081D4D80081D4D00000D0080001D4D68
S325000106A080081D4E80081D4E80081D4E80081D4E80081D4F00000D0000000D0080081D4E66
S325000106C000000D0080081D5080081D4F80081D4F00000D0000000D0000000D0080081D4F0E
S325000106E080081D4FA4081D4E80081D4E00000D00A4081D4E80081D4E80000D4E00000D00F6
S3250001070000000D0000000D0000000D0000000D0000000D0000000D0000000D0080080D5092
S3250001072080080F5080080D5300080D0040080F00C8080F38C0080F38C0000F0040080F002B
S3250001074000000D0000000D0000000D0000000D0080080D1480080D1400080D0000080D00E2
S3250001076080100D3880080D1480100D5300080F0000080F0000080F0080080D1680100D5324
S3250001078000000D0000000D0000000D0000000D0000000D0000000D0000000D0000086E0081
S325000107A040086F0000086F0000000D0000000D0080086D1580086D1580086D1540086F0015
S325000107C040086F0040086F0080080D1500000D0000000D0064082F0064082F00A4082D4B86
S325000107E024082D00A4082D4A24082D0000082F0024082F00A4082D4A00000D0000000D004E
S3250001080000000D0000000D0000000D0000000D0000000D0000000D0000000D00C0000F3770
S32500010820C0080F13C0080F4AC0080F4BC0080F3EC0080F4BC0000F4900000D0000000D001B
S3250001084000000D0000000D0000000D0000000D0000000D0000000D0000000D00A4000F3B48
S3250001086000080F0000000D0000000D00C0100F23C0080F3D00000D0000000D0000000D0003
S3250001088000000D0000000D0000000D0000000D0000000D0000000D0000000D0000080D00E1
S325000108A000000D0000000D0000000D0000000D0000000D0000000D0000000D0000080D00C1
S325000108C000080D0000000D0000000D0000000D0000000D0000000D0000000D00C0080F22B5
S325000108E040000F00C0080F2200000D0040000F00C0080F1640080F0000000D0080080F2144
S32500010900C0000F0000000D0000000D0000000D0000000D0000000D0080080F0080080D5242
S3250001092000080D0000080D0000000F00C0000F47C0000F41C0000F42C0000F4380000F445B
S3250001094080000F4580000F4680080D5280080D5280080D5280080D5280080D5200000D0057
S3250001096080080D5300000D0000000D0000000D0000000D0000000D0000000D0000000D002D
S3250001098000000D0000000D0000000D0000000D0000000D0000000D0080080D5200000D000E
S325000109A0E0880F4700000D0000000D0000000D0000000D0000000D0000000D0000000D0017
S325000109C000000D0000000D0000000D0000000D0000000D0000000D0000000D0000000D00A8
S325000109E000000D0000000D0000000D0000000D0000000D0000000D0000000D0000000D0088
S32500010A0000000D0000000D0000000D0000000D0000000D0000000D0000000D00C0006F2421
S32500010A2040006F0040006F0040006F0040006F0040006F0040006F0040006F0040006F0037
S32500010A4040006F0040006F0040006F0040006F0040006F0040006F0040006F0040006F0017
S32500010A6040006F0040006F0040006F0040006F0040006F0040006F0040006F0040006F00F7
S32500010A8040006F0040006F0040006F0040006F0040006F0040006F0040006F0040006F00D7
S32500010AA040006F0040006F0040006F0040006F0040006F0040006F0040006F0040006F00B7
S32500010AC040006F0040006F0040006F0040006F0040006F0040006F0040006F0040006F0097
S32500010AE0D0006F1AD0006F1BD0006F1C40006F0040006F0040006F0040006F00D0006F1DC9
S32500010B0040006F0040006F0040006F00D0006F1E40006F00D0006F2040006F00C0006F294F
S32500010B20C0006F26C0006F28C0006F2740006F0040006F00C0006F2A40006F0040006F0097
S32500010B40C0006F2BC0006F2FC0006F2D40006F0040006F0040006F0040006F0040006F000F
S32500010B60C0006F2CC0006F30C0006F2E40006F0040006F0040006F0040006F0040006F00EC
S32500010B8040006F0040006F0040006F0040006F0040006F0040006F0040006F00C0006F3224
S32500010BA0C0006F3140006F0040006F00C0006F3340006F0040006F0040006F00C0086F3595
S32500010BC0C0086F3440006F0040006F00C0086F3640006F0040006F0040006F00C0006F1884
S32500010BE0C0006F1940006F0040006F0040006F0040006F0040006F0040006F0040006F00DD
S32500010C00C0006F1F40006F0040006F0040006F0040006F0040006F0040006F0040006F00B6
S32500010C2040006F0040006F0040006F0040006F0040006F0040006F0040006F0040006F0035
S32500010C40C0006F0040006F0040006F0040006F0040006F0040006F0040006F00C0006F58BD
S32500010C60C0006F55C0006F56C0006F5740006F0040006F0040006F0040006F00C0006F6093
S32500010C80C0006F5E40006F0040006F0040006F6040006F00C0006F6240006F00C0006F64D1
S32500010CA0C0006F65C0006F67C0006F6840006F0040006F00C0006F6740006F00C0006F6139
S32500010CC0C0006F5FC0006F59C0006F5D40006F0040006F00C0006F6340006F00C0006F6A33
S32500010CE0C0006F6640006F0040006F0040006F0040006F00C0006F6940006F00C0006F5CCA
S32500010D00C0006F5AC0006F5BC0006F0040006F0040006F0040006F0040006F0040006F001F
S32500010D2040006F0040006F0040006F0000000F0000000F0000000F0000000F0000000F0054
S32500010D4000000F0000000F0000000F0000000F0000000F0000000F0000000F0000000D0016
S32500010D60C0000F2500000D0000000D0000000D0000000D0000000D0000000D0000000D001D
S32500010D8000000D0000000D0000000D0000000D0000000D0000000D0000000D0000000D00E4
S32500010DA000000D0000000D0000000D0000000D0000000D0000000D0000000D0000000D00C4
S32500010DC000000D0000000D0000000D0000000D0000000D0000000D0000000D0000006F0042
S32500010DE000000D00C0000F4080006D4080006D5140006F0040006D0000000D00C4000F3AEF
S32500010E0064006F00C0006D48C0006D4800000D0040006D0040006D0000000D000801A004ED
S32500010E200801B2D40800834C0801A06008015DA40801B2F60801A00C08006CB20801A0609D
S32500010E400801A0740801A078000000000801A0AC0801A0A4000000000000000000000000AB
S32500010E600000000000000000000000000000000000810052004E004D0066006B0067006560
S32500010E8000B50057000100040003017001710131013201330138013C0179013E00B800B222
S32500010EA000B00094010001D10141014301420140014601490151014B0153014A0152016187
S32500010EC00160016401690168016C00800002000C0051000D00120046004501F8009000955E
S32500010EE0008401F301F200C500C600C700C800C900CA00E100C401FA01FB008600820076B9
S32500010F000072007000850083000F000B001C001A001D0020001E00190011001000130018D0
S32500010F2000170023002400280037002100220033003200350036002C0031002B00300025FD
S32500010F4000410040002A01F400CE00C000CF00CB00CC00CD00DF0058005300D100420191FA
S32500010F6001920193019001AA01B901BA01B801AB019901A9019801A8019E01AE01A001A116
S32500010F8001B101A201A601A301B601B00016018901BB004700B900BF000000000000000027
S32500010FA000000000000000000000000000000000000000000000000000000000000000002A
S32500010FC000000000000000000000000000000000000000000000000000000000000000000A
S32500010FE00000000000000000000000000000000000000000000000000000000000000000EA
S325000110000000000000000000000000000000000000000000000000000000000000000000C9
S325000110200000000000000000000000000000000000000000000000000000000000000000A9
S32500011040000000000000000000000000000000000000000000000000000000000000000089
S325000110600000000000000000000000000000000043FA000043FA000043FA00004000000072
S325000110804000000040000000000004800500058006000680080009000A00000003200640AB
S325000110A009600C800FA012C015E019000000010005000C801900258032004B0001000100D6
S325000110C00100010001000100010001000100010001000100010001000100010001000100F9
S325000110E0014F014F014F014F014F014F014F014F014F019A019A019A019A019A019A019ADC
S32500011100019A019A019A019A019A019A019A019A019A019A019A019A019A019A019A019A18
S32500011120019A019A019A019A019A019A019A019A019A019A019A019A019A019A019A019AF8
S32500011140019A019A019A019A019A019A0000000000000000000000000000000000000000E6
S32500011160000000000000000000000000000000000000000000000000000000000000000068
S32500011180000000000000000000000000000000000000000000000000000000000000000048
S325000111A0000000000000000000000000000000000000000000000000000000000000000028
S325000111C0000000000000000000000000000000000000000000000000000000003A03126F4A
S325000111E0412000003ECCCCCD00C046C043C8000000FF46C03DCCCCCDD440FFB00000032086
S325000112002BC0000005000F001E0013880271000100FA0271000100FA44FA000042C80000EB
S325000112204040000000C800040001019A0066032E000C0004000246C0402000003F00000071
S325000112403F80000040600000032E023E01E0011F000C0004000246C04020000000B046C088
S32500011260409B28003E70000000B046C0409B28003E7000004020000000CD023E000146C0DB
S325000112803F19999A3E99999A1AE01AE01AE009D9087E09720BB715D112CF10880EBF0D4F97
S325000112A00C210B240A4E099508F500000148028F03D7051F066607AE08F60A3D0B850CCD31
S325000112C00E140F5C10A411EC1333147B3D442B28000000330066009A00CD0100000000001F
S325000112E0000000000000000000000080010001800200400040004000400040000000001A89
S3250001130000330066009A00CD00E601000000000000000000000000000000000001C046C018
S3250001132040C000003D4CCCCD4000000040A00000410000004000000040A00000000124F8E6
S32500011340000000FA4060000043FA00004589800005000A000280004005000A0000C80014A5
S3250001136000C046C0444800003E800000059446C04033333341C800004040000000FA0080DB
S325000113803B81000040200000BA8800003F867FFE3F66800001C046C03BCCCCCD41C8000011
S325000113A038C49BA63BA4000000C046C03F80C73B3CCC000042D15FBE3EDC156E3F800000EF
S325000113C0000146C03DE147AE000000000000000000000000000000000000000000000000EC
S325000113E0000000003E8000003E4CCCCD003200050001003200050001402000003F7D70A465
S3250001140000C846C03D4CCCCD414800003C23D70A00320005000146C040B851EC3D800000DC
S3250001142040B851EC3D8000003A03126F000000003ECCCCCD3F7333334270000038D1B717B1
S32500011440424800003EF3D051BEF3CC333F7FFDF13F80000042A000003DCCCCCD4270000058
S325000114604270000000C046C041200000000C0003000146C04116000040000000000C0003D0
S32500011480000146C04361000000C0078008C00000000000000000000000000000000046C085
S325000114A04170000032C046C040A000003F8000003F8000000078000A000A46C0400CCCCDA7
S325000114C00064000A002846C040D9999A4020000000000000001E0002000101C042FA00009F
S325000114E0015E01C001F4000A000546C04086666600FA46C04270000041F000000007000639
S32500011500000046C03E99999A005A0023000002800600060D4666466646664666012000C00B
S3250001152000800000000D000D000D002C006001000000000D000D000D002C006001000000BC
S32500011540000D000D000D002C0060010000140005000346C00000000000140005000306008C
S3250001156007800A0000E60064001446C03EBAE1483F19999A0A8007D001C000393F70A3D73F
S325000115803F70A3D73F5EB8523F5EB852CAC846C041C0000040C000003D75C28F3FCCCCCD8D
S325000115A0CAC846C042C8000042C80000427C0000435C00003F8000003F000000000000809D
S325000115C000C0010000000000000000800100010001000100010001000100010001000100B9
S325000115E00100010001000100FD80FE20FEC0FF60000000A0014001E00280032003C004609A
S32500011600050005A0000000000000000042C80000000000003E4CCCCD4120000042C8000081
S325000116203F8000004248000040A00000420C000041A0000042F0000001F401F407D001F463
S325000116404348000040A000004120000042C80000000301F4412000007853000A3F8CCCCD1B
S3250001166001F4FFC007D001F407D000C001F400F500F50002000A014A01F401F448C007D04D
S325000116803D2AAAAC00030032000A0015000A000105B646C00000232805DC02000001000A2D
S325000116A0006400640001000F3F99999A3ECCCCCD3F8666664396000005DC0200000146C049
S325000116C000000000000000BC00BC0014000E0073000200013D2E1EB8469C4000005C46C02E
S325000116E0428C000001C046C03F000000010101C0007300750077007900D200D700DC00E10E
S3250001170000640005000546C03F666666447A0000447A0000447A0000447A0000006400057C
S32500011720000100A0000A000C0001006400050001001446C040A0000040000000437F000084
S3250001174041900000425180000005003203E803E84234000000640064003202EA8010F60FA0
S32500011760001E000A000503E80032000A00010032000A0001005A000A000100C8006400320D
S3250001178043070000433400004361000043870000439D800043B4000043CA800043E100000B
S325000117A0C3340000C3070000C2B40000C2340000000000004234000042B40000430700003F
S325000117C0FFC046C04000000007D046C03A03126F3A83126F00300000010005000C80190049
S325000117E0258032004B0064007C807D007D80DA80F9C000000280050007800C801180168012
S325000118001E002580B000C400E800F000F80000000800100018003C005000B000C400E800A2
S32500011820F000F80000000800100018003C005000B000C400E800F000F800000008001000A1
S3250001184018003C005000B000C400E800F000F80000000800100018003C005000B000C40069
S32500011860E800F000FD9A00000800100018003C005000B000C400E800F000FD9A000008004B
S32500011880100018003C005000B000C400E800F000FE8F00000800100018003C005000B00048
S325000118A0C400E800F000FE8F00000800100018003C005000B000C400E800F000FE8F000063
S325000118C00800100018003C005000B000C400E800F000FE8F00000800100018003C005000B0
S325000118E0B000C400E800F000FE8F00000800100018003C005000B000C400E800F000FE8F73
S3250001190000000800100018003C0050000000001A0035003F004A00560062006E007B008605
S325000119200092009F00AA00B600C200CD00DA00E600F200FD0000001A004E0065007B0094F5
S3250001194000AB00C400DC00F3010B0122013B0153016A0182019A01B101C901E10000003369
S3250001196000500071009100B000CD00EE010A0129014A0168018701A601C401E402020221BA
S325000119800241025F000000330050006E009200AD00CD00ED010A012B014A0168018801A796
S325000119A001C401E4020302210240025F000000330050006F008F00B100CF00EE010B012C83
S325000119C0014A0167018801A601C501E3020302220241025F00000033004F006F008B00AE7C
S325000119E000CE00EC010B012C014E016E018C01AC01CC01EE020D022C024D026D000000330B
S32500011A000050006A008E00AF00CD00EF010E012C014C016E018E01AD01CE01EE020C022BDE
S32500011A20024D026D000000330064008200A300C200E50105012301440163018401A401C3BD
S32500011A4001E3020302240244026502850000003300640082009D00BD00DB00F701170135A9
S32500011A6001560171019301AF01CE01EC02090228024502650000003300640082009D00BD40
S32500011A8000DB00F70117013501560171019301AF01CE01EC02090228024502650000000073
S32500011AA000000000000000000000000000000000000000000000000000000000000000001F
S32500011AC00000000000000000000000000000000000000000000000000000000000000000FF
S32500011AE00000000000000000000000000000000000000000000000000000000000000000DF
S32500011B0008001000180020002800080010001800200028000800100018002000280008004E
S32500011B20100018002000280008001000180020002800080010001800200028000800100026
S32500011B401800200028000800100018002000280008001000180020002800080010001800FE
S32500011B60200028003130313033000000000000000000000000000000000000000000000021
S32500011B8000000000000000000000000000000000000000000000FFFF3F8000004130000010
S32500011BA0401EB852429600003F000000000007D0437A00004220000040E000003F19999AFE
S32500011BC03E19999A3D147AE13F0000003F0000003FC00000427000003FA000003F800000FB
S32500011BE03F0000003FC000004170000041700000407000000000006440A0000041680000A1
S32500011C00401F5C293F8000003F3333334030A3D73E4CCCCD00000F001E002D0000001000CB
S32500011C20400040003A83126F400000003DCCCCCD3F6147AEBF2147AE3E99999A3F4CCCCD65
S32500011C40000000004120000041F0000040E000004020000000000000402BEDFA40099B3DF8
S32500011C604008D0143FEE76C9C0A00000C00000004000000040A00000000000000000000085
S32500011C80000000003F800000000000013E1E920C4028EF3540AE17C840A9EE8DC0A9489B7A
S32500011CA0C05228AEBFAD82D43DF5E84FBBA38B8B402233D340B931A3408248C5C0A258B028
S32500011CC0C0294DE4BDC47DC33F0F9D3DBE732096400E3F9640CF84274087BEFBC03CFBC6F9
S32500011CE0C066440B3F4EBF553F0568C7BF1FEDB74016042140E0A5354094EAB3C09D2F9BC5
S32500011D00C00B35F4400C9DBB3F82BD013DCCCCCD4120000041A000003F00000042C8000078
S32500011D203F800000418800003D23D70ABF80000042C800000000000000000000000000008A
S32500011D400000000000000000000000003F80000000000000000000000000000000000000BD
S32500011D6000002000300040000000000000004000000000260026003300400040004000400D
S32500011D8000000052005200CD01EC01EC01EC01EC4000400040004000400040004000400017
S32500011DA03F539347C1517102350E00CF3DB38A1CC156D8253AEF37633F7C65812F42CCECE2
S32500011DC03946CC69BC62EA913E2FAC8241516E443F7F7C66BE3FC9F24156E239B60F3CB60F
S32500011DE0B96A22AF36790F4EB584C91FB9E9B3B0386D31483D74CFA8AC76017036C1661070
S32500011E003F7FED8CB408BA67B75DC04D345277A53A8310E3B7D8915F3AD346FE3D87576CDD
S32500011E20344D0270391E98DD3E0479483B026E963B025CCD3B0248ECB928E1AD38F414CB47
S32500011E403936F63B3C5EA9EF3B02B0523F7FBBF33C6A97993E99999A404CCCCD3F000000BA
S32500011E603F3333334248000040C0000042D20000078007800780078007800780417000000A
S32500011E80EC00EE80F100F600FB00000005000A000F00140019001000100010001000100064
S32500011EA010001000100010001000100000040000417000000000006500E80189024A0327B9
S32500011EC004250545067F07D50948000100640000010005000C801900258032004B00640040
S32500011EE07C807D007D800000385258273ECA479600001000200030004000500060007000B7
S32500011F0080009000000000000000000000000000000000000000000003ED24A701000100ED
S32500011F2000000000004E00B300E601000100010001000100010001000000000000000000AC
S32500011F4000000000000000000000000000000000000000000000000000000000000000007A
S32500011F6000000000000000000000000000000000000000000000000000000000000000005A
S32500011F8000000000000000000000000000000000028002800280028002800280028002802A
S32500011FA00280028002800280028002800280028002800280028002800280028002800280FA
S32500011FC0000000000000000D50670C8D0F00506722600030010004000000028005000A008F
S32500011FE00000028005000A00000000002580258000000100002000A0014001E0002000A05C
S32500012000014001E0002000A0014001E0002000A0014001E0066633334CCD80000666333396
S325000120204CCD8000066633334CCD8000066633334CCD80000000028F0000028F0000028F77
S325000120400000028F0000028F0000028F0000028F0000028F19000320000003200000032022
S32500012060000003200000001A001A001A03000300001A001A001A030003000000000000008E
S325000120800000000000000000000000000000000044B4038503E800004059999A041A01CD16
S325000120A0013300F30100013301B30380776D000000CD019A02660333040000000000000098
S325000120C000000000000010001000100010001000100010001000000000CD019A02000333D9
S325000120E00400000000000000000000000000000000000000000000000000000000000000D5
S3250001210000200190032004B0064009600C80000042480000424800004248000041700000A6
S32500012120406800003200FFB0FFC4FFD8FFEC00000032006400A000800080008000800080D4
S325000121400080008000800000040007800B800F80130000000D001980268033004000000081
S3250001216001000C801900258032004B006400019A3DCCCCCD3B03126F3F80000003E8000086
S32500012180400000004409800043C800003F80000041C800003605FFFD3605FFFD420C13B9D0
S325000121A0420C13B9187C04C8390BCF630003000043B18B853585FFFF41A0000042480000FE
S325000121C03D23080038FC880238FC88023D3F90003CDA500338BFF00038BFF0003C875000BE
S325000121E038F99004452895023585FFFF00000066020006000C001F56FB00000003200A0040
S325000122001680433340003E1437AE3333032005A0002000100AF000F000F000F000F000F02C
S3250001222000F000F000F000F000F00AF00AF000000230023002300230023002300230023063
S325000122400230023000000000000000A00190023002D00370041004B0055005F0069007308C
S3250001226007D008700910096040003FE03FA03F603F203EE03E803E403DE03D803D203CC0BD
S325000122803C603C003B803B600000293C2E7912000E80000000000C801900258032003E8023
S325000122A0000005001900258032003E804B0000A005A0008000400AF00AF00640057804B0A9
S325000122C003E803200280028002800280028002800280028002800AF000000000096009608B
S325000122E0096009600960096009600960096009600960096009600960000000040007000AD6
S32500012300000C000E00670041002F0028002300003F995012405507FB408A1BD83F995012B2
S32500012320405507FB408A1BD800000000000000000000000000000000000000000000000042
S3250001234000000000FE41FABBF766F478F1DBEF82ED64EB7BE9C1E82CE6B9E562E426E30331
S32500012360E1F5E0F9E004DF0F0000FC13FA5BF90BF7F1F6F9F61CF550F492F3DFF336F29537
S32500012380F1FCF169EEBCEAB0E7D8E5E9E482E378E2B3E222E1BAE16DE137E113E111E303F7
S325000123A0E1F5E0F9E004DF0F0000F804F3E8F0DFEE59EC24EA2DE85FE6B2E51EE3A0E23703
S325000123C0E0DFDF94DDD1DB91D9CED886D78FD6D3D645D5DCD58ED555D52CD6F2DFC4E303EB
S325000123E0E1F5E0F9E004DF0F0000F5F2ED8DE7BAE30EDF0BDB81D847D54AD27ECFDACD5CBC
S32500012400CAFDC8B6C6A0C50BC3E6C30BC263C1E2C17FC135C225C7ADCE5AD633DFC4E303B0
S32500012420E1F5E0F9E004DF0F0000F5F2EC0EE242DACDD4A0CF4ACA7BC60EC1F1BE14BA7212
S32500012440B6FEB3B2B179B042AF60AF00B0B5B439B835BCB9C1DCC7ADCE5AD633DFC4E30303
S32500012460E1F5E0F9E004DF0F0000F5F2EC0EE242DACDCDD0C2FBBAEEB4B9AFF2AC5CA9E186
S32500012480A7F9A714A7D8A935AB19ADA6B0B5B439B835BCB9C1DCC7ADCE5AD633DFC4E303E7
S325000124A0E1F5E0F9E004DF0F3AE03AC03A0039403870378036B03AE03AC03A003940387019
S325000124C0378036B03AE03AC03A0039403870378036B03AE03AC03A0039403870378036B040
S325000124E03AE03AC03A0039403870378036B03AE03AC03A0039403870378036B03AE03AC0A9
S325000125003A0039403870378036B03AE03AC03A0039403870378036B03AE03AC03A003940E9
S325000125203870378036B03AE03AC03A0039403870378036B03AE03AC03A003940387037801D
S3250001254036B03AE03AC03A0039403870378036B03A8B125C3D4CCCCD3F7F5B8040FFB7FEA0
S32500012560C0FFA36E39A6E2D53A1D49523F7FADB13F91E8A3BF91BF7B3C0261363B656042E4
S325000125803F7F9922403FE647C03FCC8EC000000000000000C0400000C0800000050014009D
S325000125A0320000000064012C065B000000000028018003803DCCCCCD00001388412800001E
S325000125C00000006441F0000041200000424800003F80000040000000020019001900190028
S325000125E00600060006000000002000400060008000E0003B003B003B003B003B003B003907
S325000126000039003913331333133300000004000800200040008001400000006600CD0133DB
S32500012620019A026602CD0333039A040000000019006100D30161029F032D039F03E70400DA
S3250001264000000100028000003DCCCCCD3DCCCCCD3D0277FF002300640000088B0954110D62
S325000126601966293C20222022200315C20E7E0000000001400280032003C0046005500612EB
S3250001268006900780293C14F20C99092A063803FE014F0000000000000600068007000800A9
S325000126A00900097A09FA0A460AC60CC6293B293B293B293B293B04E8019200C90000000056
S325000126C00600062006A007A0087A097A09C60A460AC60CC6293B1A2E13A20F0D07DA04E86A
S325000126E0019200C900000000000006E0083111F41944293C1F561F561D8E13300D84000028
S32500012700000006170768112B187B28731F561F561D8E13300D84000001000000E100E10090
S32500012720E100E100E100E100E100E100E100E100E100E100E100E100E100E100E1000CE077
S325000127400CE00CE00CE00CE00CE00CE00CE00CE00CE00CE00CE00CE00CE00CE00CE00CE0B2
S325000127600CE0000040400000418800003D23D70A000001000C801900258032004B006400B0
S325000127803E99999A00CD00CD00CD00CD00CD00CD00CD00CD00CD00CD0000010005000C8094
S325000127A01900258032004B0064007C80010000003F8000003E19999A40008000000040002D
S325000127C000000200040006000A0000000200040006000A00000002800F00190028003700BD
S325000127E0BF6C57D1BD272FBA3F99D7EDC0006CCE3F573893BF99606B3E85CAB0403BA9B087
S32500012800C0AAEE33401E3BD6BF6C57D1BD272FBA3F99D7EDC0006CCE3F573893BF99606B7D
S325000128203E85CAB0403BA9B0C0AAEE33401E3BD64000400040004000400040004000400086
S32500012840400040004000400040004000400040004000400040004000400040004000400071
S32500012860400040004000400040004000400040004000400040004000400040004000400051
S32500012880400040004000400040004000400040004000400040004000400040004000400031
S325000128A0400040004000400000000000000000000000000000000000000000000000000011
S325000128C00000000000004000400040004000400040004000400040004000400040004000B1
S325000128E0400040000000000000000000000000000000000000000000400040004000400051
S325000129004000400040004000400040004000400040004000400040004000400040004000B0
S32500012920010000050005022600DC006E0000022600DC006E000000350035002900150015E4
S325000129400027002700270027000D00440044004400443FEB004E004E004E004E3FEB005DCE
S32500012960005D005D005D3FEB00870087008700873FEB00E200E20113023003FC011A011A8A
S32500012980011A011A046B00000000000000000000000000000000000000000526052608C16C
S325000129A0208B208B0D2C0D2C0D2C0D2C2C550C460C4616136399639913B413B413B413B474
S325000129C0B156FFD80014005F006900760000004C005000540058005C0060006401B401B4EE
S325000129E001A7019A013F00E7008E00350000002000A001900320064000000020007000B0A9
S32500012A0001900640000000CD00CD00F601EC05E10000010005000C8014001E00019A01C352
S32500012A2001C302660400099A019A01C301C302660400099A019A01C301C302660400099A58
S32500012A40019A01C301C302660400099A019A01C301C302660400099A019A01C301C3026680
S32500012A600400099A001200080008000800080008C800C800C800C800C800C800C5898000F0
S32500012A804589800000000800080008000800080008000800080008000800080001400150F7
S32500012AA0016001700180019001A001B001C001D001E00000FFFFFFFF000008C0078000001B
S32500012AC00C80190020802580202220222022202220220000019A01CC01DC01F7020F022E3D
S32500012AE00249026B028902A502C602E20301031D0338040004C807800A0000000000000673
S32500012B000008000E00150021002E0041005400690084009D00BB00DA00F902140396096768
S32500012B20101E0000010005000C801900258032004B0064007C800000010005000C80190088
S32500012B40258032004B0064007C807D007D808CCD8CCD8CCD8CCD8CCD8CCD8CCD8CCD8CCD51
S32500012B608CCD8CCD8CCD00000000000000000000000000000000000000000000000003330D
S32500012B8000000000000000000000000000000000000000000000000000000000000000002E
S32500012BA000000000000000000000000000000000000000000000000000000000000000000E
S32500012BC0000000000000CE00DA80F380F9C0FD800000028005000C801E002580D74CFC0028
S32500012BE004000E661000126618003000500068006D9AE7BFFC0004000E661000126618000D
S32500012C003000500068006D9AFA9EFC00FFD901E708000C00140020003000459A5000FB3296
S32500012C20FC0000B4019A02660800140020003000459A4800FBD9FC0000CD00CD00CD04000C
S32500012C40140020003000459A4800FB59FC3400CD00CD00CD0400140020003000459A480068
S32500012C60FCD1FCE800CD00CD00CD04CD140020003000459A4800FCD1FCE800CD00CD00CDC1
S32500012C8004CD140020003000459A4800FCD1FCE800CD00CD00CD04CD140020003000459AA5
S32500012CA04800FCD1FCE800CD00CD00CD04CD140020003000459A4800FCD1FCE800CD00CD06
S32500012CC000CD04CD140020003000459A4800FCD1FCE800CD00CD00CD04CD14002000300077
S32500012CE0459A4800001A001A001A0031007300E1023B044306F108CD08CD001A001A001A60
S32500012D000031007300E1023B044306F108CD08CD001A001A001A0031007300E1023B0443AB
S32500012D2006F108CD08CD001A001A001A0031007300E1023B044306F108CD08CD001A001ABF
S32500012D40001A0031007300E1023B044306F108CD08CD001A001A001A0031007300E1023B98
S32500012D60044306F108CD08CD001A001A001A0031007300E1023B044306F108CD08CD001A52
S32500012D80001A001A0031007300E1023B044306F108CD08CD001A001A001A0031007300E17B
S32500012DA0023B044306F108CD08CD001A001A001A0031007300E1023B044306F108CD08CDEF
S32500012DC0001A001A001A0031007300E1023B044306F108CD08CD001A001A001A0031007302
S32500012DE000E1023B044306F108CD08CD1000100008000333019A019A080008000800080012
S32500012E0008001000100008000333019A019A08000800080008000800100010000800033389
S32500012E20019A019A080008000800080008001000100008000333013301330400040004005B
S32500012E400400040000140014001400CD00CD00A40014001400140014001400140014001449
S32500012E6000CD00CD00A40014001400140014001400140014001400CD00CD00A40014001407
S32500012E8000140014001400140014001400CD00CD00A4001400140014001400143F80000052
S32500012EA041300000401EB852429600003F000000000007D0437A00004220000040E0000005
S32500012EC03F19999A3E19999A3D147AE13F0000003F0000003FC00000427000003FA000001C
S32500012EE03F8000003F0000003FC000004170000041700000407000000000006440A0000078
S32500012F0041680000401F5C293F8000003F3333334030A3D73E4CCCCD00000F001E002D001F
S32500012F2000001000400040003A83126F400000003DCCCCCD3F6147AEBF2147AE3E99999A66
S32500012F403F4CCCCD000000004120000041F0000040E000004020000000000000402BEDFAE2
S32500012F6040099B3D4008D0143FEE76C9C0A00000C00000004000000040A000000000000051
S32500012F8000000000000000003F800000000000013E1E920C4028EF3540AE17C840A9EE8DB3
S32500012FA0C0A9489BC05228AEBFAD82D43DF5E84FBBA38B8B402233D340B931A3408248C533
S32500012FC0C0A258B0C0294DE4BDC47DC33F0F9D3DBE732096400E3F9640CF84274087BEFB39
S32500012FE0C03CFBC6C066440B3F4EBF553F0568C7BF1FEDB74016042140E0A5354094EAB31C
S32500013000C09D2F9BC00B35F4400C9DBB3F82BD013DCCCCCD4120000041A000003F00000048
S3250001302042C800003F800000418800003D23D70ABF80000042C8000000000000000000006D
S32500013040000000000000000000000000000000003F800000000000000000000000000000AA
S3250001306000000000000020003000400000000000000040000000002600260033004000407A
S325000130800040004000000052005200CD01EC01EC01EC01EC40004000400040004000400004
S325000130A0400040003F539347C1517102350E00CF3DB38A1CC156D8253AEF37633F7C658178
S325000130C02F42CCEC3946CC69BC62EA913E2FAC8241516E443F7F7C66BE3FC9F24156E2398A
S325000130E0B60F3CB6B96A22AF36790F4EB584C91FB9E9B3B0386D31483D74CFA8AC76017013
S3250001310036C166103F7FED8CB408BA67B75DC04D345277A53A8310E3B7D8915F3AD346FEE4
S325000131203D87576C344D0270391E98DD3E0479483B026E963B025CCD3B0248ECB928E1ADB8
S3250001314038F414CB3936F63B3C5EA9EF3B02B0523F7FBBF33C6A97993E99999A404CCCCDDB
S325000131603F0000003F3333334248000040C0000042AA000007800780078007800780078091
S3250001318041700000EC00EE80F100F600FB00000005000A000F0014001900100010001000C0
S325000131A01000100010001000100010001000100000040000417000000000006500E80189FC
S325000131C0024A032704250545067F07D50948000100640000010005000C8019002580320066
S325000131E04B0064007C807D007D800000385258273ECA4796000010002000300040005000C5
S325000132006000700080009000000000000000000000000000000000000000000003ED24A70C
S325000132200100010000000000004E00B300E601000100010001000100010001000000000097
S32500013240000000000000000000000000000000000000000000000000000000000000000067
S32500013260000000000000000000000000000000000000000000000000000000000000000047
S32500013280000000000000000000000000000000000000000000800080008000800080008027
S325000132A0008000800080008000800080008000800080008000800080008000800080008007
S325000132C000800080000000000000000D50670C8D0F0050672070003001000400000002807D
S325000132E005000A000000028005000A00000000002580258000000100002000A0014001E0FA
S32500013300002000A0014001E0002000A0014001E0002000A0014001E0066633334CCD800095
S32500013320066633334CCD8000066633334CCD8000066633334CCD80000000028F0000028F23
S325000133400000028F0000028F0000028F0000028F0000028F0000028F1B8001E0000001E0A3
S32500013360000001E0000001E00000001A001A001A03000300001A001A001A030003000000DC
S32500013380000000000000000000000000000000000000000044B4038500640000405380022D
S325000133A0035A01B600F200F0028002B40302035C776D000000CD019A026603330400000086
S325000133C00000000000000000000010001000100010001000100010001000000000CD019AFE
S325000133E002000333040000000000000000000000000000000000000000000000000000008A
S325000134000000000000200190032004B0064009600C80000042480000424800004248000044
S3250001342041700000406800003200FFB0FFC4FFD8FFEC00000032006400A000800080008010
S32500013440008000800080008000800000040007800B800F80130000000D00198026803300AE
S325000134604000000001000C801900258032004B006400019A3DCCCCCD3B03126F3F8000001E
S3250001348003E80000400000004401C00043DC00003F80000041C800003605FFFF3605FFFF9C
S325000134A0420C13B8420C13B8187C04C838B50C8D0002000043A3999A3585FFFF41A0000039
S325000134C0424800003D16380039006400390064003D6BE8003CBF600038BA380038BA380057
S325000134E03CA6800038FDC0004561FD003585FFFF00000066020006000C00199FFB000000E6
S3250001350003200A001680451F40003AE133D72CCD02D00550001B000809C409C409C400F07E
S3250001352000F000F000F000F000F000F000F000F009C400000000000002000200020002002F
S32500013540020002000200020002000000000000A00190023002D00370041004B0055005F0A0
S325000135600690073007D008700910096040003FE03F603F203EA03E403DC03D403CC03C201B
S325000135803B803AE03A4039A038E0388000002C8231BE12000E80000000000C8019002580A5
S325000135A032003E80000005001900258032003E804B0000A003C0005C003809C409C404D8A9
S325000135C0046003E8037002F802800230023002300230023002300230023009C40000000049
S325000135E0091009100910091009100910091009100910091009100910091009100000000462
S325000136000007000A000C000E00670041002F0028002300003F994EE44055065B408A1ACEA4
S325000136203F994EE44055065B408A1ACE0000000000000000000000000000000000000000D1
S3250001364000000000000000000000FF68FC52F965F6C9F470F252F069EEAFED1AEBA6EA4F22
S32500013660E912E7EFE6E1E5E4E4EFE3FA0000FC83FAF6F9C8F8CAF7ECF725F66EF5C3F5220E
S32500013680F48BF3FBF371F2EEF26FF164EDB6EB1FE947E7EDE6E8E625E593E523E4CEE48E8E
S325000136A0E483E7EFE6E1E5E4E4EFE3FA0000F938F566F2A0F056EE57EC90EAF0E96DE80148
S325000136C0E6AAE564E42EE305E1E7E0D2DEE3DD59DC2DDB47DA95DA0CD9A4D953D915DA3678
S325000136E0E0BDE7EFE6E1E5E4E4EFE3FA0000F87EF0F2EB54E6F4E33DDFFDDD0ADA50D7C4F7
S32500013700D55ED31BD0F5CEE6CCEBCB03C9A4C8A6C7E0C745C6CBC6A0CA1FCE9DD3B8D99FA7
S32500013720E0BDE7EFE6E1E5E4E4EFE3FA0000F87EF0D8E91DE18BDB8CD67CD1F8CDDACA0A22
S32500013740C679C321BFF7BCF1BA0DB81DB8B2BA98BCE3BF91C2A4C623CA1FCE9DD3B8D99FEF
S32500013760E0BDE7EFE6E1E5E4E4EFE3FA0000F87EF0D8E91DE18BDB1AD195CA76C4F9C0B413
S32500013780BD6CBAE0B8E2B77AB6A2B740B8B2BA98BCE3BF91C2A4C623CA1FCE9DD3B8D99FF4
S325000137A0E0BDE7EFE6E1E5E4E4EFE3FA3AE03AC039703860371035A034303AE03AC03970BD
S325000137C03860371035A034303AE03AC039703860371035A034303AE03AC039703860371059
S325000137E035A034303AE03AC039703860371035A034303AE03AC039703860371035A03430DF
S325000138003AE03AC039703860371035A034303AE03AC039703860371035A034303AE03AC0E3
S3250001382039703860371035A034303AE03AC039703860371035A034303AE03AC03970386096
S32500013840371035A034303AE03AC039703860371035A034303A8B125C3D4CCCCD3F7F5B801E
S3250001386040FFB7FEC0FFA36E39A6E2D53A1D49523F7FADB13F91E8A3BF91BF7B3C0261361F
S325000138803B6560423F7F9922403FE647C03FCC8EC000000000000000C0400000C080000061
S325000138A005001400320000000064012C065B000000000028018003803DCCCCCD000013885B
S325000138C0412800000000006441F0000041200000424800003F80000040000000028017C0A0
S325000138E017C017C00600060006000000002000400060008000E0003B003B003B003B003BBA
S32500013900003B00390039003913331333133300000004000800200040008001400000006655
S3250001392000CD0133019A026602CD0333039A040000000019006100D30161029F032D039FB4
S3250001394003E7040000000100028000003DCCCCCD3DCCCCCD3CE880000025006400000893E3
S325000139600ACD12F01C472C8219AB19AB17DB113D0AEA0000000001400280032003C004608D
S32500013980055005A0064007802C8214F20BC8082E053C02F2000000000000000006000680DB
S325000139A0070008000900097A09FA0A5D0ADD0CDD2C812C812C812C812C81082E073303CB8C
S325000139C0029E00000600062006A007A0087A097A09DD0A5D0ADD0CDD2C8120B914F1108684
S325000139E00A78082E04F903CB029E0000000008930ACD12F01C472C8219AB19AB17DB113D50
S32500013A000AEA0000000004C807020F25187C28B719AB19AB17DB113D0AEA00000100000072
S32500013A20E100E100E100E100E100E100E100E100E100E100E100E100E100E100E100E1006F
S32500013A40E1000DC00DC00DC00DC00DC00DC00DC00DC00DC00DC00DC00DC00DC00DC00DC07B
S32500013A600DC00DC00DC0000040400000418800003D23D70A000001000C80190025803200D1
S32500013A804B0064003E99999A00CD00CD00CD00CD00CD00CD00CD00CD00CD00CD0000010063
S32500013AA005000C801900258032004B0064007C80010000003F8000003E19999A40008000C9
S32500013AC0000040000000008001000180020000000080010001800200000002800F001900ED
S32500013AE028003700BF6C57D1BD272FBA3F99D7EDC0006CCE3F573893BF550001BDFFA001D7
S32500013B00404EA701C0B2E77F4019EAFFBF6C57D1BD272FBA3F99D7EDC0006CCE3F57389337
S32500013B20BF550001BDFFA001404EA701C0B2E77F4019EAFF4000400040004000400040003C
S32500013B4040004000400040004000400040004000400040004000400040004000400040005E
S32500013B6040004000400040004000400040004000400040004000400040004000400040003E
S32500013B8040004000400040004000400040004000400040004000400040004000400040001E
S32500013BA040004000400040004000400000000000000000000000000000000000000000007E
S32500013BC04000400040004000400040004000400040004000400040004000400040004000DE
S32500013BE040004000400040000000000000000000000000000000000000000000400040003E
S32500013C0040000000000040004000400040004000400040004000400040004000400040001D
S32500013C204000400001000005000501BC00B20059000001BC00B200590000008100810081DF
S32500013C4000290015007D007D007D0028002800280028002800390039002A002A002A0042AE
S32500013C600042003D003D003D004E004E003E003E003E0071007100830083008300E701D6C5
S32500013C8000CC00CC00CC00ED00ED00000000000000000000000000000000000000000118C6
S32500013CA001180118075B1B580118011801180B120B1201B501B501B5128C53B201B501B540
S32500013CC001B5108E108EFFD8003C0050005F00690000004C005000540058005C0060006458
S32500013CE001BC01BC01AF01A20158011100C900810000002000A00190032006400000002061
S32500013D00007000B001900640000000CD00CD00F601EC05E10000010005000C8014001E007E
S32500013D20019A01C301C302660400099A019A01C301C302660400099A019A01C301C302668D
S32500013D400400099A019A01C301C302660400099A019A01C301C302660400099A019A01C3F2
S32500013D6001C302660400099A001200080008000800080008C800C800C800C800C800C8007F
S32500013D80C589800045898000000008000800080008000800080008000800080008000800A8
S32500013DA001400150016001700180019001A001B001C001D001E0000000002FB0000008C01A
S32500013DC0078000000C801900208025801ABC1ABC1ABC1ABC1ABC0000019A01CC01DC01F700
S32500013DE0020F022E0249026B028902A502C602E20301031D0338040004C807800A00000025
S32500013E00000000060008000E00150021002E0041005400690084009D00BB00DA00F9021458
S32500013E2003960967101E0000010005000C801900258032004B0064007C8000000100050011
S32500013E400C801900258032004B0064007C807D007D808CCD8CCD8CCD8CCD8CCD8CCD8CCD4B
S32500013E608CCD8CCD8CCD8CCD8CCD000000000000000000000000000000000000000000007E
S32500013E800000033300000000000000000000000000000000000000000000000000000000E5
S32500013EA00000000000000000000000000000000000000000000000000000000000000000FB
S32500013EC000000000000000000000CE00DA80F380F9C0FD800000028005000C801E00258034
S32500013EE0D74CFC0004000E661000126618003000500068006D9AE7BFFC0004000E6610006B
S32500013F00126618003000500068006D9AFA9EFC00FFD901E708000C00140020003000459A70
S32500013F205000FB32FC0000B4019A02660800140020003000459A4800FBD9FC0000CD00CD4D
S32500013F4000CD0400140020003000459A4800FB59FC3400CD00CD00CD0400140020003000AB
S32500013F60459A4800FCD1FCE800CD00CD00CD04CD140020003000459A4800FCD1FCE800CD21
S32500013F8000CD00CD04CD140020003000459A4800FCD1FCE800CD00CD00CD04CD1400200007
S32500013FA03000459A4800FCD1FCE800CD00CD00CD04CD140020003000459A4800FCD1FCE87E
S32500013FC000CD00CD00CD04CD140020003000459A4800FCD1FCE800CD00CD00CD04CD14001A
S32500013FE020003000459A4800001A001A001A0031007300E1023B044306F108CD08CD001A31
S32500014000001A001A0031007300E1023B044306F108CD08CD001A001A001A0031007300E1E8
S32500014020023B044306F108CD08CD001A001A001A0031007300E1023B044306F108CD08CD5C
S32500014040001A001A001A0031007300E1023B044306F108CD08CD001A001A001A003100736F
S3250001406000E1023B044306F108CD08CD001A001A001A0031007300E1023B044306F108CD10
S3250001408008CD001A001A001A0031007300E1023B044306F108CD08CD001A001A001A0031CD
S325000140A0007300E1023B044306F108CD08CD001A001A001A0031007300E1023B044306F132
S325000140C008CD08CD001A001A001A0031007300E1023B044306F108CD08CD001A001A001AE9
S325000140E00031007300E1023B044306F108CD08CD1000100008000333019A019A080008006B
S325000141000800080008001000100008000333019A019A0800080008000800080010001000A4
S3250001412008000333019A019A08000800080008000800100010000800033301330133040012
S32500014140040004000400040000140014001400CD00CD00A400140014001400140014001456
S325000141600014001400CD00CD00A40014001400140014001400140014001400CD00CD00A4F4
S325000141800014001400140014001400140014001400CD00CD00A400140014001400140014D6
S325000141A03F80000041300000401EB852429600003F000000000007D0437A00004220000053
S325000141C040E000003F19999A3E19999A3D147AE13F0000003F0000003FC0000042700000C8
S325000141E03FA000003F8000003F0000003FC000004170000041700000407000000000006466
S3250001420040A0000041680000401F5C293F8000003F3333334030A3D73E4CCCCD00000F0077
S325000142201E002D0000001000400040003A83126F400000003DCCCCCD3F6147AEBF2147AE12
S325000142403E99999A3F4CCCCD000000004120000041F0000040E00000402000000000000017
S32500014260402BEDFA40099B3D4008D0143FEE76C9C0A00000C00000004000000040A00000EC
S325000142800000000000000000000000003F800000000000013E1E920C4028EF3540AE17C804
S325000142A040A9EE8DC0A9489BC05228AEBFAD82D43DF5E84FBBA38B8B402233D340B931A38B
S325000142C0408248C5C0A258B0C0294DE4BDC47DC33F0F9D3DBE732096400E3F9640CF8427D7
S325000142E04087BEFBC03CFBC6C066440B3F4EBF553F0568C7BF1FEDB74016042140E0A535FA
S325000143004094EAB3C09D2F9BC00B35F4400C9DBB3F82BD013DCCCCCD4120000041A0000003
S325000143203F00000042C800003F800000418800003D23D70ABF80000042C80000000000001B
S3250001434000000000000000000000000000000000000000003F800000000000000000000097
S325000143600000000000000000000020003000400000000000000040000000002600260033E7
S32500014380004000400040004000000052005200CD01EC01EC01EC01EC4000400040004000F1
S325000143A040004000400040003F539347C1517102350E00CF3DB38A1CC156D8253AEF376386
S325000143C03F7C65812F42CCEC3946CC69BC62EA913E2FAC8241516E443F7F7C66BE3FC9F288
S325000143E04156E239B60F3CB6B96A22AF36790F4EB584C91FB9E9B3B0386D31483D74CFA8E1
S32500014400AC76017036C166103F7FED8CB408BA67B75DC04D345277A53A8310E3B7D8915F8F
S325000144203AD346FE3D87576C344D0270391E98DD3E0479483B026E963B025CCD3B0248ECC3
S32500014440B928E1AD38F414CB3936F63B3C5EA9EF3B02B0523F7FBBF33C6A97993E99999A7E
S32500014460401333333F0000003F3333334248000040C0000042D200000780078007800780AB
S325000144800780078041700000EC00EE80F100F600FB00000005000A000F00140019001000BF
S325000144A010001000100010001000100010001000100010000004000041700000000000653B
S325000144C000E80189024A032704250545067F07D50948000100640000010005000C801900B8
S325000144E0258032004B0064007C807D007D800000385258273ECA479600001000200030006B
S32500014500400050006000700080009000000000000000000000000000000000000000000024
S3250001452003ED24A70100010000000000004E00B300E60100010001000100010001000100C9
S32500014540000000000000000000000000000000000000000000000000000000000000000054
S32500014560000000000000000000000000000000000000000000000000000000000000000034
S32500014580000000000000000000000000000000000000000000000000008000800080008014
S325000145A00080008000800080008000800080008000800080008000800080008000800080F4
S325000145C00080008000800080000000000000000D50670C8D0F0050672070003001000400EC
S325000145E00000028005000A000000028005000A00000000002580258000000100002000A087
S32500014600014001E0002000A0014001E0002000A0014001E0002000A0014001E006663333F9
S325000146204CCD8000066633334CCD8000066633334CCD8000066633334CCD80000000028F08
S325000146400000028F0000028F0000028F0000028F0000028F0000028F0000028F1B8001E0E0
S32500014660000001E0000001E0000001E00000001A001A001A03000300001A001A001A0300EB
S3250001468003000000000000000000000000000000000000000000000044B4038500960000FA
S325000146A040828F5C0416032E020800F3027402B602F8037B776D000000CD019A026603336E
S325000146C004000000000000000000000000001000100010001000100010001000100000004F
S325000146E000CD019A020003330400000000000000000000000000000000000000000000000F
S32500014700000000000000000000200190032004B0064009600C8000004248000042480000BB
S325000147204248000041700000406800003200FFB0FFC4FFD8FFEC00000032006400A0008073
S3250001474000800080008000800080008000800000040007800B800F80130000000D00198074
S32500014760268033004000000001000C801900258032004B006400019A3DCCCCCD3B03126FF1
S325000147803F80000003E80000400000004401C00043DC00003F80000041C800003605FFFF03
S325000147A03605FFFF420C13B8420C13B8187C04C8390BCF650003000043B18B853585FFFFF0
S325000147C041A00000424800003D23080038FC880038FC88003D3F90003CDA500038BFF0002E
S325000147E038BFF0003C87500038F99000452895003585FFFF00000066020006000C001F564E
S32500014800FB00014003200A000F40433340003E1437AE3333032005A0002000100AF000F0A4
S3250001482000F000F000F000F000F000F000F000F000F00AF00AF00000023002300230023045
S3250001484002300230023002300230023000000000000000A00190023002D00370041004B0B5
S32500014860055005F00690073007D008700910096040003FE03FA03F603F203EE03E803E40B3
S325000148803DE03D803D203CC03C603C003B803B60000028952DD112000E80000000000C80C9
S325000148A01900258032003E80000005001900258032003E804B0000A005A0008000400AF046
S325000148C00AF00640057804B003E803200280028002800280028002800280028002800AF0C6
S325000148E00000000009600960096009600960096009600960096009600960096009600960F3
S32500014900000000040007000A000C000E00670041002F0028002300003F994EE44055065B3F
S32500014920408A1ACE3F994EE44055065B408A1ACE000000000000000000000000000000000C
S32500014940000000000000000000000000FE41FABBF766F478F1DBEF82ED64EB7BE9C1E82CE1
S32500014960E6B9E562E426E303E1F5E0F9E004DF0F0000FC13FA5BF90BF7F1F6F9F61CF55043
S32500014980F492F3DFF336F295F1FCF169EEBCEAB0E7D8E5E9E482E378E2B3E222E1BAE16DAD
S325000149A0E137E113E111E303E1F5E0F9E004DF0F0000F804F3E8F0DFEE59EC24EA2DE85F30
S325000149C0E6B2E51EE3A0E237E0DFDF94DDD1DB91D9CED886D78FD6D3D645D5DCD58ED555E0
S325000149E0D52CD6F2DFC4E303E1F5E0F9E004DF0F0000F5F2ED8DE7BAE30EDF0BDB81D84785
S32500014A00D54AD27ECFDACD5CCAFDC8B6C6A0C50BC3E6C30BC263C1E2C17FC135C225C7AD03
S32500014A20CE5AD633DFC4E303E1F5E0F9E004DF0F0000F5F2EC0EE242DACDD4A0CF4ACA7BB6
S32500014A40C60EC1F1BE14BA72B6FEB3B2B179B042AF60AF00B0B5B439B835BCB9C1DCC7AD13
S32500014A60CE5AD633DFC4E303E1F5E0F9E004DF0F0000F5F2EC0EE242DACDCDD0C2FBBAEE46
S32500014A80B4B9AFF2AC5CA9E1A7F9A714A7D8A935AB19ADA6B0B5B439B835BCB9C1DCC7ADDB
S32500014AA0CE5AD633DFC4E303E1F5E0F9E004DF0F3AE03AC03A0039403870378036B03AE08E
S32500014AC03AC03A0039403870378036B03AE03AC03A0039403870378036B03AE03AC03A0083
S32500014AE039403870378036B03AE03AC03A0039403870378036B03AE03AC03A003940387076
S32500014B00378036B03AE03AC03A0039403870378036B03AE03AC03A0039403870378036B0D9
S32500014B203AE03AC03A0039403870378036B03AE03AC03A0039403870378036B03AE03AC042
S32500014B403A0039403870378036B03AE03AC03A0039403870378036B03AD09B863CDD2F1BBC
S32500014B603F7F5B803F4CDD43BF4C38C339A6E2D53A1D49523F7FADB13F91E8A3BF91BF7B5B
S32500014B803B509B8A3B449BA63F7F9922403FE647C03FCC8EC0000000C0400000C0A0000000
S32500014BA0C040000005001400320000000064012C065B000000000028018003803DCCCCCDE3
S32500014BC000001388412800000000006441F0000041200000424800003F800000400000004B
S32500014BE002801900190019000600060006000000002000400060008000E0003B003B003BFE
S32500014C00003B003B003B003900390039133313331333000000040008002000400080014032
S32500014C200000006600CD0133019A026602CD0333039A040000000019006100D30161029F0D
S32500014C40032D039F03E7040000000100028000003DCCCCCD3DCCCCCD3D0277FF002300648A
S32500014C60000007C20954110519662895204E20221E6715590EE80000000001400280032036
S32500014C8003C004600550061206900780293C14F20C99092A063803FE014F0000000000008A
S32500014CA006000680070008000900097A09FA0A460AC60CC6289428942894289428940441E0
S32500014CC000EA00C9000000000600062006A007A0087A097A09C60A460AC60CC62894198680
S32500014CE012FA0E660733044100EA00C900000000000006E0083111F4194428951F561F56D3
S32500014D001D8E13300D840000000006170768112B187B27CC1F561F561D8E13300D84000056
S32500014D2001000000E100E100E100E100E100E100E100E100E100E100E100E100E100E1001D
S32500014D40E100E100E1000DC00DC00DC00DC00DC00DC00DC00DC00DC00DC00DC00DC00DC040
S32500014D600DC00DC00DC00DC00DC0000040400000418800003D23D70A000001000C801900FB
S32500014D80258032004B0064003E99999A00CD00CD00CD00CD00CD00CD00CD00CD00CD00CD7A
S32500014DA00000010005000C801900258032004B0064007C80010000003F8000003E19999A75
S32500014DC0400080000000400000000080010001800200000000800100018002000000028042
S32500014DE00F00190028003700BF6C57D1BD272FBA3F99D7EDC0006CCE3F573893BF550001F9
S32500014E00BDFFA001404EA701C0B2E77F4019EAFFBF6C57D1BD272FBA3F99D7EDC0006CCE28
S32500014E203F573893BF550001BDFFA001404EA701C0B2E77F4019EAFF400040004000400048
S32500014E4040004000400040004000400040004000400040004000400040004000400040004B
S32500014E6040004000400040004000400040004000400040004000400040004000400040002B
S32500014E8040004000400040004000400040004000400040004000400040004000400040000B
S32500014EA04000400040004000400040004000400000000000000000000000000000000000EB
S32500014EC000000000400040004000400040004000400040004000400040004000400040004B
S32500014EE040004000400040004000400000000000000000000000000000000000000000002B
S32500014F0040004000400040004000400040004000400040004000400040004000400040008A
S32500014F20400040004000400001000005000501FD00CC0066000001FD00CC0066000000AB54
S32500014F4000AB009B0034001F00A700A700960020001500280028002800290028002C002C77
S32500014F60002C002C002D00390039003C003C004A0046004600560056005F0094009400A909
S32500014F8000CC01B500A200A200B100ED02250000000000000000000000000000000000007F
S32500014FA00000014F014F014F06D514EB014F014F014F0B11253F0164016401B5108E35B4A9
S32500014FC00164016401B5253F53AEFFEC003C0050005F00690000004C005000540058005C02
S32500014FE00060006402050205020802040194012700B9004C0000002000A00190032006404C
S3250001500000000020007000B001900640000000CD00CD00F601EC05E10000010005000C807D
S3250001502014001E00019A01C301C302660400099A019A01C301C302660400099A019A01C374
S3250001504001C302660400099A019A01C301C302660400099A019A01C301C302660400099A12
S32500015060019A01C301C302660400099A001200080008000800080008C800C800C800C8009D
S32500015080C800C800C589800045898000000008000800080008000800080008000800080015
S325000150A00800080001400150016001700180019001A001B001C001D001E0000000002FB1BE
S325000150C0000008C0078000000C80190020802580202220222022202220220000019A01CCDE
S325000150E001DC01F7020F022E0249026B028902A502C602E20301031D0338040004C8078047
S325000151000A000000000000060008000E00150021002E0041005400690084009D00BB00DA4A
S3250001512000F9021403960967101E0000010005000C801900258032004B0064007C800000F5
S32500015140010005000C801900258032004B0064007C807D007D808CCD8CCD8CCD8CCD8CCDE4
S325000151608CCD8CCD8CCD8CCD8CCD8CCD8CCD000000000000000000000000000000000000B9
S325000151800000000000000333000000000000000000000000000000000000000000000000D2
S325000151A00000000000000000000000000000000000000000000000000000000000000000E8
S325000151C00000000000000000000000000000CE00DA80F380F9C0FD800000028005000C80E4
S325000151E01E002580D74CFC0004000E661000126618003000500068006D9AE7BFFC00040019
S325000152000E661000126618003000500068006D9AFA9EFC00FFD901E708000C0014002000E8
S325000152203000459A5000FB32FC0000B4019A02660800140020003000459A4800FBD9FC00C5
S3250001524000CD00CD00CD0400140020003000459A4800FB59FC3400CD00CD00CD040014004E
S3250001526020003000459A4800FCD1FCE800CD00CD00CD04CD140020003000459A4800FCD16F
S32500015280FCE800CD00CD00CD04CD140020003000459A4800FCD1FCE800CD00CD00CD04CD77
S325000152A0140020003000459A4800FCD1FCE800CD00CD00CD04CD140020003000459A4800E8
S325000152C0FCD1FCE800CD00CD00CD04CD140020003000459A4800FCD1FCE800CD00CD00CD3B
S325000152E004CD140020003000459A4800001A001A001A0031007300E1023B044306F108CD28
S3250001530008CD001A001A001A0031007300E1023B044306F108CD08CD001A001A001A00313A
S32500015320007300E1023B044306F108CD08CD001A001A001A0031007300E1023B044306F19F
S3250001534008CD08CD001A001A001A0031007300E1023B044306F108CD08CD001A001A001A56
S325000153600031007300E1023B044306F108CD08CD001A001A001A0031007300E1023B044325
S3250001538006F108CD08CD001A001A001A0031007300E1023B044306F108CD08CD001A001A39
S325000153A0001A0031007300E1023B044306F108CD08CD001A001A001A0031007300E1023B12
S325000153C0044306F108CD08CD001A001A001A0031007300E1023B044306F108CD08CD001ACC
S325000153E0001A001A0031007300E1023B044306F108CD08CD1000100008000333019A019A34
S32500015400080008000800080008001000100008000333019A019A08000800080008000800A1
S325000154201000100008000333019A019A080008000800080008001000100008000333013317
S3250001544001330400040004000400040000140014001400CD00CD00A4001400140014001433
S32500015460001400140014001400CD00CD00A40014001400140014001400140014001400CD2A
S3250001548000CD00A40014001400140014001400140014001400CD00CD00A40014001400147A
S325000154A0001400143F80000041300000401EB852429600003F000000000007D0437A00007A
S325000154C04220000040E000003F19999A3E19999A3D147AE13F0000003F0000003FC0000005
S325000154E0427000003FA000003F8000003F0000003FC0000041700000417000004070000005
S325000155000000006440A0000041680000401F5C293F8000003F3333334030A3D73E4CCCCD0F
S3250001552000000F001E002D0000001000400040003A83126F400000003DCCCCCD3F6147AEC5
S32500015540BF2147AE3E99999A3F4CCCCD000000004120000041F0000040E00000402000002F
S3250001556000000000402BEDFA40099B3D4008D0143FEE76C9C0A00000C000000040000000B9
S3250001558040A000000000000000000000000000003F800000000000013E1E920C4028EF35DE
S325000155A040AE17C840A9EE8DC0A9489BC05228AEBFAD82D43DF5E84FBBA38B8B402233D378
S325000155C040B931A3408248C5C0A258B0C0294DE4BDC47DC33F0F9D3DBE732096400E3F96B1
S325000155E040CF84274087BEFBC03CFBC6C066440B3F4EBF553F0568C7BF1FEDB74016042127
S3250001560040E0A5354094EAB3C09D2F9BC00B35F4400C9DBB3F82BD013DCCCCCD41200000D7
S3250001562041A000003F00000042C800003F800000418800003D23D70ABF80000042C8000027
S325000156400000000000000000000000000000000000000000000000003F8000000000000084
S3250001566000000000000000000000000000002000300040000000000000004000000000262D
S3250001568000260033004000400040004000000052005200CD01EC01EC01EC01EC4000400005
S325000156A04000400040004000400040003F539347C1517102350E00CF3DB38A1CC156D825B6
S325000156C03AEF37633F7C65812F42CCEC3946CC69BC62EA913E2FAC8241516E443F7F7C666A
S325000156E0BE3FC9F24156E239B60F3CB6B96A22AF36790F4EB584C91FB9E9B3B0386D31483E
S325000157003D74CFA8AC76017036C166103F7FED8CB408BA67B75DC04D345277A53A8310E3D3
S32500015720B7D8915F3AD346FE3D87576C344D0270391E98DD3E0479483B026E963B025CCDA2
S325000157403B0248ECB928E1AD38F414CB3936F63B3C5EA9EF3B02B0523F7FBBF33C6A979904
S325000157603E99999A401333333F0000003F3333334248000040C0000042D20000078007809C
S32500015780078007800780078041700000EC00EE80F100F600FB00000005000A000F001400C7
S325000157A0190010001000100010001000100010001000100010001000000400004170000064
S325000157C00000006500E80189024A032704250545067F07D5094800010064000001000500E5
S325000157E00C801900258032004B0064007C807D007D800000385258273ECA47960000100003
S325000158002000300040005000600070008000900000000000000000000000000000000000C1
S325000158200000000003ED24A70100010000000000004E00B300E601000100010001000100B8
S3250001584001000100000000000000000000000000000000000000000000000000000000003F
S32500015860000000000000000000000000000000000000000000000000000000000000000021
S32500015880000000000000000000000000000000000000000000000000000000000080008001
S325000158A00080008000800080008000800080008000800080008000800080008000800080E1
S325000158C0008000800080008000800080000000000000000D50670C8D0F0050671E20003030
S325000158E0010004000000028005000A000000028005000A000000000025802580000001002F
S32500015900002000A0014001E0002000A0014001E0002000A0014001E0002000A0014001E0F8
S32500015920066633334CCD8000066633334CCD8000066633334CCD8000066633334CCD8000B4
S325000159400000028F0000028F0000028F0000028F0000028F0000028F0000028F0000028FB8
S32500015960192001E0000001E0000001E0000001E00000001A001A001A03000300001A001ADB
S32500015980001A030003000000000000000000000000000000000000000000000044B4038560
S325000159A00096000040828F5C0416032E020800F3027402B602F8037B776D000000CD019A63
S325000159C00266033304000000000000000000000000001000100010001000100010001000AE
S325000159E01000000000CD019A020003330400000000000000000000000000000000000000EC
S32500015A0000000000000000000000000000200190032004B0064009600C8000004248000032
S32500015A20424800004248000041700000406800003200FFB0FFC4FFD8FFEC000000320064F6
S32500015A4000A0008000800080008000800080008000800000040007800B800F8013000000E7
S32500015A600D001980268033004000000001000C801900258032004B006400019A3DCCCCCDF7
S32500015A803B03126F3F80000003E800004000000043F1000043C900003F80000041C800004E
S32500015AA03605FFFF3605FFFF420C13B8420C13B8187C04C8390BCF650003000043B18B855C
S32500015AC03585FFFF41A00000424800003D23080038FC880038FC88003D3F90003CDA50004A
S32500015AE038BFF00038BFF0003C87500038F99000452895003585FFFF0000006602000600D5
S32500015B000C001F56FB00014003200A000F40433340003E1437AE3333032005A000200010FA
S32500015B200AF000F000F000F000F000F000F000F000F000F000F00AF00AF0000002300230AC
S32500015B400230023002300230023002300230023000000000000000A00190023002D0037006
S32500015B60041004B0055005F00690073007D008700910096040003FE03FA03F603F203EE014
S32500015B803E803E403DE03D803D203CC03C603C003B803B60000028952DD112000E80000006
S32500015BA000000C801900258032003E80000005001900258032003E804B0000A005A00080E1
S32500015BC000400AF00AF00640057804B003E8032002800280028002800280028002800280F5
S32500015BE002800AF00000000009600960096009600960096009600960096009600960096036
S32500015C0009600960000000040007000A000C000E00670041002F0028002300003F994EE450
S32500015C204055065B408A1ACE3F994EE44055065B408A1ACE00000000000000000000000003
S32500015C4000000000000000000000000000000000FE41FABBF766F478F1DBEF82ED64EB7B8C
S32500015C60E9C1E82CE6B9E562E426E303E1F5E0F9E004DF0F0000FC13FA5BF90BF7F1F6F9C9
S32500015C80F61CF550F492F3DFF336F295F1FCF169EEBCEAB0E7D8E5E9E482E378E2B3E2222C
S32500015CA0E1BAE16DE137E113E111E303E1F5E0F9E004DF0F0000F804F3E8F0DFEE59EC2492
S32500015CC0EA2DE85FE6B2E51EE3A0E237E0DFDF94DDD1DB91D9CED886D78FD6D3D645D5DCFC
S32500015CE0D58ED555D52CD6F2DFC4E303E1F5E0F9E004DF0F0000F5F2ED8DE7BAE30EDF0B60
S32500015D00DB81D847D54AD27ECFDACD5CCAFDC8B6C6A0C50BC3E6C30BC263C1E2C17FC135D0
S32500015D20C225C7ADCE5AD633DFC4E303E1F5E0F9E004DF0F0000F5F2EC0EE242DACDD4A0A6
S32500015D40CF4ACA7BC60EC1F1BE14BA72B6FEB3B2B179B042AF60AF00B0B5B439B835BCB9B3
S32500015D60C1DCC7ADCE5AD633DFC4E303E1F5E0F9E004DF0F0000F5F2EC0EE242DACDCDD087
S32500015D80C2FBBAEEB4B9AFF2AC5CA9E1A7F9A714A7D8A935AB19ADA6B0B5B439B835BCB974
S32500015DA0C1DCC7ADCE5AD633DFC4E303E1F5E0F9E004DF0F3AE03AC03A003940387037806A
S32500015DC036B03AE03AC03A0039403870378036B03AE03AC03A0039403870378036B03AE0A4
S32500015DE03AC03A0039403870378036B03AE03AC03A0039403870378036B03AE03AC03A0050
S32500015E0039403870378036B03AE03AC03A0039403870378036B03AE03AC03A003940387042
S32500015E20378036B03AE03AC03A0039403870378036B03AE03AC03A0039403870378036B0A6
S32500015E403AE03AC03A0039403870378036B03AE03AC03A0039403870378036B03AD09B86F8
S32500015E603CDD2F1B3F7F5B803F4CDD43BF4C38C339A6E2D53A1D49523F7FADB13F91E8A36F
S32500015E80BF91BF7B3B509B8A3B449BA63F7F9922403FE647C03FCC8EC0000000C0400000C3
S32500015EA0C0A00000C040000005001400320000000064012C065B0000000000280180038012
S32500015EC03DCCCCCD00001388412800000000006441F0000041200000424800003F800000D6
S32500015EE04000000002801900190019000600060006000000002000400060008000E0003B21
S32500015F00003B003B003B003B003B003900390039133313331333000000040008002000406A
S32500015F20008001400000006600CD0133019A026602CD0333039A040000000019006100D33C
S32500015F400161029F032D039F03E7040000000100028000003DCCCCCD3DCCCCCD3D0277FFFB
S32500015F6000230064000007C20954110519662895204E20221E6715590EE800000000014041
S32500015F800280032003C004600550061206900780293C14F20C99092A063803FE014F0000D2
S32500015FA00000000006000680070008000900097A09FA0A460AC60CC62894289428942894CE
S32500015FC02894044100EA00C9000000000600062006A007A0087A097A09C60A460AC60CC6C7
S32500015FE02894198612FA0E660733044100EA00C900000000000006E0083111F4194428954F
S325000160001F561F561D8E13300D840000000006170768112B187B27CC1F561F561D8E1330EA
S325000160200D84000001000000040006400880154017401980374039803C0064C067406A000F
S325000160407D007D007D007D007D000DC00DC00DC00DC00DC00DC00DC00DC00DC00DC00DC0F9
S325000160600DC00DC00DC00DC00DC00DC00DC0000040400000418800003D23D70A00000100F3
S325000160800C801900258032004B0064003E99999A00CD00CD00CD00CD00CD00CD00CD00CD5C
S325000160A000CD00CD0000010005000C801900258032004B0064007C80010000003F80000052
S325000160C03E19999A4000800000004000000000800100018002000000008001000180020027
S325000160E0000002800F00190028003700BF6C57D1BD272FBA3F99D7EDC0006CCE3F57389379
S32500016100BF550001BDFFA001404EA701C0B2E77F4019EAFFBF6C57D1BD272FBA3F99D7EDFA
S32500016120C0006CCE3F573893BF550001BDFFA001404EA701C0B2E77F4019EAFF40004000BB
S32500016140400040004000400040004000400040004000400040004000400040004000400038
S32500016160400040004000400040004000400040004000400040004000400040004000400018
S325000161804000400040004000400040004000400040004000400040004000400040004000F8
S325000161A0400040004000400040004000400040004000400000000000000000000000000058
S325000161C00000000000000000400040004000400040004000400040004000400040004000B8
S325000161E0400040004000400040004000400040000000000000000000000000000000000098
S325000162000000000040004000400040004000400040004000400040004000400040004000F7
S3250001622040004000400040004000400001000005000501FD00CC0066000001FD00CC00666C
S32500016240000000AB00AB009B0034001F00A700A70096002000150028002800280029002811
S32500016260002C002C002C002C002D00390039003C003C004A0046004600560056005F0094DB
S32500016280009400A900CC01B500A200A200B100ED022500000000000000000000000000002F
S325000162A0000000000000014F014F014F06D514EB014F014F014F0B11253F0164016401B51D
S325000162C0108E35B40164016401B5253F53AEFFEC003C0050005F00690000004C005000541C
S325000162E00058005C0060006402050205020802040194012700B9004C0000002000A00190EE
S325000163000320064000000020007000B001900640000000CD00CD00F601EC05E10000010092
S3250001632005000C8014001E00019A01C301C302660400099A019A01C301C302660400099A2F
S32500016340019A01C301C302660400099A019A01C301C302660400099A019A01C301C3026647
S325000163600400099A019A01C301C302660400099A001200080008000800080008C800C80073
S32500016380C800C800C800C800C5898000458980000000080008000800080008000800080082
S325000163A0080008000800080001400150016001700180019001A001B001C001D001E000007B
S325000163C000002B6F000008C0078000000C8019002080258020B220B220B220B220B20000C9
S325000163E0019A01CC01DC01F7020F022E0249026B028902A502C602E20301031D033804001F
S3250001640004C807800A000000000000060008000E00150021002E0041005400690084009D79
S3250001642000BB00DA00F9021403960967101E0000010005000C801900258032004B00640049
S325000164407C800000010005000C801900258032004B0064007C807D007D808CCD8CCD8CCD87
S325000164608CCD8CCD8CCD8CCD8CCD8CCD8CCD8CCD8CCD0000000000000000000000000000F4
S325000164800000000000000000000003330000000000000000000000000000000000000000BF
S325000164A00000000000000000000000000000000000000000000000000000000000000000D5
S325000164C0000000000000000000000000000000000000CE00DA80F380F9C0FD800000028062
S325000164E005000C801E002580D74CFC0004000E661000126618003000500068006D9AE7BF75
S32500016500FC0004000E661000126618003000500068006D9AFA9EFC00FFD901E708000C0009
S32500016520140020003000459A5000FB32FC0000B4019A02660800140020003000459A48004E
S32500016540FBD9FC0000CD00CD00CD0400140020003000459A4800FB59FC3400CD00CD00CD83
S325000165600400140020003000459A4800FCD1FCE800CD00CD00CD04CD140020003000459A59
S325000165804800FCD1FCE800CD00CD00CD04CD140020003000459A4800FCD1FCE800CD00CDED
S325000165A000CD04CD140020003000459A4800FCD1FCE800CD00CD00CD04CD1400200030005E
S325000165C0459A4800FCD1FCE800CD00CD00CD04CD140020003000459A4800FCD1FCE800CD9B
S325000165E000CD00CD04CD140020003000459A4800001A001A001A0031007300E1023B044347
S3250001660006F108CD08CD001A001A001A0031007300E1023B044306F108CD08CD001A001AA6
S32500016620001A0031007300E1023B044306F108CD08CD001A001A001A0031007300E1023B7F
S32500016640044306F108CD08CD001A001A001A0031007300E1023B044306F108CD08CD001A39
S32500016660001A001A0031007300E1023B044306F108CD08CD001A001A001A0031007300E162
S32500016680023B044306F108CD08CD001A001A001A0031007300E1023B044306F108CD08CDD6
S325000166A0001A001A001A0031007300E1023B044306F108CD08CD001A001A001A00310073E9
S325000166C000E1023B044306F108CD08CD001A001A001A0031007300E1023B044306F108CD8A
S325000166E008CD001A001A001A0031007300E1023B044306F108CD08CD100010000800033368
S32500016700019A019A080008000800080008001000100008000333019A019A08000800080068
S32500016720080008001000100008000333019A019A080008000800080008001000100008005E
S325000167400333013301330400040004000400040000140014001400CD00CD00A400140014DE
S3250001676000140014001400140014001400CD00CD00A40014001400140014001400140014D0
S32500016780001400CD00CD00A40014001400140014001400140014001400CD00CD00A40014AE
S325000167A000140014001400143F80000041300000401EB852429600003F000000000007D0FC
S325000167C0437A00004220000040E000003F19999A3E19999A3D147AE13F0000003F00000034
S325000167E03FC00000427000003FA000003F8000003F0000003FC000004170000041700000A3
S32500016800407000000000006440A0000041680000401F5C293F8000003F3333334030A3D76F
S325000168203E4CCCCD00000F001E002D0000001000400040003A83126F400000003DCCCCCD24
S325000168403F6147AEBF2147AE3E99999A3F4CCCCD000000004120000041F0000040E00000E7
S325000168604020000000000000402BEDFA40099B3D4008D0143FEE76C9C0A00000C000000086
S325000168804000000040A000000000000000000000000000003F800000000000013E1E920C17
S325000168A04028EF3540AE17C840A9EE8DC0A9489BC05228AEBFAD82D43DF5E84FBBA38B8B41
S325000168C0402233D340B931A3408248C5C0A258B0C0294DE4BDC47DC33F0F9D3DBE73209659
S325000168E0400E3F9640CF84274087BEFBC03CFBC6C066440B3F4EBF553F0568C7BF1FEDB76C
S325000169004016042140E0A5354094EAB3C09D2F9BC00B35F4400C9DBB3F82BD013DCCCCCDAA
S325000169204120000041A000003F00000042C800003F800000418800003D23D70ABF800000BD
S3250001694042C800000000000000000000000000000000000000000000000000003F80000067
S32500016960000000000000000000000000000000000000200030004000000000000000400040
S325000169800000002600260033004000400040004000000052005200CD01EC01EC01EC01EC4C
S325000169A0400040004000400040004000400040003F539347C1517102350E00CF3DB38A1C37
S325000169C0C156D8253AEF37633F7C65812F42CCEC3946CC69BC62EA913E2FAC8241516E44E3
S325000169E03F7F7C66BE3FC9F24156E239B60F3CB6B96A22AF36790F4EB584C91FB9E9B3B0A9
S32500016A00386D31483D74CFA8AC76017036C166103F7FED8CB408BA67B75DC04D345277A552
S32500016A203A8310E3B7D8915F3AD346FE3D87576C344D0270391E98DD3E0479483B026E9645
S32500016A403B025CCD3B0248ECB928E1AD38F414CB3936F63B3C5EA9EF3B02B0523F7FBBF361
S32500016A603C6A97993E99999A401333333F0000003F3333334248000040C0000042D20000C1
S32500016A8007800780078007800780078041700000EC00EE80F100F600FB00000005000A00C9
S32500016AA00F00140019001000100010001000100010001000100010001000100000040000DF
S32500016AC0417000000000006500E80189024A032704250545067F07D5094800010064000027
S32500016AE0010005000C801900258032004B0064007C807D007D800000385258273ECA4796FA
S32500016B0000001000200030004000500060007000800090000000000000000000000000009E
S32500016B20000000000000000003ED24A70100010000000000004E00B300E6010001000100A7
S32500016B4001000100010001000000000000000000000000000000000000000000000000002A
S32500016B6000000000000000000000000000000000000000000000000000000000000000000E
S32500016B800000000000000000000000000000000000000000000000000000000000000000EE
S32500016BA00080008000800080008000800080008000800080008000800080008000800080CE
S32500016BC000800080008000800080008000800080000000000000000D50670C8D0F0050678B
S32500016BE021AE0030010004000000028005000A000000028005000A0000000000258025801E
S32500016C0000000100002000A0014001E0002000A0014001E0002000A0014001E0002000A006
S32500016C20014001E0066633334CCD8000066633334CCD8000066633334CCD80000666333318
S32500016C404CCD80000000028F0000028F0000028F0000028F0000028F0000028F0000028F9D
S32500016C600000028F1E4801E0000001E0000001E0000001E00000001A001A001A030003003E
S32500016C80001A001A001A030003000000000000000000000000000000000000000000000099
S32500016CA044B403850096000040828F5C0416032E020800F3027402B602F8037B776D000038
S32500016CC000CD019A0266033304000000000000000000000000001000100010001000100053
S32500016CE0100010001000000000CD019A0200033304000000000000000000000000000000B9
S32500016D000000000000000000000000000000000000200190032004B0064009600C800000A9
S32500016D2042480000424800004248000041700000406800003200FFB0FFC4FFD8FFEC0000EF
S32500016D400032006400A0008000800080008000800080008000800000040007800B800F8051
S32500016D60130000000D001980268033004000000001000C801900258032004B006400019A73
S32500016D803DCCCCCD3B03126F3F80000003E80000400000004406B99A43F240003F800000D0
S32500016DA041C800003605FFFD3605FFFD420C13B9420C13B9187C04C8390BCF630003000048
S32500016DC043BA7EF03585FFFF41A00000424800003D2B3FFF39039002390390023D44D80182
S32500016DE03CE2600238C5780038C578003C8AFFFE390204034534B0003585FFFF00000066D6
S32500016E00020006000C00204CFB00014003200A0012E0433340003E14370A3148032005A006
S32500016E20002000100AF000F000F000F000F000F000F000F000F000F000F00AF00AF00000CD
S32500016E40023002300230023002300230023002300230023000000000000000A001900230D4
S32500016E6002D00370041004B0055005F00690073007D008700910096040003FE03FA03F4059
S32500016E803F003EC03E603E003DA03D203CC03C403BE03B603AE03AA00000281F2D5C120094
S32500016EA00E80000000000C801900258032003E80000005001900258032003E804B0000A065
S32500016EC005A0008000400AF00AF00640057804B003E80320028002800280028002800280C1
S32500016EE00280028002800AF0000000000960096009600960096009600960096009600960F1
S32500016F000960096009600960000000040007000A000C000E00670041002F00280023000075
S32500016F203F994EE44055065B408A1ACE3F994EE44055065B408A1ACE0000000000000000E6
S32500016F40000000000000000000000000000000000000FF36FC14F862F52AF256EFD0ED8CEC
S32500016F60EB81E9A9E7FEE677E511E3C6E295E17DE078DF85DE98DDAC0000FC19FA64F91718
S32500016F80F7FFF709F62DF562F4A5F3F4F34CF2ADF215F07DEC66E8BFE665E4C5E397E2BAA5
S32500016FA0E217E1A2E150E116E0F0E0DAE0D8E17DE078DF85DE98DDAC0000F802F3F3F0F10A
S32500016FC0EE71EC41EA4EE884E6D9E549E3CEE268E112DF94DD41DB0ED97FD85FD788D6E67B
S32500016FE0D66ED616D5D7D5ABD58DD740DF9CE17DE078DF85DE98DDAC0000F5C9ED71E7B767
S32500017000E31BDF24DBA3D872D57CD2B6D018CDA0CB45C906C71FC5B4C4AAC3E6C350C2DF69
S32500017020C289C24AC336C88ACEFDD689DF9CE17DE078DF85DE98DDAC0000F5C5EBBAE1E2C7
S32500017040DA99D487CF46CA87C629C218BE46BAADB743B457B298B182B0B4B05EB20AB587D5
S32500017060B975BDE1C2E4C88ACEFDD689DF9CE17DE078DF85DE98DDAC0000F5C5EBBAE1E265
S32500017080D9D9CC95C18CB984B386AF23AC0EA931A75DA75FA87BAA26AC55AEFAB20AB5870F
S325000170A0B975BDE1C2E4C88ACEFDD689DF9CE17DE078DF85DE98DDAC3AE03AC039D03900F1
S325000170C03810370036003AE03AC039D039003810370036003AE03AC039D039003810370014
S325000170E036003AE03AC039D039003810370036003AE03AC039D039003810370036003AE023
S325000171003AC039D039003810370036003AE03AC039D039003810370036003AE03AC039D04F
S3250001712039003810370036003AE03AC039D039003810370036003AE03AC039D039003810B1
S32500017140370036003AE03AC039D039003810370036003AE03AC039D03900381037003600A5
S325000171603AD09B863CDD2F1B3F7F5B803F4CDD43BF4C38C339A6E2D53A1D49523F7FADB18C
S325000171803F91E8A3BF91BF7B3B509B8A3B449BA63F7F9922403FE647C03FCC8EC000000055
S325000171A0C0400000C0A00000C040000005001400320000000064012C065B00000000002803
S325000171C0018003803DCCCCCD00001388412800000000006441F0000041200000424800007E
S325000171E03F800000400000000280190019001900060006000600000000200040006000806A
S3250001720000E0003B003B003B003B003B003B0039003900391333133313330000000400089C
S3250001722000200040008001400000006600CD0133019A026602CD0333039A040000000019FD
S32500017240006100D30161029F032D039F03E7040000000100028000003DCCCCCD3DCCCCCD69
S325000172603D09080100230064000008500DBF13F71944281F20E020AF17B410F80E3E000071
S325000172800000014001E0032003C00460050005A006900780293C151C109709A706DF04F9E5
S325000172A0034601A30000000006000680070008000900095309D30A360AB60CB6281E281EB0
S325000172C0281E281E281E03CB015F012D000000000600062006A007A00853095309B60A364A
S325000172E00AB60CB6281E1B0715230DF0064003CB015F012D00000000000006E00DBF13A35E
S325000173001944281F1F7F1F57174E123D0E3E0000000005B30C921276181726F21F7F1F5775
S32500017320174E123D0E3E000001000000E100E100E100E100E100E100E100E100E100E1007B
S32500017340E100E100E100E100E100E100E1000CE00CE00CE00CE00CE00CE00CE00CE00CE0B3
S325000173600CE00CE00CE00CE00CE00CE00CE00CE00CE0000040400000418800003D23D70A30
S32500017380000001000C801900258032004B0064003E99999A00CD00CD00CD00CD00CD00CDE2
S325000173A000CD00CD00CD00CD0000010005000C801900258032004B0064007C800100000064
S325000173C03F8000003E19999A400080000000400000000200040006000A0000000200040041
S325000173E006000A00000002800F00190028003700BF6C57D1BD272FBA3F99D7EDC0006CCEB7
S325000174003F573893BF99606B3E85CAB0403BA9B0C0AAEE33401E3BD6BF6C57D1BD272FBAB6
S325000174203F99D7EDC0006CCE3F573893BF99606B3E85CAB0403BA9B0C0AAEE33401E3BD620
S32500017440400040004000400040004000400040004000400040004000400040004000400025
S32500017460400040004000400040004000400040004000400040004000400040004000400005
S325000174804000400040004000400040004000400040004000400040004000400040004000E5
S325000174A04000400040004000400040004000400040004000400040000000000000000000C5
S325000174C0000000000000000000000000400040004000400040004000400040004000400025
S325000174E0400040004000400040004000400040004000400000000000000000000000000005
S32500017500000000000000000040004000400040004000400040004000400040004000400064
S3250001752040004000400040004000400040004000010000050005020A00D100680000020AE8
S3250001754000D100680000004C004C00360036002000370037003700310016002A002A002B5C
S32500017560002B002A002E002E002E002E002F003F003F003F003F004D004D00590059005927
S32500017580006300A100A100D400D401C700B800B000B000B0023B00000000000000000000CA
S325000175A000000000000000000000037C03DD071C071C15C404D204D204D2063326C108405C
S325000175C008401139113937E00DF10DF10DF111395710FFD80050005F006100690000004C6A
S325000175E0005000540058005C00600064020A020A020702040194012700B9004C000000205F
S3250001760000A001900320064000000020007000B001900640000000CD00CD00F601EC05E14F
S325000176200000010005000C8014001E00019A01C301C302660400099A019A01C301C30266C2
S325000176400400099A019A01C301C302660400099A019A01C301C302660400099A019A01C3B9
S3250001766001C302660400099A019A01C301C302660400099A000800080008000800080008CE
S32500017680C800C800C800C800C800C800C589800045898000000008000800080008000800EF
S325000176A008000800080008000800080001400150016001700180019001A001B001C001D039
S325000176C001E00000FFFFFFFF000008C0078000000C8019002080258020B220B220B220B245
S325000176E020B20000019A01CC01DC01F7020F022E0249026B028902A502C602E20301031D79
S325000177000338040004C807800A000000000000060008000E00150021002E00410054006948
S325000177200084009D00BB00DA00F9021403960967101E0000010005000C80190025803200C4
S325000177404B0064007C800000010005000C801900258032004B0064007C807D007D808CCD77
S325000177608CCD8CCD8CCD8CCD8CCD8CCD8CCD8CCD8CCD8CCD8CCD000000000000000000002F
S325000177800000000000000000000000000000033300000000000000000000000000000000AC
S325000177A00000000000000000000000000000000000000000000000000000000000000000C2
S325000177C000000000000000000000000000000000000000000000CE00DA80F380F9C0FD80D1
S325000177E00000028005000C801E002580D74CFC0004000E661000126618003000500068008D
S325000178006D9AE7BFFC0004000E661000126618003000500068006D9AFA9EFC00FFD901E75D
S3250001782008000C00140020003000459A5000FB32FC0000B4019A026608001400200030004E
S32500017840459A4800FBD9FC0000CD00CD00CD0400140020003000459A4800FB59FC3400CDE3
S3250001786000CD00CD0400140020003000459A4800FCD1FCE800CD00CD00CD04CD14002000BB
S325000178803000459A4800FCD1FCE800CD00CD00CD04CD140020003000459A4800FCD1FCE865
S325000178A000CD00CD00CD04CD140020003000459A4800FCD1FCE800CD00CD00CD04CD140001
S325000178C020003000459A4800FCD1FCE800CD00CD00CD04CD140020003000459A4800FCD1E9
S325000178E0FCE800CD00CD00CD04CD140020003000459A4800001A001A001A0031007300E107
S32500017900023B044306F108CD08CD001A001A001A0031007300E1023B044306F108CD08CD43
S32500017920001A001A001A0031007300E1023B044306F108CD08CD001A001A001A0031007356
S3250001794000E1023B044306F108CD08CD001A001A001A0031007300E1023B044306F108CDF7
S3250001796008CD001A001A001A0031007300E1023B044306F108CD08CD001A001A001A0031B4
S32500017980007300E1023B044306F108CD08CD001A001A001A0031007300E1023B044306F119
S325000179A008CD08CD001A001A001A0031007300E1023B044306F108CD08CD001A001A001AD0
S325000179C00031007300E1023B044306F108CD08CD001A001A001A0031007300E1023B04439F
S325000179E006F108CD08CD001A001A001A0031007300E1023B044306F108CD08CD10001000C7
S32500017A0008000333019A019A080008000800080008001000100008000333019A019A080027
S32500017A2008000800080008001000100008000333019A019A08000800080008000800100053
S32500017A40100008000333013301330400040004000400040000140014001400CD00CD00A4DB
S32500017A600014001400140014001400140014001400CD00CD00A400140014001400140014BD
S32500017A8000140014001400CD00CD00A40014001400140014001400140014001400CD00CD2B
S32500017AA000A4001400140014001400143F80000041300000401EB852429600003F00000008
S32500017AC0000007D0437A00004220000040E000003F19999A3E19999A3D147AE13F00000089
S32500017AE03F0000003FC00000427000003FA000003F8000003F0000003FC000004170000002
S32500017B0041700000407000000000006440A0000041680000401F5C293F8000003F33333395
S32500017B204030A3D73E4CCCCD00000F001E002D0000001000400040003A83126F40000000C9
S32500017B403DCCCCCD3F6147AEBF2147AE3E99999A3F4CCCCD000000004120000041F0000052
S32500017B6040E000004020000000000000402BEDFA40099B3D4008D0143FEE76C9C0A0000013
S32500017B80C00000004000000040A000000000000000000000000000003F800000000000013E
S32500017BA03E1E920C4028EF3540AE17C840A9EE8DC0A9489BC05228AEBFAD82D43DF5E84FA8
S32500017BC0BBA38B8B402233D340B931A3408248C5C0A258B0C0294DE4BDC47DC33F0F9D3DB9
S32500017BE0BE732096400E3F9640CF84274087BEFBC03CFBC6C066440B3F4EBF553F0568C7F4
S32500017C00BF1FEDB74016042140E0A5354094EAB3C09D2F9BC00B35F4400C9DBB3F82BD01B7
S32500017C203DCCCCCD4120000041A000003F00000042C800003F800000418800003D23D70A47
S32500017C40BF80000042C80000000000000000000000000000000000000000000000000000D4
S32500017C603F80000000000000000000000000000000000000000020003000400000000000AE
S32500017C80000040000000002600260033004000400040004000000052005200CD01EC01ECD3
S32500017CA001EC01EC400040004000400040004000400040003F539347C1517102350E00CFE0
S32500017CC03DB38A1CC156D8253AEF37633F7C65812F42CCEC3946CC69BC62EA913E2FAC827E
S32500017CE041516E443F7F7C66BE3FC9F24156E239B60F3CB6B96A22AF36790F4EB584C91F57
S32500017D00B9E9B3B0386D31483D74CFA8AC76017036C166103F7FED8CB408BA67B75DC04DDC
S32500017D20345277A53A8310E3B7D8915F3AD346FE3D87576C344D0270391E98DD3E047948D1
S32500017D403B026E963B025CCD3B0248ECB928E1AD38F414CB3936F63B3C5EA9EF3B02B05279
S32500017D603F7FBBF33C6A97993E99999A401333333F0000003F3333334248000040C0000056
S32500017D8042F0000007800780078007800780078041700000EC00EE80F100F600FB00000093
S32500017DA005000A000F001400190010001000100010001000100010001000100010001000C1
S32500017DC000040000417000000000006500E80189024A032704250545067F07D50948000174
S32500017DE000640000010005000C801900258032004B0064007C807D007D8000003852582768
S32500017E003ECA479600001000200030004000500060007000800090000000000000000000A6
S32500017E2000000000000000000000000003ED24A70100010000000000004E00B300E6010096
S32500017E40010001000100010001000100000000000000000000000000000000000000000015
S32500017E600000000000000000000000000000000000000000000000000000000000000000FB
S32500017E800000000000000000000000000000000000000000000000000000000000000000DB
S32500017EA00000000000800080008000800080008000800080008000800080008000800080BB
S32500017EC00080008000800080008000800080008000800080000000000000000D50670C8D3E
S32500017EE00F0050671EDB0030010004000000028005000A000000028005000A000000000065
S32500017F002580258000000100002000A0014001E0002000A0014001E0002000A0014001E069
S32500017F20002000A0014001E0066633334CCD8000066633334CCD8000066633334CCD800017
S32500017F40066633334CCD80000000028F0000028F0000028F0000028F0000028F0000028F49
S32500017F600000028F0000028F1B6501E0000001E0000001E0000001E00000001A001A001A86
S32500017F8003000300001A001A001A0300030000000000000000000000000000000000000080
S32500017FA00000000044B403850096000040828F5C044A032E020800F3027402B602F8037BD5
S32500017FC0776D000000CD019A0266033304000000000000000000000000001000100010007C
S32500017FE010001000100010001000000000CD019A0200033304000000000000000000000086
S32500018000000000000000000000000000000000000000000000200190032004B00640096022
S325000180200C80000042480000424800004248000041700000406800003200FFB0FFC4FFD83B
S32500018040FFEC00000032006400A0008000800080008000800080008000800000040007806D
S325000180600B800F80130000000D001980268033004000000001000C801900258032004B0045
S325000180806400019A3DCCCCCD3B03126F3F80000003E800004000000043F6D99A43DB266639
S325000180A03F80000041C800003605FFFD3605FFFD420C13B9420C13B9187C04C8390BCF6379
S325000180C00003000043BA7EF03585FFFF41A00000424800003D2B3FFF3903900239039002C6
S325000180E03D44D8013CE2600238C5780038C578003C8AFFFE390204034534B0003585FFFFCF
S3250001810000000066020006000C002049FB00000004600A0012E041EC41EC40003A3D347B5A
S32500018120032005A0002000100AF000F000F000F000F000F000F000F000F000F000F00AF0EC
S325000181400AF00000023002300230023002300230023002300230023000000000000000A08A
S325000181600190023002D00370041004B0055005F00690073007D008700910096040003FE0E1
S325000181803FA03F403F003EC03E603E003DA03D203CC03C403BE03B603AE03AA00000289548
S325000181A02DD112000E80000000000C801900258032003E80000005001900258032003E802D
S325000181C04B0000A005A0008000400AF00AF00640057804B003E803200280028002800280C7
S325000181E0028002800280028002800AF00000000009600960096009600960096009600960AC
S32500018200096009600960096009600960000000040007000A000C000E00670041002F0028B3
S32500018220002300003F994EE44055065B408A1ACE3F994EE44055065B408A1ACE00000000B0
S3250001824000000000000000000000000000000000000000000000FFFDFD95F9E3F6ABF3D742
S32500018260F150EF0CED00EB27E97CE7F4E68DE542E411E2F8E1F3E100E013DF260000FC4624
S32500018280FAA2F962F856F76AF697F5D5F520F475F3D4F33CF2AAF21EEE9AEA72E7CCE5FC42
S325000182A0E4ABE3B3E2FAE274E214E1CEE19EE17FE411E2F8E1F3E100E013DF260000F880E8
S325000182C0F48EF1A7EF3EED24EB44E98CE7F2E672E506E3AEE266E12BDF27DCD5DB1DD9DD35
S325000182E0D8EED838D7B0D74AD701D6CBD6A5DA30E411E2F8E1F3E100E013DF260000F6D1B8
S32500018300EED5E931E4B2E0D9DD76DA60D784D4D8D253CFF2CDAECB82C985C7F6C6D2C5F888
S32500018320C551C4D2C470C427C4BDC978D0CAD9A1E411E2F8E1F3E100E013DF260000F6D152
S32500018340EDB7E4ABDD5DD75FD238CD97C957C564C1B0BE35BAE7B7CAB5BAB486B3A2B2F690
S32500018360B2B5B4ECB905BDBEC333C978D0CAD9A1E411E2F8E1F3E100E013DF260000F6D128
S32500018380EDB7E4ABDD5DD4A0C8C3BF9AB85DB2BBAE5EAADEA899A841A8D1A9FEABD4AE572D
S325000183A0B15EB4ECB905BDBEC333C978D0CAD9A1E411E2F8E1F3E100E013DF263AE03AC0F3
S325000183C039D039003810370036003AE03AC039D039003810370036003AE03AC039D039003E
S325000183E03810370036003AE03AC039D039003810370036003AE03AC039D0390038103700E1
S3250001840036003AE03AC039D039003810370036003AE03AC039D039003810370036003AE0EF
S325000184203AC039D039003810370036003AE03AC039D039003810370036003AE03AC039D01C
S3250001844039003810370036003AE03AC039D039003810370036003AE03AC039D0390038107E
S32500018460370036003AD09B863CDD2F1B3F7F5B803F4CDD43BF4C38C339A6E2D53A1D495228
S325000184803F7FADB13F91E8A3BF91BF7B3B509B8A3B449BA63F7F9922403FE647C03FCC8EE6
S325000184A0C0000000C0400000C0A00000C040000005001400320000000064012C065B000058
S325000184C000000028018003803DCCCCCD00001388412800000000006441F0000041200000CD
S325000184E0424800003F800000400000000280190019001900060006000600000000200040AD
S325000185000060008000E0003B003B003B003B003B003B0039003900391333133313330000B5
S325000185200004000800200040008001400000006600CD0133019A026602CD0333039A0400F7
S3250001854000000019006100D30161029F032D039F03E7040000000100028000003DCCCCCDDF
S325000185603DCCCCCD3D090801002300640000082C0A27107F1A2F28E82202220220FD190CA5
S325000185800F6E00000000014001E0032003C00460050005A00690078028941695127D0C1C06
S325000185A0095406DF04BF0380025B000006000680070008000900095309D30A1A0A9A0C9A85
S325000185C0289428942894289428940709027C012D000000000600062006A007A008530953FC
S325000185E0099A0A1A0A9A0C9A28941CCC1640112E097D0709027C012D000000000000068C56
S325000186000BC80FB618592895204920491C7C1842103D00000000055F0A9B0E89172C27680A
S32500018620204920491C7C1842103D000001000000044008800CC01100154019803B803FC0D0
S325000186404400484050C0594061C06A406E8072C091400D400D400D6D0DCD0E460EA60ECD11
S325000186600ECD0ECD0EC00E930E3A0DDA0D800D200CFA0CF30CF30000404000004188000098
S325000186803D23D70A000001000C801900258032004B0064003E99999A00CD00CD00CD00CD28
S325000186A000CD00CD00CD00CD00CD00CD0000010005000C801900258032004B0064007C80B8
S325000186C0010000003F8000003E19999A400080000000400000000080010001800200000045
S325000186E00080010001800200000002800F00190028003700BF6C57D1BD272FBA3F99D7EDAA
S32500018700C0006CCE3F573893BF550001BDFFA001404EA701C0B2E77F4019EAFFBF6C57D1E2
S32500018720BD272FBA3F99D7EDC0006CCE3F573893BF550001BDFFA001404EA701C0B2E77FEE
S325000187404019EAFF4000400040004000400040004000400040004000400040004000400050
S325000187604000400040004000400040004000400040004000400040004000400040004000F2
S325000187804000400040004000400040004000400040004000400040004000400040004000D2
S325000187A0400040004000400040004000400040004000400040004000400040000000000032
S325000187C0000000000000000000000000000000004000400040004000400040004000400092
S325000187E0400040004000400040004000400040004000400040004000000000000000000072
S325000188000000000000000000000000004000400040004000400040004000400040004000D1
S325000188204000400040004000400040004000400040004000010000050005022E00DF007027
S325000188400000022E00DF0070000000510051003900390021003B003B002300230017002565
S32500018860002500260026002500280028002800280029003800380038003800440044004FDB
S32500018880004F004F0057008F008F00BC00BC019300A3009C00DB00DB01FA000000000000C2
S325000188A000000000000000000000000000000317036C064E064E134C044604460A350A350F
S325000188C0225B075007500F450F4531890C5C0C5C225B225B4D30FFD80050005F006100696D
S325000188E00000004C005000540058005C00600064022E022E022A022601AF013A00C5005154
S325000189000000002000A001900320064000000020007000B001900640000000CD00CD00F6EF
S3250001892001EC05E10000010005000C8014001E00019A01C301C302660400099A019A01C308
S3250001894001C302660400099A019A01C301C302660400099A019A01C301C302660400099AD9
S32500018960019A01C301C302660400099A019A01C301C302660400099A00080008000800086C
S3250001898000080008C800C800C800C800C800C800C5898000458980000000080008000800DC
S325000189A00800080008000800080008000800080001400150016001700180019001A001B0A8
S325000189C001C001D001E00000FFFFFFFF000008C00780000005000C802080258022002200B8
S325000189E020B220B220B20000019A01CC01DC01F7020F022E0249026B028902A502C602E2E6
S32500018A000301031D0338040004C807800A000000000000060008000E00150021002E0041CE
S32500018A20005400690084009D00BB00DA00F9021403960967101E0000010005000C801900CB
S32500018A40258032004B0064007C800000010005000C801900258032004B0064007C807D00E3
S32500018A607D808CCD8CCD8CCD8CCD8CCD8CCD8CCD8CCD8CCD8CCD8CCD8CCD000000000000C6
S32500018A80000000000000000000000000000000000000033300000000000000000000000099
S32500018AA00000000000000000000000000000000000000000000000000000000000000000AF
S32500018AC00000000000000000000000000000000000000000000000000000CE00DA80F380F4
S32500018AE0F9C0FD800000028005000C801E002580D74CFC0004000E661000126618003000FC
S32500018B00500068006D9AE7BFFC0004000E661000126618003000500068006D9AFA9EFC0052
S32500018B20FFD901E708000C00140020003000459A5000FB32FC0000B4019A026608001400CB
S32500018B4020003000459A4800FBD9FC0000CD00CD00CD0400140020003000459A4800FB597D
S32500018B60FC3400CD00CD00CD0400140020003000459A4800FCD1FCE800CD00CD00CD04CDDF
S32500018B80140020003000459A4800FCD1FCE800CD00CD00CD04CD140020003000459A4800CF
S32500018BA0FCD1FCE800CD00CD00CD04CD140020003000459A4800FCD1FCE800CD00CD00CD22
S32500018BC004CD140020003000459A4800FCD1FCE800CD00CD00CD04CD140020003000459A06
S32500018BE04800FCD1FCE800CD00CD00CD04CD140020003000459A4800001A001A001A003133
S32500018C00007300E1023B044306F108CD08CD001A001A001A0031007300E1023B044306F186
S32500018C2008CD08CD001A001A001A0031007300E1023B044306F108CD08CD001A001A001A3D
S32500018C400031007300E1023B044306F108CD08CD001A001A001A0031007300E1023B04430C
S32500018C6006F108CD08CD001A001A001A0031007300E1023B044306F108CD08CD001A001A20
S32500018C80001A0031007300E1023B044306F108CD08CD001A001A001A0031007300E1023BF9
S32500018CA0044306F108CD08CD001A001A001A0031007300E1023B044306F108CD08CD001AB3
S32500018CC0001A001A0031007300E1023B044306F108CD08CD001A001A001A0031007300E1DC
S32500018CE0023B044306F108CD08CD001A001A001A0031007300E1023B044306F108CD08CD50
S32500018D001000100008000333019A019A080008000800080008001000100008000333019A97
S32500018D20019A080008000800080008001000100008000333019A019A0800080008000800B5
S32500018D4008001000100008000333013301330400040004000400040000140014001400CD21
S32500018D6000CD00A40014001400140014001400140014001400CD00CD00A400140014001461
S32500018D800014001400140014001400CD00CD00A4001400140014001400140014001400148A
S32500018DA000CD00CD00A4001400140014001400143F80000041300000401EB852429600009A
S32500018DC03F000000000007D0437A00004220000040E000003F19999A3E19999A3D147AE176
S32500018DE03F0000003F0000003FC00000427000003FA000003F8000003F0000003FC0000061
S32500018E004170000041700000407000000000006440A0000041680000401F5C293F800000A9
S32500018E203F3333334030A3D73E4CCCCD00000F001E002D0000001000400040003A83126F1E
S32500018E40400000003DCCCCCD3F6147AEBF2147AE3E99999A3F4CCCCD000000004120000030
S32500018E6041F0000040E000004020000000000000402BEDFA40099B3D4008D0143FEE76C92F
S32500018E80C0A00000C00000004000000040A000000000000000000000000000003F800000CC
S32500018EA0000000013E1E920C4028EF3540AE17C840A9EE8DC0A9489BC05228AEBFAD82D4FD
S32500018EC03DF5E84FBBA38B8B402233D340B931A3408248C5C0A258B0C0294DE4BDC47DC365
S32500018EE03F0F9D3DBE732096400E3F9640CF84274087BEFBC03CFBC6C066440B3F4EBF552C
S32500018F003F0568C7BF1FEDB74016042140E0A5354094EAB3C09D2F9BC00B35F4400C9DBBB0
S32500018F203F82BD013DCCCCCD4120000041A000003F00000042C800003F80000041880000F6
S32500018F403D23D70ABF80000042C80000000000000000000000000000000000000000000080
S32500018F60000000003F8000000000000000000000000000000000000000002000300040009B
S32500018F8000000000000040000000002600260033004000400040004000000052005200CD9A
S32500018FA001EC01EC01EC01EC400040004000400040004000400040003F539347C151710205
S32500018FC0350E00CF3DB38A1CC156D8253AEF37633F7C65812F42CCEC3946CC69BC62EA91F4
S32500018FE03E2FAC8241516E443F7F7C66BE3FC9F24156E239B60F3CB6B96A22AF36790F4ECA
S32500019000B584C91FB9E9B3B0386D31483D74CFA8AC76017036C166103F7FED8CB408BA67C9
S32500019020B75DC04D345277A53A8310E3B7D8915F3AD346FE3D87576C344D0270391E98DDA0
S325000190403E0479483B026E963B025CCD3B0248ECB928E1AD38F414CB3936F63B3C5EA9EFA2
S325000190603B02B0523F7FBBF33C6A97993E99999A401333333F0000003F3333334248000004
S3250001908040C0000042F0000007800780078007800780078041700000EC00EE80F100F6007B
S325000190A0FB00000005000A000F0014001900100010001000100010001000100010001000D3
S325000190C01000100000040000417000000000006500E80189024A032704250545067F07D593
S325000190E00948000100640000010005000C801900258032004B0064007C807D007D8000000C
S32500019100385258273ECA47960000100020003000400050006000700080009000000000008A
S325000191200000000000000000000000000000000003ED24A70100010000000000004E00B36A
S3250001914000E60100010001000100010001000100000000000000000000000000000000001B
S325000191600000000000000000000000000000000000000000000000000000000000000000E8
S325000191800000000000000000000000000000000000000000000000000000000000000000C8
S325000191A00000000000000000008000800080008000800080008000800080008000800080A8
S325000191C0008000800080008000800080008000800080008000800080000000000000000D7B
S325000191E050670C8D0F0050671E200030010004000000028005000A000000028005000A00BD
S32500019200000000002580258000000100002000A0014001E0002000A0014001E0002000A078
S32500019220014001E0002000A0014001E0066633334CCD8000066633334CCD8000066633337B
S325000192404CCD8000066633334CCD80000000028F0000028F0000028F0000028F0000028F2E
S325000192600000028F0000028F0000028F192001E0000001E0000001E0000001E00000001A5D
S32500019280001A001A03000300001A001A001A03000300000000000000000000000000000039
S325000192A0000000000000000044B403850096000040828F5C0416032E020800F3027402B66E
S325000192C002F8037B776D000000CD019A026603330400000000000000000000000000100011
S325000192E01000100010001000100010001000000000CD019A02000333040000000000000053
S3250001930000000000000000000000000000000000000000000000000000200190032004B0BE
S32500019320064009600C80000042480000424800004248000041700000406800003200FFB013
S32500019340FFC4FFD8FFEC00000032006400A00080008000800080008000800080008000004B
S32500019360040007800B800F80130000000D001980268033004000000001000C801900258024
S3250001938032004B006400019A3DCCCCCD3B03126F3F80000003E800004000000043F10000CB
S325000193A043C900003F80000041C800003605FFFD3605FFFD420C13B9420C13B9187C04C8D0
S325000193C0390BCF630003000043BA7EF03585FFFF41A00000424800003D2B3FFF390390020B
S325000193E0390390023D44D8013CE2600238C5780038C578003C8AFFFE390204034534B000A6
S325000194003585FFFF00000066020006000C002049FB00000004600A0012E041EC41EC4000B5
S325000194203A3D347B032005A0002000100AF000F000F000F000F000F000F000F000F000F09D
S3250001944000F00AF00AF000000230023002300230023002300230023002300230000000002D
S32500019460000000A00190023002D00370041004B0055005F00690073007D00870091009608D
S3250001948040003FE03FA03F403F003EC03E603E003DA03D203CC03C403BE03B603AE03AA093
S325000194A0000028952DD112000E80000000000C801900258032003E8000000500190025804D
S325000194C032003E804B0000A005A0008000400AF00AF00640057804B003E8032002800280C8
S325000194E002800280028002800280028002800AF00000000009600960096009600960096067
S3250001950009600960096009600960096009600960000000040007000A000C000E0067004125
S32500019520002F0028002300003F994EE44055065B408A1ACE3F994EE44055065B408A1ACE46
S325000195400000000000000000000000000000000000000000000000000000FFFDFD95F9E39A
S32500019560F6ABF3D7F150EF0CED00EB27E97CE7F4E68DE542E411E2F8E1F3E100E013DF26E8
S325000195800000FC46FAA2F962F856F76AF697F5D5F520F475F3D4F33CF2AAF21EEE9AEA7281
S325000195A0E7CCE5FCE4ABE3B3E2FAE274E214E1CEE19EE17FE411E2F8E1F3E100E013DF26B9
S325000195C00000F880F48EF1A7EF3EED24EB44E98CE7F2E672E506E3AEE266E12BDF27DCD558
S325000195E0DB1DD9DDD8EED838D7B0D74AD701D6CBD6A5DA30E411E2F8E1F3E100E013DF26BE
S325000196000000F6D1EED5E931E4B2E0D9DD76DA60D784D4D8D253CFF2CDAECB82C985C7F603
S32500019620C6D2C5F8C551C4D2C470C427C4BDC978D0CAD9A1E411E2F8E1F3E100E013DF26B1
S325000196400000F6D1EDB7E4ABDD5DD75FD238CD97C957C564C1B0BE35BAE7B7CAB5BAB486B3
S32500019660B3A2B2F6B2B5B4ECB905BDBEC333C978D0CAD9A1E411E2F8E1F3E100E013DF26DF
S325000196800000F6D1EDB7E4ABDD5DD4A0C8C3BF9AB85DB2BBAE5EAADEA899A841A8D1A9FED7
S325000196A0ABD4AE57B15EB4ECB905BDBEC333C978D0CAD9A1E411E2F8E1F3E100E013DF2670
S325000196C03AE03AC039D039003810370036003AE03AC039D039003810370036003AE03AC059
S325000196E039D039003810370036003AE03AC039D039003810370036003AE03AC039D039000B
S325000197003810370036003AE03AC039D039003810370036003AE03AC039D0390038103700AD
S3250001972036003AE03AC039D039003810370036003AE03AC039D039003810370036003AE0BC
S325000197403AC039D039003810370036003AE03AC039D039003810370036003AE03AC039D0E9
S3250001976039003810370036003A509B893CDD2F1B3F7F5B803F4CDD43BF4C38C339A6E2D503
S325000197803A51B7173F7FADB13F91E8A3BF91BF7B3B509B8A3B449BA63F7F9922403FE647D3
S325000197A0C03FCC8EC0000000C0000000C0800000C040000005001400320000000064012CAD
S325000197C0065B000000000028018003803DCCCCCD00001388412800000000006441F00000BA
S325000197E041200000424800003F800000400000000280190019001900060006000600000099
S32500019800002000400060008000E0003B003B003B003B003B003B0039003900391333133388
S32500019820133300000004000800200040008001400000006600CD0133019A026602CD03333F
S32500019840039A040000000019006100D30161029F032D039F03E704000000010002800000CD
S325000198603DCCCCCD3DCCCCCD3D09080100230064000008F80A26107F1790289520B220B200
S325000198802092186A116F00000000014001E0032003C00460050005A0069007802894169573
S325000198A0127D0C1C095406DF04BF0380025B000006000680070008000900095309D30A1A05
S325000198C00A9A0C9A289428942894289428940709027C012D000000000600062006A007A056
S325000198E008530953099A0A1A0A9A0C9A28941CCC1640112E097D0709027C012D000000001E
S325000199000000068C0BC80FB618592895204920491C7C1842103D00000000055F0A9B0E8937
S32500019920172C2768204920491C7C1842103D00000100000004000640088015401740198025
S32500019940374039803C0064C067406A007D007D007D007D007D000E260E260E360E5E0FA91E
S325000199600FC20FCD0FCD0FC60FB20DDF0DCC0DC00DC00DC00DC00DC00DC0000040400000AE
S32500019980418800003D23D70A000001000C801900258032004B0064003E99999A00CD00CDE6
S325000199A000CD00CD00CD00CD00CD00CD00CD00CD0000010005000C801900258032004B006B
S325000199C064007C80010000003F8000003E19999A40008000000040000000008001000180D4
S325000199E0020000000080010001800200000002800F00190028003700BF6C57D1BD272FBA31
S32500019A003F99D7EDC0006CCE3F573893BF550001BDFFA001404EA701C0B2E77F4019EAFF86
S32500019A20BF6C57D1BD272FBA3F99D7EDC0006CCE3F573893BF550001BDFFA001404EA70160
S32500019A40C0B2E77F4019EAFF400040004000400040004000400040004000400040004000E5
S32500019A604000400040004000400040004000400040004000400040004000400040004000DF
S32500019A804000400040004000400040004000400040004000400040004000400040004000BF
S32500019AA040004000400040004000400040004000400040004000400040004000400040009F
S32500019AC00000000000000000000000000000000000000000400040004000400040004000FF
S32500019AE04000400040004000400040004000400040004000400040004000400000000000DF
S32500019B0000000000000000000000000000000000400040004000400040004000400040003E
S32500019B2040004000400040004000400040004000400040004000400001000005000501FD15
S32500019B4000CC0066000001FD00CC006600000044004400340034002F002B002B00250025DD
S32500019B600015002A002A002A002A002A002C002C002C002C0030003E003E003E003E004AD5
S32500019B800066006600660066007500B900B900D600D601D600D600D600ED00ED02880000AC
S32500019BA00000000000000000000000000000000000000422042206D506D5094F05F505F550
S32500019BC00D660D6614EB094F094F108E108E14EB14EB14EB1B571B5753AEFFD80050005F45
S32500019BE0006100690000004C005000540058005C0060006401FD01FD01FA01F60188011C98
S32500019C0000B000440000002000A001900320064000000020007000B001900640000000CDAB
S32500019C2000CD00F601EC05E10000010005000C8014001E00019A01C301C302660400099A91
S32500019C40019A01C301C302660400099A019A01C301C302660400099A019A01C301C302660E
S32500019C600400099A019A01C301C302660400099A019A01C301C302660400099A00080008C2
S32500019C800008000800080008C800C800C800C800C800C800C58980004589800000000800C9
S32500019CA00800080008000800080008000800080008000800014001500160017001800190D7
